:020000040800F2
:1000000070050020D9000008B3140008AF140008E0
:1000100000000000000000000000000000000000E0
:100020000000000000000000000000002F15000884
:1000300000000000000000002D1500083115000828
:10004000EB000008EB000008EB000008EB000008E4
:10005000EB000008EB000008EB000008EB000008D4
:1000600000000000EB000008EB00000800000000AA
:10007000EB000008EB000008EB00000800000000A7
:10008000EB000008EB00000800000000EB00000897
:1000900000000000EB000008EB000008EB00000887
:1000A00000000000EB00000800000000EB0000086A
:1000B000EB0000080000000000000000000000004D
:1000C0000448854600F050F8004800478D010008BC
:1000D000C046C046700500200448804704480047D9
:1000E000FEE7FEE7FEE7FEE7FEE7FEE7391500085C
:1000F000C100000830B50B46014600202022012433
:1001000009E00D46D5409D4205D31D469540491B4B
:100110002546954040191546521E002DF1DC30BD94
:1001200003460B439B0703D009E008C9121F08C010
:10013000042AFAD203E00B780370401C491C521EBB
:10014000F9D27047D2B201E00270401C491EFBD2C6
:1001500070470022F6E710B513460A4604461946D2
:10016000FFF7F0FF204610BD064C0125064E05E0C6
:10017000E36807CC2B430C3C98471034B442F7D3C8
:10018000FFF7A2FF7C1A00089C1A000870B5012531
:10019000ED06002406E0A0002858A100064A5050B1
:1001A000601CC4B2302CF6DB012040070349886094
:1001B00001F0E4FB002070BD0000002000ED00E035
:1001C00038B504460020009020688068C007C00F42
:1001D000012148404840002827D120688068144900
:1001E0000840002801D1012000E00020002809D1AA
:1001F000A06B10210843A063E06B01210843E0637A
:10020000012038BD2068806801210843216888608A
:10021000084909480068FFF76DFF009002E0009868
:10022000401E009000980028F9D10020E9E7000066
:100230001500008040420F00C000002070B50B4642
:10024000002115E08A0084580D464A1C07E09600FC
:100250008659A64202DA960084591546521C9A42E3
:10026000F5DB8A008258AE0082518A008450491C16
:100270009942E7DB70BD00001FB50020019002909D
:1002800003903948006B012109050843364908638A
:100290000846006B0121090588433349086300BF04
:1002A0003148403000680121090508432E4940319A
:1002B000086008460068012109050840009000BF59
:1002C00000BF2A482A490860084600F05BF9002868
:1002D00001D000F04FF8254825490860C004486067
:1002E000002123488160C160012101610421416135
:1002F00001210176002141768176FF21C231C16161
:100300000021016224300170243881620721C1621A
:1003100000F034FA002801D000F02CF80020019001
:1003200001200003029001A9114800F05DF90028A6
:1003300001D000F01FF8012001900003029001A9F4
:100340000B4800F051F9002801D000F013F8042008
:1003500001908002029001A9054800F045F90028AB
:1003600001D000F007F81FBD00100240002401403A
:10037000D400002000BFFEE700B58BB0182105A80F
:10038000FFF7E7FE002001900290039004900B20FD
:100390000590FF200130089012488088C004C00CEE
:1003A0000121490308430990002006900C20079082
:1003B00000200A9005A800F00FFE002801D0FFF7EA
:1003C000D9FF0720019000200290039004900021A3
:1003D00001A800F0E1FC002801D0FFF7CBFF0BB033
:1003E00000BD0000000FFF1F00B587B000BF002058
:1003F00001903148C06B0121490408432E49C8636C
:100400000846C06B012149040840019000BF00BFAD
:100410002A482B490860E120400248600021284812
:100420008160C160016181610C2141610021C16174
:10043000002023490862084600F074FF00BF1E48F0
:10044000406B012108431C4948630846406BC007C4
:10045000C00F019000BF00BF00BF0846406B0121E4
:100460000843154948630846406BC007C00F019018
:1004700000BF00BF042002900220039001200490DE
:10048000032005900420069002A90520000700F033
:1004900041FB082002900420069002A905200007D5
:1004A00000F038FB012200211C2000F06BFC1C2016
:1004B00000F05CFC07B000BD0010024000440040AA
:1004C00020010020F8B5044600250026002700BFC3
:1004D0003420005D012801D10220F8BD0121342023
:1004E000015500BF20688068084048404840002807
:1004F0003CD1A06B0902884302210843A063206815
:10050000C0688707BF0F2068C06880088000216826
:10051000C860206880680121C90708432168886095
:1005200000F0D2FB064611E000F0CEFB801B022853
:100530000CD9A06B0221884310210843A06300BF9F
:1005400000213420015500BF0120C6E720688068E3
:10055000C00FC0070028E7D12068C0683843216871
:10056000C860A06B02218843A06304E0A06B202137
:100570000843A063012500BF00213420015500BFBE
:100580002846AAE730B58BB00546002414E028467B
:10059000FFF798FF002802D001200BB030BD1148B2
:1005A0008068A10006AA5050A00006A90858400281
:1005B000A10001AA5050641C052CE8DB052101A80C
:1005C000FFF73CFE03984012064908610846C068E0
:1005D0004861084640680121C90308430149486051
:1005E0000020DAE740240140F8B504460D46002615
:1005F0000020009001210907E06A884215D0E06AD6
:10060000012812D0E06A02280FD0E06A03280CD03B
:10061000E06A042809D0E06A052806D0E06A0628C6
:1006200003D0E06A072800D000BF00BF3420005D7F
:10063000012801D10220F8BD01213420015500BF5D
:100640002068806804210840800800287DD1454941
:10065000686888425CD02068806A2A7801219140CD
:1006600008432168886201210907E06A884229D08D
:10067000E06A012826D0E06A022823D0E06A032835
:1006800020D0E06A04281DD0E06A05281AD0E06A6C
:10069000062817D0E06A072814D0A868216849699D
:1006A0004907490F88420DD020684069C008C00042
:1006B0002168486120684069297A4907490F084341
:1006C0002168486128680B2802D028680C2841D18D
:1006D0002548806829680B2902D10121C90501E05C
:1006E0000121890508432049886028680B2831D1F9
:1006F0001E491F480068FFF7FDFC0A21484300908F
:1007000002E00098401E009000980028F9D121E0F6
:100710002068806A2A780121914088432168886294
:1007200028680B2802D028680C2813D10E4880684E
:1007300029680B2903D10121C90502E005E0012147
:10074000890588430849886004E0A06B202108439C
:10075000A063012600BF00213420015500BF3046B0
:1007600069E70000011000000027014040420F002F
:10077000C000002001460868006C704770B5044650
:1007800000260025002C01D1012070BDA06B00289F
:1007900006D1E063002134200155204600F0BEF868
:1007A000A06B1021084000287ED1002EFCD12068CB
:1007B00080680421084080080028F5D1A06B8901D9
:1007C000884302210843A06320688068C007C00FE7
:1007D00001214840484000280FD12068C0681821F6
:1007E0008843A16808432168C86020680069000147
:1007F000000961680843216808612068C0684549AC
:1008000008402168C860207E8003617E4903084358
:10081000A16A012902D00121090300E00021084357
:10082000E16808432169022901D1042100E0002187
:1008300008432421095D490008430543A07E01289F
:100840000ED1607E002803D101200004054307E09B
:10085000A06B20210843A063E06B01210843E06303
:10086000FF21C231E069884203D0216AE069084370
:1008700005432068C06828432168C8600121090732
:10088000E06A884216D0E06A012813D0E06A0228A4
:1008900010D0E06A03280DD0E06A04280AD0E06A8C
:1008A000052807D0E06A00E02DE0062802D0E06AC3
:1008B00007280DD120684069C008C0002168486140
:1008C00020684069A18D4907490F084321684861A4
:1008D0002068C06810490840A84208D10020E063A1
:1008E000A06B0221884301210843A06310E0A06BA4
:1008F0000221884310210843A063E06B01210843D3
:10090000E063012604E0A06B10210843A0630126E8
:1009100030463AE719C2FEFFE7FF3FC310B586B085
:100920000446142101A8FFF714FC184920688842E6
:100930002AD100BF1648006801210905084314495F
:10094000086008460068012109050840009000BFC2
:1009500000BF00BF0E484038406B012108430C49DE
:10096000403948630846406BC007C00F009000BF85
:1009700000BF13200190032002900020039001A9E2
:100980000520000700F0C6F806B010BD00240140A5
:1009900040100240F8B504460D466069082801D1B0
:1009A000082711E02068C068C007C00F00280AD0DF
:1009B000A06B20210843A06300BF00213420015513
:1009C00000BF0120F8BD0C2700F07EF9064614E0B8
:1009D000681C002811D0002D04D000F075F9801B90
:1009E000A8420AD9A06B04210843A06300BF0021DC
:1009F0003420015500BF0320E4E720680068384038
:100A00000028E5D0A06B012149020843A0632068BB
:100A1000C068032189020840002825D1607E002893
:100A200022D1206800680821084008281CD12068CD
:100A3000806804210840800800280DD120684068A3
:100A40000C21884321684860A06BFF210131884355
:100A500001210843A06307E0A06B20210843A063A5
:100A6000E06B01210843E063207E002802D10C20C6
:100A7000216808600020A5E770B5044600252068BD
:100A80008068042108408008002828D100BF342055
:100A9000005D012801D1022070BD012134200155E3
:100AA00000BF2046FFF78CFB0546002D18D1A06B38
:100AB0000C490840FF2101310843A0630020E06396
:100AC00000BF00213420015500BF1C2021680860B0
:100AD00020688068042108432168886000E00225BE
:100AE0002846D9E7FEF1FFFF70B5044600F0ECF8A8
:100AF00006462546681C002802D0054800682D18C7
:100B000000BF00F0E1F8801BA842FAD370BD0000DE
:100B1000CC00002070B503460022CBE001269640B1
:100B20000C683440002C71D04D68022D02D04D6805
:100B3000122D15D1D508AE001D462035A8595507F0
:100B4000EE0E0F25B5400646AE4330465607F60E6C
:100B50000D69B5402843D508AD001E4620367051BA
:100B6000186856000325B5400646AE4330460D7959
:100B7000AD07AD0F5600B540284318604D68012DF4
:100B800008D04D68022D05D04D68112D02D04D685A
:100B9000122D18D1986856000325B5400646AE437D
:100BA00030465600CD68B540284398605868012506
:100BB00095400646AE43304610264D6835402D0917
:100BC000954028435860D86856000325B54006462E
:100BD000AE43304656008D68B5402843D8600126A4
:100BE00036074D683540B54263D1354D9608B6009D
:100BF000A8599507EE0E0F25B5400646AE43304680
:100C000005252D07AB4202D1002506E051E02D4D10
:100C1000AB4201D1012500E002259607F60EB54052
:100C20002843274D9608B600A851254D2035286841
:100C30000546A5432846012636044D683540B54291
:100C400002D10546254328461D4D20352860686899
:100C50000546A5432846012676044D683540B54231
:100C600002D1054625432846154D20356860144DB0
:100C7000603D28680546A5432846012636054D688F
:100C80003540B54202D10546254328460C4D603D0E
:100C9000286068680546A5432846012676054D6804
:100CA0003540B54202D1054625432846044D603DF6
:100CB0006860521C0D68D540002D00D02EE770BD35
:100CC00060180240000400500148006870470000AE
:100CD000C40000200348006803490968401801491E
:100CE00008607047C4000020CC00002010B500242C
:100CF000032000F009F8002801D0012401E000F0F1
:100D000033F8204610BD0000F8B50446002513480E
:100D1000006800281ED0114801687D20C000FFF740
:100D2000E9F9074639460E480068FFF7E3F9064639
:100D300000F0DCFA00280BD1042C07D20022214657
:100D4000401E00F01FF80748046004E0012502E09F
:100D5000012500E001252846F8BD0000CC00002058
:100D6000C0000020C80000207047000000BFC2067D
:100D7000D20E01219140024A116000BF704700006D
:100D800000E100E070B504460D46164629462046AF
:100D900000F090FB70BD000070B504460D46002CBD
:100DA00001D1012070BD5F480068C007C00FA84294
:100DB00018D25C4800684008400028435949086040
:100DC000FFF782FF064607E0FFF77EFF801B5649CC
:100DD000884201D90320E5E752480068C007C00FE8
:100DE000A842F1D1022120680840022815D104212F
:100DF00020680840042807D14C488068072109036F
:100E00008843401849498860484880680F21090292
:100E10008843A1680843454988602078C007C00F0F
:100E200000283CD06068012808D1404800680121B2
:100E300049040840002816D10120B3E76068002863
:100E400008D13A48006801218902084000280AD1E7
:100E50000120A7E735484030006A022108400028F9
:100E600001D101209EE731488068C008C000616858
:100E700008432E498860FFF727FF064607E0FFF783
:100E800023FF801B2849884201D903208AE727488D
:100E90008068382108406168C9008842EFD1214844
:100EA0000068C007C00FA84218D91E480068400853
:100EB000400028431B490860FFF706FF064607E08D
:100EC000FFF702FF801B1849884201D9032069E718
:100ED00014480068C007C00FA842F1D1042120685F
:100EE0000840042808D11148806807210903884375
:100EF000E16808430D49886000F03AF80B498968B9
:100F00000F2212021140090A8900094A515CC906E0
:100F1000C90EC8400749086007480068FFF7F4FE9B
:100F200040E700000020024088130000001002404B
:100F3000E8190008C0000020C8000020014800682F
:100F400070470000C000002000B5FFF7F7FF06491A
:100F50008968072212031140090B8900034A515C7A
:100F6000C906C90EC84000BD00100240281A00087A
:100F700030B585B0142215496846FFF7D1F81448FA
:100F800080683821084000280BD111484068890248
:100F90000840450B042D00D90025A80069460C58CF
:100FA00011E00B48806838210840082801D1094C1D
:100FB00009E00748806838210840182802D1012438
:100FC000E40300E00024204605B030BD681A0008A4
:100FD0000010024000366E0170B50446002C01D1AD
:100FE000012070BD2078C007C00F002878D0BB4812
:100FF000866838210E40082E09D10068B1030840E8
:101000000028F3D0606800286AD10120E9E7606811
:1010100000282FD0A06800282AD000BFAF48006861
:10102000012109048843AD49086008460068012190
:1010300089048843A949086000BFFFF745FE0546BB
:1010400006E0FFF741FE401BC82801D90320C8E78E
:10105000A24800680121490408400128F1D09F48B6
:1010600000690C218843A16808439C49086101E09C
:101070000120B6E700BF012109046068884205D15C
:101080009648006808439549086021E00521090455
:10109000606888420ED191480068012189040843A4
:1010A0008E490860084600680121090408438B49FD
:1010B00008600DE0894800680121090488438749D8
:1010C0000860084600680121890488438349086054
:1010D00000BF6068002813D0FFF7F6FD054607E063
:1010E00020E0FFF7F1FD401BC82801D9032078E775
:1010F0007A4800680121490408400028F1D011E035
:10110000FFF7E2FD054606E0FFF7DEFD401BC828BD
:1011100001D9032065E771480068012149040840AE
:101120000028F1D102212068084002286AD16B48CA
:101130008068382108400646002E3FD16748006885
:10114000012189020840002804D0E068002801D16C
:10115000012046E761484068000C0004216908430B
:101160005E494860FFF7B0FD054606E0FFF7ACFDBD
:10117000401B022801D9032033E7584800680121A9
:10118000890208400028F1D0002E0FD1FFF7F0FEB1
:10119000524989680F2212021140090A8900504AF7
:1011A000515CC906C90EC8404E4908604E480068E7
:1011B000FFF7AAFD00283FD0012012E7E0680028D1
:1011C00021D046480068FF210131084343490860A7
:1011D000FFF77AFD054606E0FFF776FD401B022883
:1011E00001D90320FDE63D4800680121890208403D
:1011F0000028F1D039484068000C000421690843F8
:101200003649486018E035480068FF2101318843BD
:1012100032490860FFF758FD054606E0FFF754FD28
:10122000401B022801D90320DBE62C48006801217D
:10123000890208400028F1D10821206808400828C8
:1012400049D1264880683821084018280BD1234806
:101250004030006A0221084000283CD06069002824
:1012600039D10120BDE6606900281AD01B48403002
:10127000006A01210843194940310862FFF724FD43
:10128000054606E0FFF720FD401B022801D9032098
:10129000A7E612484030006A022108400028F1D039
:1012A00019E00E484030006A400840000B494031C8
:1012B0000862FFF709FD054606E0FFF705FD401B44
:1012C000022801D903208CE604484030006A02213C
:1012D00008400028F1D1002083E600000010024001
:1012E000E8190008C0000020C800002070B50446BE
:1012F0002546681E0949884201D901200CE0681E74
:10130000074948610321081F00F0D4F80020044970
:10131000886107200861002070BD0000FFFFFF000A
:1013200000E000E010B50446002C01D1012010BD02
:10133000A069002800D000E000BF4520005D002823
:1013400005D1002144200155204600F030F8242129
:10135000452001552068C068012149038843216860
:10136000C860204600F02AF9206A002802D02046F2
:1013700000F008F9206800690121C902884321684A
:101380000861206840690821884321684861206815
:10139000C0680121490308432168C8600020A06497
:1013A000202145200155462001550020BFE7704708
:1013B000FFB583B004460D46174600200190452036
:1013C000005D202871D1002D01D0002F02D1012015
:1013D00007B0F0BD01210903A068884208D1206947
:1013E000002805D1E807C00F002801D00120EFE751
:1013F00000BF4420005D012801D10220E8E701215F
:101400004420015500BF0020A06421214520015542
:10141000FFF75AFC01902786678601210903A0681F
:10142000884205D12069002802D10026029502E0F9
:101430002E46002002901EE0069800900022802197
:101440002046019B00F08CF9002801D00320BFE763
:10145000002E09D102980088C005C00D216848609F
:101460000298801C029003E0307821684860761C66
:10147000608E401E6086608E0028DDD10698009048
:10148000002240212046019B00F06AF9002801D08B
:1014900003209DE720214520015500BF0021442065
:1014A000015500BF002093E7FFE7022090E700BF4F
:1014B000FEE7704710B5002819DA1A4A03071B0F18
:1014C000083B9B089B00D2588307DC0EFF23A340F8
:1014D0009A438B071B0E8407E40EA3401A43114B5B
:1014E0000407240F083CA408A4001A5118E00E4A6F
:1014F00003231B02D21883089B00D2588307DC0EFB
:10150000FF23A3409A438B071B0E8407E40EA340DE
:101510001A43054B032424021B198408A4001A5102
:1015200010BD00001CED00E000E100E070477047D6
:1015300010B5FFF7CFFB10BD0E484068000C00044B
:101540000121490340180C498988C904C90C084382
:101550000849486008464068084908400649803103
:10156000898CC905C909084302494860C803044970
:101570008860704700100240000FFF1FFFFF00FE51
:1015800000ED00E04022016A1140002915D00168F9
:10159000496992019143426A1143026851610122F3
:1015A0001203416A914208D101684969032252033A
:1015B0009143826A1143026851617047FEB5044647
:1015C00020680069012149038843E16808432168D4
:1015D00008612169A0680843616908430290206896
:1015E000C0685E490840029908432168C860E06904
:1015F0000290206840690121C9028843029908438A
:101600002168486120684069032109028843A16973
:101610000843216848610121C902E06988424ED12E
:10162000FFF792FC05466268510019226A43104692
:10163000FEF760FD06466421FEF75CFD0701626867
:10164000510019226A431046FEF754FD06466268AF
:10165000510019226A431046FEF74CFD64210090A8
:10166000FEF748FD64214843301AC0003230019033
:10167000FEF740FDF821084040003F186268510025
:1016800019226A431046FEF735FD0646626851008E
:1016900019226A431046FEF72DFD64210090FEF7E3
:1016A00029FD64214843301AC00032300190FEF712
:1016B00021FD4007400F3818216888604CE0FFF793
:1016C00043FC05466268910019226A431046FEF702
:1016D00011FD06466421FEF70DFD070162689100C9
:1016E00019226A431046FEF705FD0646626891001E
:1016F00019226A431046FEF7FDFC64210090FEF7B4
:10170000F9FC64214843301A000132300190FEF7A1
:10171000F1FCF02108403F186268910019226A43E9
:101720001046FEF7E7FC06466268910019226A43FC
:101730001046FEF7DFFC64210090FEF7DBFC64211D
:101740004843301A000132300190FEF7D3FC000705
:10175000000F381821688860FEBD0000F3E9FFFF24
:10176000FFB581B004460D4617460A9E24E0701C62
:10177000002821D0002E05D0FFF7A6FA0499401AC0
:10178000B04219D92068C068FF21A131884321687F
:10179000C8602068406940084000216848612021F5
:1017A000452001554620015500BF00214420015528
:1017B00000BF032005B0F0BD206800682840A842A3
:1017C00001D1012000E00020B842D0D00020F1E794
:1017D0000FB410B503A9044B044A029800F018F89E
:1017E00010BC08BC04B0184761190008D0000020E4
:1017F00002E008C8121F08C1002AFAD170477047DA
:10180000002001E001C1121F002AFBD17047000037
:10181000FFB58DB00446002506E025280AD0109AB1
:101820000F999047641C6D1C20780028F5D128463C
:1018300011B0F0BD00270121484A009700E007439E
:10184000641C23780846203B98401042F7D120784A
:101850002E2817D1042007436078641C2A280CD155
:101860000E98641C02C800910E900BE000990A22A9
:10187000514330394018641C0090207801463039BB
:101880000929F3D920780028D1D0642808D0692804
:1018900006D075281ED0109A0F9990476D1C5BE0FA
:1018A0000A200E99019001C90E91002802DA4042E7
:1018B0002D2102E0390504D52B216A461172012140
:1018C00003E0F90704D02021F7E70BAE0B910DE000
:1018D0000021FAE70A200E99019001C90E91F7E75D
:1018E0000199FEF707FC3031761E31700028F7D1E0
:1018F00003A8801B20300190780701D5009801E0F3
:10190000012000900199884201DD401A00E000208A
:101910000027009006E002A8109AC05D0F9990473A
:101920006D1C7F1C0B988742F5DB04E0109A302079
:101930000F9990476D1C0099481E00900029F5DC16
:1019400005E03078109A761C0F9990476D1C01992C
:10195000481E01900029F4DC641C65E70928010099
:1019600013B50C467D23DB00012269460248FFF7D0
:101970001FFD00981CBD000020010020FFF7B6F9F4
:10198000FEF7FAFCFEF778FCFEF72EFD1DE00F488F
:10199000FFF772F8002412E00D490C48FEF7FAFF39
:1019A0000A48FEF7E7FEA1000A4A5050A00011467F
:1019B0000A58214608A0FFF70BFF601CC4B2032C95
:1019C000EADB7D20C000FFF78FF8E0E7D4000020BD
:1019D00010270000140100206164635B25755D3AE7
:1019E00025750D0A00000000000000000000000046
:1019F00000000000000000000000000000000000E7
:101A000000000000000000000100000002000000D3
:101A100003000000040000000600000007000000B2
:101A200008000000090000000000000000000000A5
:101A300000000000000000000100000002000000A3
:101A4000030000000400000000093D0000127A00BD
:101A50000024F4004086510100366E0100093D006B
:101A600000093D0000093D0000093D0000127A0018
:101A70000024F4004086510100366E019C1A0008D3
:101A800000000020D4000000F0170008701B0008C0
:101A9000D40000209C040000001800080000000092
:101AA0000000000000000000000000000000000036
:101AB0000000000000000000000000000000000026
:101AC0000000000000000000000000000000000016
:101AD0000000000000000000000000000000000006
:101AE00000000000000000000000000000000000F6
:101AF00000000000000000000000000000000000E6
:101B000000000000000000000000000000000000D5
:101B100000000000000000000000000000000000C5
:101B200000000000000000000000000000000000B5
:101B300000000000000000000000000000000000A5
:101B40000000000000000000000000000000000095
:101B500000000000000000000000000000127A00F9
:101B60000000000004000000010000000000000070
:04000005080000C12E
:00000001FF
