:020000040800F2
:10000000B8050020D9000008B3100008AF100008A0
:1000100000000000000000000000000000000000E0
:100020000000000000000000000000002F11000888
:1000300000000000000000002D1100083111000830
:10004000EB000008EB000008EB000008EB000008E4
:10005000EB000008EB000008EB000008EB000008D4
:1000600000000000EB000008EB00000800000000AA
:100070009D010008EB000008EB00000800000000F4
:10008000EB000008EB00000800000000EB00000897
:1000900000000000EB000008EB000008EB00000887
:1000A00000000000EB00000800000000EB0000086A
:1000B000EB0000080000000000000000000000004D
:1000C0000448854600F03EF80048004769010008F2
:1000D000C046C046B8050020044880470448004791
:1000E000FEE7FEE7FEE7FEE7FEE7FEE73911000860
:1000F000C100000830B50B46014600202022012433
:1001000009E00D46D5409D4205D31D469540491B4B
:100110002546954040191546521E002DF1DC30BD94
:10012000D2B201E00270401C491EFBD2704700228F
:10013000F6E710B513460A4604461946FFF7F0FFE6
:10014000204610BD064C0125064E05E0E36807CCAD
:100150002B430C3C98471034B442F7D3FFF7B4FF5D
:10016000A0160008C016000870B50125ED06002491
:1001700006E0A0002858A100064A5050601CC4B2F6
:10018000302CF6DB012040070349886001F03EFA7D
:10019000002070BD0000002000ED00E010B5024816
:1001A00000F0EFFA10BD0000E000002038B5044672
:1001B0000020009020688068C007C00F01214840DF
:1001C0004840002827D1206880681449084000284A
:1001D00001D1012000E00020002809D1A06B1021EE
:1001E0000843A063E06B01210843E063012038BDB0
:1001F000206880680121084321688860084909480F
:100200000068FFF777FF009002E00098401E009022
:1002100000980028F9D10020E9E7000015000080CF
:1002200040420F00C000002070B50B46002115E0D1
:100230008A0084580D464A1C07E096008659A6425B
:1002400002DA960084591546521C9A42F5DB8A0060
:100250008258AE0082518A008450491C9942E7DBE3
:1002600070BD000008B53148006B01210905084345
:100270002E4908630846006B0121090588432B4974
:10028000086300BF29484030006801210905084380
:1002900026494031086008460068012109050840E8
:1002A000009000BF00BF224822490860084600F0C5
:1002B00055F9002801D000F041F81D481D4908609B
:1002C000C004486000211B488160C16002210161B7
:1002D0000421416101210176002141768176C161CD
:1002E00001218902016200212430017024388162D9
:1002F0000721C16200F0D0FA002801D000F01EF8FA
:10030000012000030C49486000200860094800F003
:1003100057F9002801D000F011F8064800F0CCFB96
:10032000002801D000F00AF808BD000000100240CB
:1003300000240140E00000202001002000BFFEE773
:1003400008B500BF194800680121C90208431749D0
:10035000086008460068C9140840009000BF00BF4C
:1003600013481449086014491248C160C810114963
:10037000486000210F48016181604161816100F0A6
:100380009FFD002801D0FFF7D9FF20200B4908600E
:1003900000204860074800F057FD064800F0ADFD1A
:1003A000002801D0FFF7CAFF08BD0000401002403E
:1003B000002C01402C0100203F1F0000C80000203D
:1003C00000B587B000BF002001903148C06B01210B
:1003D000490408432E49C8630846C06B01214904FB
:1003E0000840019000BF00BF2A482B490860E12067
:1003F00040024860002128488160C160016181613C
:100400000C2141610021C161002023490862084696
:1004100000F088FD00BF1E48406B012108431C49C5
:1004200048630846406BC007C00F019000BF00BF83
:1004300000BF0846406B0121084315494863084640
:10044000406BC007C00F019000BF00BF04200290A6
:1004500002200390012004900320059004200690C0
:1004600002A90520000700F077FB08200290042075
:10047000069002A90520000700F06EFB0122002172
:100480001C2000F0A1FC1C2000F092FC07B000BD75
:1004900000100240004400406C010020F8B5044602
:1004A00000250026002700BF3420005D012801D16F
:1004B0000220F8BD01213420015500BF206880686A
:1004C00008404840484000283CD1A06B09028843BE
:1004D00002210843A0632068C0688707BF0F206817
:1004E000C068800880002168C86020688068012199
:1004F000C90708432168886000F008FC064611E03F
:1005000000F004FC801B02280CD9A06B0221884358
:1005100010210843A06300BF00213420015500BF13
:100520000120C6E720688068C00FC0070028E7D117
:100530002068C06838432168C860A06B02218843E6
:10054000A06304E0A06B20210843A063012500BF45
:1005500000213420015500BF2846AAE730B58BB0F2
:100560000546002414E02846FFF798FF002802D033
:1005700001200BB030BD11488068A10006AA505080
:10058000A00006A908584002A10001AA5050641C0E
:10059000052CE8DB052101A8FFF746FE0398401271
:1005A000064908610846C06848610846406801215C
:1005B000C9030843014948600020DAE740240140AC
:1005C000F8B504460D4600260020009001210907D9
:1005D000E06A884215D0E06A012812D0E06A022859
:1005E0000FD0E06A03280CD0E06A042809D0E06A42
:1005F000052806D0E06A062803D0E06A072800D064
:1006000000BF00BF3420005D012801D10220F8BDE9
:1006100001213420015500BF206880680421084072
:10062000800800287DD14549686888425CD02068F0
:10063000806A2A780121914008432168886201215B
:100640000907E06A884229D0E06A012826D0E06ADA
:10065000022823D0E06A032820D0E06A04281DD0B5
:10066000E06A05281AD0E06A062817D0E06A072851
:1006700014D0A868216849694907490F88420DD0FC
:1006800020684069C008C00021684861206840694E
:10069000297A4907490F08432168486128680B28CF
:1006A00002D028680C2841D12548806829680B2988
:1006B00002D10121C90501E0012189050843204932
:1006C000886028680B2831D11E491F480068FFF751
:1006D00011FD0A214843009002E00098401E00905E
:1006E00000980028F9D121E02068806A2A78012149
:1006F000914088432168886228680B2802D02868C6
:100700000C2813D10E48806829680B2903D10121D8
:10071000C90502E005E00121890588430849886090
:1007200004E0A06B20210843A063012600BF002144
:100730003420015500BF304669E700000110000079
:100740000027014040420F00C000002010B50446C1
:10075000204600F012F8044908800846018803A0EA
:1007600000F07EFE10BD0000C40000204144433A6A
:100770002025640D0A000000704701460868006CDF
:10078000704710B50446206800680421084004281A
:1007900004D120684068084004280AD02068006816
:1007A00008210840082840D12068406808400828EF
:1007B0003BD1A06B10210840002803D1A06B490158
:1007C0000843A0632068C06803218902084000280C
:1007D00025D1607E002822D12068006808210840C9
:1007E00008281CD12068806804210840800800285F
:1007F0000DD1206840680C21884321684860A06BB7
:10080000FF210131884301210843A06307E0A06B69
:1008100020210843A063E06B01210843E0632046E8
:10082000FFF794FF0C202168086020680068802191
:10083000084080280ED1206840680840802809D1EF
:10084000A06B49020843A063204600F0F5F8802021
:1008500021680860206800681021084010281AD11B
:10086000206840680840102815D1A06A012805D0EA
:100870002068C068C007C00F002809D0E06B0221C3
:100880000843E0631020216808602046FFF774FFEA
:1008900010202168086010BD70B5044600260025B0
:1008A000002C01D1012070BDA06B002806D1E063AF
:1008B000002134200155204600F0C0F8A06B102123
:1008C000084000287ED1002EFCD1206880680421D9
:1008D000084080080028F5D1A06B890188430221D7
:1008E0000843A06320688068C007C00F012148400A
:1008F000484000280FD12068C06818218843A168AB
:1009000008432168C8602068006900010009616827
:100910000843216808612068C0684549084021688B
:10092000C860207E8003617E49030843A16A0129D3
:1009300002D00121090300E000210843E1680843D7
:100940002169022901D1042100E00021084324216A
:10095000095D490008430543A07E01280ED1607E51
:10096000002803D101200004054307E0A06B2021EB
:100970000843A063E06B01210843E063FF21C2311B
:10098000E069884203D0216AE06908430543206892
:10099000C06828432168C86001210907E06A8842CD
:1009A00016D0E06A012813D0E06A022810D0E06A6D
:1009B00003280DD0E06A04280AD0E06A052807D091
:1009C000E06A00E02DE0062802D0E06A07280DD199
:1009D00020684069C008C0002168486120684069FB
:1009E000A18D4907490F0843216848612068C06804
:1009F00010490840A84208D10020E063A06B022102
:100A0000884301210843A06310E0A06B02218843C2
:100A100010210843A063E06B01210843E063012635
:100A200004E0A06B10210843A063012630463AE79A
:100A300019C2FEFFE7FF3FC37047000010B586B044
:100A40000446142101A8FFF772FB00BF1948406B50
:100A500001210843174948630846406BC007C00F8F
:100A6000009000BF00BF00BF124840300068012165
:100A7000090508430F494031086008460068012114
:100A800009050840009000BF00BF0120019003202D
:100A900002900020039001A90520000700F05CF8F7
:100AA000002211460C2000F08FF90C2000F080F994
:100AB00006B010BD0010024070B504460025206845
:100AC0008068042108408008002840D100BF3420FD
:100AD000005D012801D1022070BD012134200155A3
:100AE00000BF2046FFF762FB0546002D30D1A06B0A
:100AF00018490840FF2101310843A0630020E0634A
:100B000000BF00213420015500BF1C20216808606F
:100B1000606908280CD12068406804218843216856
:100B2000486020684068182108432168486006E052
:100B3000206840681C2108432168486000BF00BF4E
:100B400020688068042108432168886000E002254D
:100B50002846C1E7FEF1FFFF70B503460022CBE057
:100B6000012696400C683440002C71D04D68022D4F
:100B700002D04D68122D15D1D508AE001D46203586
:100B8000A8595507EE0E0F25B5400646AE43304630
:100B90005607F60E0D69B5402843D508AD001E4630
:100BA00020367051186856000325B5400646AE43FE
:100BB00030460D79AD07AD0F5600B540284318609B
:100BC0004D68012D08D04D68022D05D04D68112DBE
:100BD00002D04D68122D18D1986856000325B540F3
:100BE0000646AE4330465600CD68B540284398606F
:100BF0005868012595400646AE43304610264D689C
:100C000035402D09954028435860D8685600032583
:100C1000B5400646AE43304656008D68B540284381
:100C2000D860012636074D683540B54263D1354D51
:100C30009608B600A8599507EE0E0F25B540064652
:100C4000AE43304605252D07AB4202D1002506E014
:100C500051E02D4DAB4201D1012500E00225960760
:100C6000F60EB5402843274D9608B600A851254DED
:100C7000203528680546A5432846012636044D68D8
:100C80003540B54202D10546254328461D4D203545
:100C9000286068680546A5432846012676044D6805
:100CA0003540B54202D1054625432846154D20352D
:100CB0006860144D603D28680546A5432846012616
:100CC00036054D683540B54202D1054625432846D4
:100CD0000C4D603D286068680546A54328460126FE
:100CE00076054D683540B54202D105462543284674
:100CF000044D603D6860521C0D68D540002D00D049
:100D00002EE770BD601802400004005001480068E2
:100D100070470000D00000200348006803490968BC
:100D20004018014908607047D0000020D80000201A
:100D300010B50024032000F009F8002801D0012498
:100D400001E000F033F8204610BD0000F8B504467D
:100D500000251348006800281ED0114801687D2036
:100D6000C000FFF7C7F9074639460E480068FFF78D
:100D7000C1F9064600F04CF800280BD1042C07D22C
:100D800000222146401E00F01FF80748046004E0DE
:100D9000012502E0012500E001252846F8BD0000FC
:100DA000D8000020C0000020D400002070470000C0
:100DB00000BFC206D20E01219140024A116000BF5D
:100DC0007047000000E100E070B504460D4616468D
:100DD0002946204600F06EF970BD00000148006809
:100DE00070470000C000002000B5FFF7F7FF06497C
:100DF0008968072212031140090B8900034A515CDC
:100E0000C906C90EC84000BD0010024060160008A7
:100E100070B504462546681E0949884201D901205B
:100E20000CE0681E074948610321081F00F042F9E1
:100E300000200449886107200861002070BD00007F
:100E4000FFFFFF0000E000E030B502460B4600BFA8
:100E50003C20805C012801D1022030BD01253C20CE
:100E6000855400BF02253D208554106844681068F1
:100E7000816870252046A84304461868044310681A
:100E800044600D4D1068A84203D00C4D1068A84274
:100E900007D180250846A8430146586801431068D9
:100EA000816001253D20855400BF00253C208554EC
:100EB00000BF0020D1E70000002C014000040040EA
:100EC00010B50446002C01D1012010BD3D20005D6D
:100ED000002805D100213C200155204600F00CF8E7
:100EE00002213D200155211D206800F04BF9012110
:100EF0003D2001550020E8E77047014602233D20D0
:100F00004354086880684207520F062A05D00868D3
:100F10000068012318430B68186001233D204354E7
:100F20000020704710B50446002C01D1012010BDEF
:100F3000A069002800D000E000BF4520005D002827
:100F400005D1002144200155204600F030F824212D
:100F5000452001552068C068012149038843216864
:100F6000C860204600F072F9206A002802D02046AE
:100F700000F050F9206800690121C9028843216806
:100F80000861206840690821884321684861206819
:100F9000C0680121490308432168C8600020A0649B
:100FA000202145200155462001550020BFE770470C
:100FB000FFB583B004460D4617460020019045203A
:100FC000005D202871D1002D01D0002F02D1012019
:100FD00007B0F0BD01210903A068884208D120694B
:100FE000002805D1E807C00F002801D00120EFE755
:100FF00000BF4420005D012801D10220E8E7012163
:101000004420015500BF0020A06421214520015546
:10101000FFF77CFE01902786678601210903A068FF
:10102000884205D12069002802D10026029502E0FD
:101030002E46002002901EE006980090002280219B
:101040002046019B00F0D4F9002801D00320BFE71F
:10105000002E09D102980088C005C00D21684860A3
:101060000298801C029003E0307821684860761C6A
:10107000608E401E6086608E0028DDD1069800904C
:10108000002240212046019B00F0B2F9002801D047
:1010900003209DE720214520015500BF0021442069
:1010A000015500BF002093E7FFE7022090E700BF53
:1010B000FEE7704710B5002819DA1A4A03071B0F1C
:1010C000083B9B089B00D2588307DC0EFF23A340FC
:1010D0009A438B071B0E8407E40EA3401A43114B5F
:1010E0000407240F083CA408A4001A5118E00E4A73
:1010F00003231B02D21883089B00D2588307DC0EFF
:10110000FF23A3409A438B071B0E8407E40EA340E2
:101110001A43054B032424021B198408A4001A5106
:1011200010BD00001CED00E000E100E070477047DA
:1011300010B5FFF7F1FD10BD0E484068000C00042B
:101140000121490340180C498988C904C90C084386
:101150000849486008464068084908400649803107
:10116000898CC905C909084302494860C803044974
:101170008860704700100240000FFF1FFFFF00FE55
:1011800000ED00E010B502681D4B984202D01D4BE7
:10119000984205D170241346A3431A464B681A435C
:1011A000174B98420BD0174B984208D0164B9842D9
:1011B00005D0164B984202D0154B984206D1032415
:1011C00024021346A3431A46CB681A4380241346CD
:1011D000A3434C6923431A4602608B68C3620B68C1
:1011E0008362074B984205D0084B984202D0084BC7
:1011F000984201D10B6903630123436110BD0000D4
:10120000002C014000040040002000400044014048
:10121000004801404022016A1140002915D00168B0
:10122000496992019143426A114302685161012266
:101230001203416A914208D10168496903225203AD
:101240009143826A1143026851617047FEB50446BA
:1012500020680069012149038843E1680843216847
:1012600008612169A0680843616908430290206809
:10127000C0685E490840029908432168C860E06977
:101280000290206840690121C902884302990843FD
:101290002168486120684069032109028843A169E7
:1012A0000843216848610121C902E06988424ED1A2
:1012B000FFF79AFD05466268510019226A431046FD
:1012C000FEF718FF06466421FEF714FF0701626867
:1012D000510019226A431046FEF70CFF0646626869
:1012E000510019226A431046FEF704FF6421009062
:1012F000FEF700FF64214843301AC00032300190ED
:10130000FEF7F8FEF821084040003F1862685100DF
:1013100019226A431046FEF7EDFE06466268510048
:1013200019226A431046FEF7E5FE64210090FEF79D
:10133000E1FE64214843301AC00032300190FEF7CC
:10134000D9FE4007400F3818216888604CE0FFF74D
:101350004BFD05466268910019226A431046FEF76C
:10136000C9FE06466421FEF7C5FE070162689100CA
:1013700019226A431046FEF7BDFE064662689100D8
:1013800019226A431046FEF7B5FE64210090FEF76D
:10139000B1FE64214843301A000132300190FEF75B
:1013A000A9FEF02108403F186268910019226A43A3
:1013B0001046FEF79FFE06466268910019226A43B6
:1013C0001046FEF797FE64210090FEF793FE64211D
:1013D0004843301A000132300190FEF78BFE0007BF
:1013E000000F381821688860FEBD0000F3E9FFFF98
:1013F000FFB581B004460D4617460A9E24E0701CD6
:10140000002821D0002E05D0FFF780FC0499401A57
:10141000B04219D92068C068FF21A13188432168F2
:10142000C860206840694008400021684861202168
:10143000452001554620015500BF0021442001559B
:1014400000BF032005B0F0BD206800682840A84216
:1014500001D1012000E00020B842D0D00020F1E707
:101460000FB410B503A9044B044A029800F018F811
:1014700010BC08BC04B01847F1150008DC000020BF
:1014800002E008C8121F08C1002AFAD1704770474D
:10149000002001E001C1121F002AFBD170470000AB
:1014A000FFB58DB00446002506E025280AD0109A25
:1014B0000F999047641C6D1C20780028F5D12846B0
:1014C00011B0F0BD00270121484A009700E0074312
:1014D000641C23780846203B98401042F7D12078BE
:1014E0002E2817D1042007436078641C2A280CD1C9
:1014F0000E98641C02C800910E900BE000990A221D
:10150000514330394018641C00902078014630392E
:101510000929F3D920780028D1D0642808D0692877
:1015200006D075281ED0109A0F9990476D1C5BE06D
:101530000A200E99019001C90E91002802DA40425A
:101540002D2102E0390504D52B216A4611720121B3
:1015500003E0F90704D02021F7E70BAE0B910DE073
:101560000021FAE70A200E99019001C90E91F7E7D0
:101570000199FEF7BFFD3031761E31700028F7D19A
:1015800003A8801B20300190780701D5009801E066
:10159000012000900199884201DD401A00E00020FE
:1015A0000027009006E002A8109AC05D0F999047AE
:1015B0006D1C7F1C0B988742F5DB04E0109A3020ED
:1015C0000F9990476D1C0099481E00900029F5DC8A
:1015D00005E03078109A761C0F9990476D1C0199A0
:1015E000481E01900029F4DC641C65E7092801000D
:1015F00013B50C467D23DB00012269460248FFF744
:10160000D7FC00981CBD00006C010020FFF790FB88
:10161000FEF7D6FEFEF726FEFEF792FE00BFFEE7BF
:1016200000000000000000000000000000000000BA
:1016300000000000000000000000000000000000AA
:101640000100000002000000030000000400000090
:10165000060000000700000008000000090000006C
:10166000000000000000000000000000000000007A
:101670000100000002000000030000000400000060
:1016800000093D0000127A000024F4004086510158
:1016900000366E0100093D0000093D0000093D00D3
:1016A000C016000800000020E000000080140008C0
:1016B000A0170008E0000020D804000090140008E3
:1016C000000000000000000000000000000000001A
:1016D000000000000000000000000000000000000A
:1016E00000000000000000000000000000000000FA
:1016F00000000000000000000000000000000000EA
:1017000000000000000000000000000000000000D9
:1017100000000000000000000000000000000000C9
:1017200000000000000000000000000000000000B9
:1017300000000000000000000000000000000000A9
:101740000000000000000000000000000000000099
:101750000000000000000000000000000000000089
:101760000000000000000000000000000000000079
:101770000000000000000000000000000000000069
:1017800000127A00000000000000000000000000CD
:101790000000000004000000010000000000000044
:04000005080000C12E
:00000001FF
