:020000040800F2
:10000000F80500209D0100088D1400088B140008DD
:1000100000000000000000000000000000000000E0
:10002000000000000000000000000000D7140008DD
:100030000000000000000000D5140008D9140008DA
:10004000AF010008AF010008AF010008AF010008D0
:10005000AF010008AF010008AF010008AF010008C0
:1000600000000000AF010008AF0100080000000020
:1000700009040008AF010008AF01000800000000FB
:1000800029150008AF01000800000000AF010008BA
:1000900000000000AF010008AF010008AF01000838
:1000A00000000000AF01000800000000AF010008E0
:1000B000AF01000800000000000000000000000088
:1000C00000F002F800F03EF80CA030C80838241800
:1000D0002D18A246671EAB4654465D46AC4201D180
:1000E00000F030F87E460F3E0FCCB6460126334274
:1000F00000D0FB1AA246AB46334318475418000001
:1001000074180000103A02D378C878C1FAD85207A0
:1001100001D330C830C101D504680C6070470000BD
:100120000023002400250026103A01D378C1FBD813
:10013000520700D330C100D50B6070471FB51FBDFB
:1001400010B510BD00F014F91146FFF7F7FF00F0ED
:1001500043F900F02CF903B4FFF7F2FF03BC00F001
:1001600033F9000070B505460C46164602E00FCC88
:100170000FC5103E102EFAD2082E02D303CC03C5B1
:10018000083E042E07D301CC01C5361F03E02178B9
:100190002970641C6D1C761EF9D270BD074880471B
:1001A00007480047FEE7FEE7FEE7FEE7FEE7FEE75B
:1001B00004480549034A054B70470000E114000854
:1001C000C1000008F8010020F8050020F801002017
:1001D00001E004C0091F0429FBD28B0701D502806E
:1001E000801CC90700D00270704700290BD0C307DC
:1001F00002D00270401C491E022904D3830702D595
:100200000280801C891EE3E70022EEE70022DFE780
:10021000002203098B422CD3030A8B4211D3002303
:100220009C464EE003460B433CD4002243088B42DD
:1002300031D303098B421CD3030A8B4201D394466A
:100240003FE0C3098B4201D3CB01C01A524183095D
:100250008B4201D38B01C01A524143098B4201D317
:100260004B01C01A524103098B4201D30B01C01A42
:100270005241C3088B4201D3CB00C01A52418308BC
:100280008B4201D38B00C01A524143088B4201D3E9
:100290004B00C01A5241411A00D201465241104649
:1002A00070475DE0CA0F00D04942031000D34042BE
:1002B000534000229C4603098B422DD3030A8B42F4
:1002C00012D3FC22890112BA030A8B420CD3890192
:1002D00092118B4208D3890192118B4204D3890178
:1002E0003AD0921100E08909C3098B4201D3CB01B6
:1002F000C01A524183098B4201D38B01C01A52416B
:1003000043098B4201D34B01C01A524103098B426E
:1003100001D30B01C01A5241C3088B4201D3CB0059
:10032000C01A524183088B4201D38B00C01A52413C
:10033000D9D243088B4201D34B00C01A5241411A13
:1003400000D20146634652415B10104601D3404241
:10035000002B00D54942704763465B1000D34042F2
:1003600001B50020C046C04602BD704770477047C7
:10037000754600F025F8AE46050069465346C008AC
:10038000C000854618B020B5FFF712FF60BC0027FB
:100390004908B6460026C0C5C0C5C0C5C0C5C0C551
:1003A000C0C5C0C5C0C5403D49008D46704710B5A9
:1003B0000446C046C0462046FFF7CDFE10BD0000F3
:1003C000004870479801002001491820ABBEFEE7A5
:1003D000260002007047000010B50122D20600205E
:1003E000074B810054585C50401CC0B23028F8D3F1
:1003F000012004494007886001F064FA002010BD24
:100400000000002000ED00E010B5024800F029FADD
:1004100010BD0000E800002008B50021009101682F
:100420008A68D243D2071ED08A68104B1A40012333
:10043000002A08D0816B102211438163C16B1943DC
:10044000C163012008BD88681843886009480849CD
:100450000068FFF7DDFE009002E00098401E00906B
:1004600000980028F9D1002008BD00001500008088
:1004700040420F00C0000020F0B5002314E09A00B5
:100480008458944627461E465A1C06E09500455956
:10049000A54201DA2C461646521C8A42F6DBB2000F
:1004A0008750624684505B1C8B42E8DBF0BD000045
:1004B0007FB500250195029503952948026B01211E
:1004C00009050A430263026B8A43026324484030F1
:1004D00002680A430260006808400090224C214EE6
:1004E0002660204600F0FAF8002801D000F03EF81F
:1004F00026606560A560E56002202061012020760D
:100500006576A576C021E161C102216216492031DC
:100510000871A5620007E062134800F00BFA00289A
:1005200001D000F023F8019501200003029001A9F9
:100530000D4800F0FBF8002801D000F017F8002269
:1005400011460C2000F0DCFB0C2000F0CFFB7068A3
:10055000142108437060044800F0A2FA7FBD000037
:100560000010024000240140E8000020FEE70000E7
:1005700010B58AB0182104A8FFF748FE00240094A3
:100580000194029403940B200490FF200130079003
:100590000F480121008AC903C004C00C401808900C
:1005A0000594099404A800F089FC002801D0FFF705
:1005B000DDFF072000900194029403940021684617
:1005C00000F0A2FB002801D0FFF7D0FF0AB010BD59
:1005D000000FFF1F38B51648416B012319434163D3
:1005E000416B19400091426B02210A434263406B08
:1005F0000840009010480F4A026043600022826069
:10060000C160052401462407204600F085FA012236
:100610002021204600F00AFB012100220903204688
:1006200000F004FB00220421204600F0FFFA38BD50
:10063000001002402410000084010020FEB5044692
:100640000020019025462035287D01281ED001205C
:10065000287520688168C943C90734D0A16BFF227F
:100660000132914302263143A163C1688907890F92
:100670000091C16889088900C16020688168D2053D
:100680001143816000F0D8FA07460FE00220FEBD5A
:1006900000F0D2FAC01B022808D9A06B1021B04389
:1006A0000843A063002028750120FEBD20688068F3
:1006B0000028EDDB2068C168009A1143C160A06B7F
:1006C000B043A06305E0A06B20210843A063012094
:1006D0000190002028750198FEBD0000F1B58AB098
:1006E0000024114D05AE6F460A98FFF7A7FF0028BA
:1006F00002D001200BB0F0BDA868A10070504002EC
:100700007850641C052CEFDB05216846FFF7B4FE2A
:10071000029840122861E868686168680121C9038D
:10072000084368600020E5E740240140F8B5002553
:100730000022009204462034227D012A39D0012370
:1007400023750268966876076AD43A4F4E68BE42AF
:1007500050D0966A0F78BB401E4396620123C26A4E
:100760001B079A421FD0012A1DD0022A1BD0032A40
:1007700019D0042A17D0052A15D0062A13D0072A23
:1007800011D002688B6856697607760FB3420AD09B
:100790005369DB08DB005361006842690B7A5B0731
:1007A0005B0F1A43426108680B2804D00C2802D062
:1007B0003BE00220F8BD204B9A680B2807D00120AF
:1007C000800502439A6008680B2803D02DE00120C1
:1007D000C005F6E71A4819490068FFF719FD0A2114
:1007E0004843009002E00098401E009000980028C6
:1007F000F9D11AE0906A0E78B34098439062086885
:100800000B2801D00C2810D10B498A680B2804D082
:100810000120800582438A6007E00120C005F9E7D6
:10082000816B202211438163012500202075284619
:10083000F8BD0000011000000027014040420F00F9
:10084000C000002010B500680449884205D1052089
:1008500001220421000700F0E9F910BD0024014045
:10086000704770B5044620680168490702D54168A1
:10087000490705D40168090730D5416809072DD516
:10088000A16BC90604D4A16B012252021143A163DA
:10089000C1680C250905890F00291AD1617E00293C
:1008A00017D10168090714D5816801224907002979
:1008B00008DB4168A9434160A06B110288431043E3
:1008C000A06306E0A06B20210843A063E06B104307
:1008D000E0632046FFF7B6FF2068056020680168E6
:1008E00009060DD5406800060AD5A06B0121090450
:1008F0000843A063204600F0D1F8216880200860FA
:1009000020680168C90613D54168C90610D5A16AD7
:100910001025012902D0C168C90707D0E16B022266
:100920001143E16305602046FFF79AFF20680560E8
:1009300070BD0000F8B504460025002C05D0A06B62
:1009400026462036002802D007E00120F8BD00200E
:10095000E0633075204600F0A2F8A06B1022C006BC
:1009600000287DDB20688168490779D4A16B1301D9
:10097000994302231943A1638168C943C9070CD075
:10098000C16818239943A3681943C16020680169AD
:10099000636809010909194301612068C1683D4B79
:1009A0001940C160207EE16880030143607EA36A34
:1009B0004703012B02D001231B0300E000231F4348
:1009C00023693943022B09D00023194333795B0093
:1009D0001943A67E0123012E02D00AE00423F4E786
:1009E000002826D0A06B20263043A063E06B18437C
:1009F000E063E0690646FF3EC23E02D0266A30430D
:100A000001432068C6680E43C6600126E06A3607C7
:100A1000B04212D0012810D002280ED003280CD0EA
:100A200004280AD0052808D0062806D0072804D0B4
:100A30000FE0012000040143DBE720684669F60867
:100A4000F600466120684669A78D7F077F0F3E4309
:100A500046612068C068104E3040884209D100E0ED
:100A600011E00020E063A06B80088000401CA063C0
:100A70000DE0A06B022188431043A063E06B184394
:100A8000E063012503E0A06B1043A0630125284625
:100A9000F8BD000019C2FEFFE7FF3FC37047704773
:100AA00070B5044620688068400731D4254620355B
:100AB000287D012820D0012028752046FFF7ACFCB6
:100AC000002818D1A16B134A1140FF2201321143B3
:100AD000A1630021E163297521681C230B60616912
:100AE000042208290AD021684D681D434D60216801
:100AF0008B6813438B6070BD022070BD21684B680A
:100B000093434B6021684B6818252B434B60EEE7FD
:100B1000022070BDFEF1FFFFF0B500227CE0012451
:100B20009440A4462340002B75D04C68022C01D081
:100B3000122C0CD1D408A40027183D6A5407E40EE7
:100B40000F26A640B5430E69A6402E433E620668B6
:100B500055000324AC40A6430F79BF07BF0FAF4039
:100B6000374307604E68012E05D0022E03D0112EA8
:100B700001D0122E0ED18668A643CF68AF4037430E
:100B8000876047686646B7430E79F606F60F9640CB
:100B90003E434660C668A6438C68AC403443C4609C
:100BA0004C68E40037D595081E4CAD002F193D6EFA
:100BB0009407E40E0F26A640B54305263607B0423B
:100BC00001D1002605E0184EB04201D1012600E017
:100BD0000226A6402E43134D3E66124E80363468E0
:100BE0009C434F68FF0300D51C43346074689C43EA
:100BF0004F68BF0300D51C4374602C689C434E684B
:100C0000F60200D51C432C606C689C434E68B6020B
:100C100000D51C436C60521C0B681C46D44000D0AD
:100C20007DE7F0BD0018024000040050002A01D00A
:100C30008161704781627047014880687047000099
:100C4000DC00002002488168426889188160704792
:100C5000DC00002010B50024032000F009F8002873
:100C600001D0012401E000F02BF8204610BD000067
:100C700070B505460024104E7168002919D07D20FA
:100C8000C000FFF7C5FA01460C480068FFF7C0FA3C
:100C900000F02AFA002801D001240BE0042D06D22E
:100CA00000222946501E00F02BF8356002E0012496
:100CB00000E00124204670BDDC000020C0000020C0
:100CC00008B509480168012211430160006810401D
:100CD000009005484038C26B01040A43C263C06BF0
:100CE0000840009008BD000040100240C106C90E37
:100CF00001208840014908607047000000E100E0E1
:100D000010B500F0C5FB10BDF8B504460D46002C2B
:100D10000FD04D480068C007C00FA84218D24A4FF4
:100D200038684008400028433860FFF785FF0646D2
:100D300009E00120F8BDFFF77FFF811B4348814296
:100D400001D90320F8BD3868C007C00FA842F2D10E
:100D500020683F4E81070DD5400704D5B0680721B4
:100D600009030843B060B0680F2109028843A168F5
:100D70000843B0602078C0072DD06068012808D0F3
:100D800000280BD032494031096A89070BD4012071
:100D9000F8BD3168890306D40120F8BD31684905E2
:100DA00001D40120F8BDB168C908C9000143B16090
:100DB000FFF742FF074607E0FFF73EFFC11B23484E
:100DC000814201D90320F8BDB0683821084061682C
:100DD000C9008842F0D11C480168C907C90FA9425F
:100DE00016D901684908490029430160FFF724FF2B
:100DF000074607E0FFF720FFC11B1448814201D9D5
:100E00000320F8BD10480068C007C00FA842F1D108
:100E10002078400706D5B068072109038843E168B8
:100E20000843B06000F01CF8B1683C228909114009
:100E3000084A515CC906C90EC840074908600748FE
:100E40000068FFF715FFF8BD00200240881300007E
:100E500000100240DC180008C0000020DC00002068
:100E600000B585B0142212496846FFF77BF9114896
:100E700081688906490F0CD081688906490F0129CC
:100E800011D080688006400F03280ED0002005B0E6
:100E900000BD40680004400F042800D900208000F5
:100EA00069460858F3E70448F1E70120C003EEE77C
:100EB0003C1900080010024000366E01F8B50446E7
:100EC000002C27D02078844DC00760D0A868382136
:100ED0000840082820D00126B6046068B710002812
:100EE00011D0A06800281FD02868B843286028685F
:100EF000B0432860FFF7A0FE286828690C218843CA
:100F0000A168084328616068B8420FD12868384357
:100F100028601CE00120F8BD2868800337D5606890
:100F2000002834D10120F8BD0120F8BD05210904B5
:100F3000884206D1286830432860286838432860F2
:100F400005E02868B84328602868B04328606068D6
:100F500000280ED0FFF770FE064606E0FFF76CFE95
:100F6000801BC82801D90320F8BD28688003F5D567
:100F70000DE0FFF761FE064606E0FFF75DFE801B11
:100F8000C82801D90320F8BD28688003F5D420784B
:100F9000800765D5AE6838200640002E0BD0FF20B4
:100FA000E168013000294AD0296801432960FFF730
:100FB00043FE064639E02868400502D5E06800286F
:100FC00009D068682169000C000408436860FFF7D5
:100FD00033FE074608E00120F8BDFFF72DFEC01BD9
:100FE000022801D90320F8BD28684005F5D5002E58
:100FF0000CD1FFF735FFA9683C2289091140374A17
:10100000515CC906C90EC8403549086035480068BA
:10101000FFF72EFE002823D00120F8BDFFF70CFEBD
:10102000801B022801D90320F8BD28684005F5D5AA
:1010300068682169000C00040843686010E02968B2
:1010400081432960FFF7F8FD064606E0FFF7F4FD4F
:10105000801B022801D90320F8BD28684005F5D47B
:101060002078000736D5A8681B4D8006400F403514
:1010700003280AD0606900281AD0286A0121084391
:101080002862FFF7D9FD04460EE0286A800721D5C3
:10109000606900281ED10120F8BDFFF7CDFD001BBF
:1010A000022801D90320F8BD286A8007F5D511E090
:1010B000286A400840002862FFF7BEFD044606E0AB
:1010C000FFF7BAFD001B022801D90320F8BD286AEA
:1010D0008007F5D40020F8BD00100240DC1800089D
:1010E000C0000020DC00002010B50949401E8842E5
:1010F00001D9012010BD074C60610321081F00F0D9
:10110000C7F90020A06107202061002010BD000069
:10111000FFFFFF0000E000E070477047F0B50246B7
:101120002032137F012B1BD0012616770223537721
:1011300003685D689C687027BD430F682F435F603C
:101140000068084B984202D0074B984204D1802394
:101150009C43496821438160567700201077F0BD99
:101160000220F0BD002C01400004004070B5044690
:10117000002C05D025462035687F002802D006E0E7
:10118000012070BD00202877204600F00AF80220D8
:101190006877211D206800F0CFF9012068770020D2
:1011A00070BD70470168CB6801221343CB600068B3
:1011B00081684907490F062902D00168114301607F
:1011C00000207047704770B504462068016900250B
:1011D000C9438907002916DBC168C943890712D4AE
:1011E000E91E01610120207720688069800703D013
:1011F0002046FFF7E7FF05E0204600F0C1F8204653
:1012000000F040F9257720680169C943490718D4DF
:10121000C168C943490714D40421C94301610220AC
:101220002077206880698005800F03D02046FFF773
:10123000C9FF05E0204600F0A3F8204600F022F99F
:10124000257720680169C943090717D4C168C943D4
:10125000090713D40821C9430161042020772068BD
:10126000C069800703D02046FFF7ACFF05E02046A9
:1012700000F086F8204600F005F92577206801691E
:10128000C943C90618D4C168C943C90614D410217A
:10129000C9430161082020772068C0698005800F5C
:1012A00003D02046FFF78EFF05E0204600F068F8E7
:1012B000204600F0E7F8257720680169C943C9078F
:1012C00008D1C168C943C90704D1891E01612046FC
:1012D00000F0D9F820680169C943090609D4C1683A
:1012E000C943090605D48021C94301612046FFF79F
:1012F00013FF20680169C943490609D4C168C9437D
:10130000490605D44021C9430161204600F0BCF8DC
:1013100020680169C943890609D4C168C94389069F
:1013200005D42021C94301612046FFF7F6FE70BDB8
:1013300070B504462034237F012B0CD0012525777E
:1013400002236377002A08D0042A0AD0082A0CD086
:101350000C2A11D10DE0022070BD006800F038F9B0
:101360000AE0006800F072F906E0006800F0AEF9EB
:1013700002E0006800F0EAF965770020207770BD90
:1013800010B50068074988420AD1052000220421CF
:101390000007FFF74BFC044902200968C0430861BD
:1013A00010BD0000000400402801002010B50446D4
:1013B0000122206800F0FEF80D482168814205D026
:1013C0000C48814202D00C48814204D1486C012271
:1013D000D20310434864206881684907490F0629F1
:1013E00003D00168012211430160002010BD0000FC
:1013F000002C0140004401400048014010B5044663
:101400002268002906D0042909D008290CD00C290B
:1014100013D10EE0D06802231843D0600DE0D068ED
:1014200004231843D06008E0D06808231843D06034
:1014300003E0D06810231843D0600122206800F038
:10144000B9F80D482168814205D00C48814202D08C
:101450000B48814204D1486C0122D20310434864F6
:10146000206881684907490F062903D001680122D5
:1014700011430160002010BD002C014000440140D8
:1014800000480140704770477047FEE77047000012
:101490008307FF22DB0E9A408907090E9940002836
:1014A0000BDA0007000F0838830808489B0018185B
:1014B000C36993430B43C3617047830804489B008F
:1014C0001818036893430B430360704700ED00E076
:1014D00000E400E07047704710B5FFF7B3FB10BDA4
:1014E0000D4841680D4A090C92880904D204D20CB7
:1014F000114301225203114341604168084A1140DF
:10150000064A8032928CD205D209114341600549C6
:10151000C00388607047000000100240000FFF1FEA
:10152000FFFF00FE00ED00E010B50248FFF74BFEA4
:1015300010BD00002801002070B50268184C194E3B
:10154000A04201D0B04204D170251346AB434A6893
:101550001A43154B154DA04208D0B04206D0144E88
:10156000B04203D0984201D0A84204D103263602EB
:10157000B243CE6832438026B2434E6932430260A2
:101580008A68C2620A688262A04203D0984201D08F
:10159000A84201D1096901630121416170BD0000C8
:1015A000002C01400004004000440140004801407C
:1015B0000020004010B5C906C90E01238B40046A03
:1015C0009C430462036A8A401343036210BD000017
:1015D000F0B5026A520852000262056A43688269E5
:1015E0007024A243920892000C681443022295438F
:1015F0008A682A43124E134FB04204D0B84202D038
:10160000114DA84206D10825AA43CD6815430422EE
:1016100095432A46B04204D0B84202D00A4DA842AF
:1016200008D1FF250135AB436D00AB434D691D4328
:101630008B692B4343608461496841630262F0BD5A
:10164000002C01400044014000480140F0B5026A0E
:1016500010239A430262046A4368826907252D03B6
:10166000AA4303252D02AA430D682D02154320220B
:1016700094438A6812012243114EB04207D1802759
:101680001446BC43CA68120122434024A243B0421C
:1016900005D00C4CA04202D00B4CA0420AD1012430
:1016A000A402A3436400A3434C69A4001C438B69B8
:1016B0009B00234343608561496881630262F0BDFA
:1016C000002C01400044014000480140F0B5026A8E
:1016D000FF2301339A430262046A4368C26970259A
:1016E000AA43920892000D681543012252029443C6
:1016F0008A6812022243124EB04207D1C714144620
:10170000BC43CA68120222430415A243B04205D06A
:101710000C4CA04202D00C4CA0420AD1012424035C
:10172000A3436400A3434C6924011C438B691B0140
:1017300023434360C5614968C1630262F0BD000094
:10174000002C0140004401400048014070B5026A8D
:1017500001231B039A430262046A4268C369072596
:101760002D03AB4303252D02AB430D682D021D4312
:1017700001235B039C438B681E0326430A4B98425C
:1017800005D00A4B984202D0094B984206D1012459
:10179000A4031346A3434A6992011A434260C561F8
:1017A00049680164066270BD002C0140004401409C
:1017B00000480140F8B53F48C16B02263143C16380
:1017C000C16B31400091426B01210A434263406B7F
:1017D000084000903848402202604660002585603D
:1017E000C6600161014605200007FFF795F9324800
:1017F00032495C3801606321C16017214160056195
:101800008560456180278761FFF7B0FC002801D023
:10181000FEF7ACFE284C60201C3C2060A660042033
:101820002061E560A56165615A2060602146084637
:1018300000224038FFF77CFD002801D0FEF796FE1D
:101840001D4800215C38FFF7B1FD60202060A660D4
:1018500004202061E560A56165615420606016493F
:1018600004221C3908464038FFF762FD002801D0E9
:10187000FEF77CFE104804215C38FFF7BFFD1048DE
:1018800050210160476001460B485C38FFF746FC79
:10189000002211461020FFF733FA1020FFF726FA36
:1018A00005485C38FFF77EFC0448C16849084900D8
:1018B000C160F8BD00100240840100200004004017
:1018C000CC000020FFF7C6F9FEF752FEFEF782FEBD
:1018D000FEF7EEFDFFF76EFFFEE7000000000000E0
:1018E00000000000000000000000000000000000F8
:1018F00000000000000000000000000001000000E7
:1019000002000000030000000400000006000000C8
:1019100007000000080000000900000000093D0069
:1019200000127A000024F4004086510100366E0156
:1019300000093D0000093D0000093D0000093D008F
:1019400000127A000024F4004086510100366E0136
:101950007019000800000020E800000004010008E1
:10196000581A0008E80000201005000020010008B7
:101970000000000000000000000000000000000067
:101980000000000000000000000000000000000057
:101990000000000000000000000000000000000047
:1019A0000000000000000000000000000000000037
:1019B0000000000000000000000000000000000027
:1019C0000000000000000000000000000000000017
:1019D0000000000000000000000000000000000007
:1019E00000000000000000000000000000000000F7
:1019F00000000000000000000000000000000000E7
:101A000000000000000000000000000000000000D6
:101A100000000000000000000000000000000000C6
:101A200000000000000000000000000000000000B6
:101A300000127A0001000000000000000000000019
:101A40000000000000000000000000000400000092
:081A500001000000000000008D
:04000005080000C12E
:00000001FF
