:020000040800F2
:1000000000050020D9000008170D0008130D000896
:1000100000000000000000000000000000000000E0
:10002000000000000000000000000000930D000828
:100030000000000000000000910D0008950D000870
:10004000000000000000000000000000EB000008BD
:10005000EB000008EB000008EB000008EB000008D4
:100060000000000000000000000000000000000090
:10007000EB000008E90D0008EB000008000000009C
:1000800000000000EB00000800000000000000007D
:1000900000000000EB00000800000000EB0000087A
:1000A00000000000EB00000800000000EB0000086A
:1000B0000000000000000000000000000000000040
:1000C0000448854600F050F8004800478D010008BC
:1000D000C046C04600050020044880470448004749
:1000E000FEE7FEE7FEE7FEE7FEE7FEE79D0D000800
:1000F000C100000830B50B46014600202022012433
:1001000009E00D46D5409D4205D31D469540491B4B
:100110002546954040191546521E002DF1DC30BD94
:1001200003460B439B0703D009E008C9121F08C010
:10013000042AFAD203E00B780370401C491C521EBB
:10014000F9D27047D2B201E00270401C491EFBD2C6
:1001500070470022F6E710B513460A4604461946D2
:10016000FFF7F0FF204610BD064C0125064E05E0C6
:10017000E36807CC2B430C3C98471034B442F7D3C8
:10018000FFF7A2FF6C0F00088C0F000870B5012567
:10019000ED06002406E0A0002858A100064A5050B1
:1001A000601CC4B2302CF6DB012040070349886094
:1001B00000F064FE002070BD0000002000ED00E0B3
:1001C00000BFFEE700B58BB0182105A8FFF7C1FFFF
:1001D0000020019002900390049002200590C0013D
:1001E00008900F48008AC004C00C0121C9030843CD
:1001F000099005A800F0B4FA002801D0FFF7E0FF4D
:10020000072001900020029003900490002101A893
:1002100000F0A0F9002801D0FFF7D2FF0BB000BD1D
:10022000000FFF1F10B586B0044600BF00BF144882
:10023000406B01210843124948630846406BC007E0
:10024000C00F009000BF00BF00BF60000D49085AFA
:100250000190012002900020039002200490A10050
:10026000094A505801A900F021F86200054B995A3B
:10027000A200054B9858012200F0FAF806B010BD14
:1002800000100240500F0008C800002010B50446BE
:100290006200044B995AA200034B985800F0E0F812
:1002A00010BD0000500F0008C800002070B50346C4
:1002B0000022CBE0012696400C683440002C71D01F
:1002C0004D68022D02D04D68122D15D1D508AE0013
:1002D0001D462035A8595507EE0E0F25B540064698
:1002E000AE4330465607F60E0D69B5402843D50893
:1002F000AD001E4620367051186856000325B540E3
:100300000646AE4330460D79AD07AD0F5600B540F9
:10031000284318604D68012D08D04D68022D05D086
:100320004D68112D02D04D68122D18D198685600D5
:100330000325B5400646AE4330465600CD68B5406D
:10034000284398605868012595400646AE433046DC
:1003500010264D6835402D09954028435860D868CF
:1003600056000325B5400646AE43304656008D681C
:10037000B5402843D860012636074D683540B54260
:1003800063D1354D9608B600A8599507EE0E0F2596
:10039000B5400646AE43304605252D07AB4202D197
:1003A000002506E051E02D4DAB4201D1012500E0D2
:1003B00002259607F60EB5402843274D9608B6004D
:1003C000A851254D203528680546A5432846012615
:1003D00036044D683540B54202D1054625432846CE
:1003E0001D4D2035286068680546A543284601262E
:1003F00076044D683540B54202D10546254328466E
:10040000154D20356860144D603D28680546A543AC
:100410002846012636054D683540B54202D10546CD
:10042000254328460C4D603D286068680546A54375
:100430002846012676054D683540B54202D105466D
:1004400025432846044D603D6860521C0D68D54028
:10045000002D00D02EE770BD60180240000400504F
:1004600042690A40002A01D0816200E08161704740
:10047000002A01D0816100E0816270470148006874
:1004800070470000D0000020034800680349096855
:100490004018014908607047D0000020D8000020B3
:1004A00010B50024032000F009F8002801D0012431
:1004B00001E000F033F8204610BD0000F8B5044616
:1004C00000251348006800281ED0114801687D20CF
:1004D000C000FFF70FFE074639460E480068FFF7D9
:1004E00009FE064600F0A2FA00280BD1042C07D220
:1004F00000222146401E00F023F80748046004E073
:10050000012502E0012500E001252846F8BD000094
:10051000D8000020C0000020D400002010B500202A
:10052000FFF780FE10BD000000BFC206D20E012101
:100530009140024A116000BF7047000000E100E0F6
:1005400070B504460D4616462946204600F0E4FBE9
:1005500070BD000070B504460D46002C01D101208D
:1005600070BD5F480068C007C00FA84218D25C4841
:10057000006840084000284359490860FFF77EFFA3
:10058000064607E0FFF77AFF801B5649884201D9EB
:100590000320E5E752480068C007C00FA842F1D128
:1005A000022120680840022815D104212068084053
:1005B000042807D14C488068072109038843401864
:1005C00049498860484880680F2109028843A1682A
:1005D0000843454988602078C007C00F00283CD0F8
:1005E0006068012808D1404800680121490408409A
:1005F000002816D10120B3E76068002808D13A48E6
:10060000006801218902084000280AD10120A7E7DB
:1006100035484030006A02210840002801D10120FD
:100620009EE731488068C008C000616808432E49D1
:100630008860FFF723FF064607E0FFF71FFF801BD8
:100640002849884201D903208AE727488068382151
:1006500008406168C9008842EFD121480068C0079E
:10066000C00FA84218D91E4800684008400028431F
:100670001B490860FFF702FF064607E0FFF7FEFE92
:10068000801B1849884201D9032069E71448006893
:10069000C007C00FA842F1D10421206808400428F7
:1006A00008D111488068072109038843E16808439D
:1006B0000D49886000F020F80B4989680F2212026A
:1006C0001140090A8900094A515CC906C90EC8408F
:1006D0000749086007480068FFF7F0FE40E70000A0
:1006E000002002408813000000100240D00E0008D5
:1006F000C0000020D400002030B585B01422154978
:100700006846FFF70DFD144880683821084000282E
:100710000BD11148406889020840450B042D00D9CF
:100720000025A80069460C5811E00B488068382164
:100730000840082801D1094C09E0074880683821A1
:100740000840182802D10124E40300E000242046D8
:1007500005B030BD580F00080010024000366E0191
:1007600070B50446002C01D1012070BD2078C0076F
:10077000C00F002877D0A948866838210E40082E7F
:1007800009D10068B103084000286CD060680028D7
:1007900069D10120E9E7606800280DD0A068002831
:1007A00008D09E4800690C218843A16808439B49F2
:1007B000086101E00120D8E700BF01210904606859
:1007C000884205D19548006808439449086021E0B3
:1007D00005210904606888420ED190480068012113
:1007E000890408438D49086008460068012109040E
:1007F00008438A4908600DE088480068012109041F
:1008000088438649086008460068012189048843B6
:100810008249086000BF6068002812D0FFF72EFEF2
:10082000054606E0FFF72AFE401BC82801D9032031
:100830009BE77A4800680121490408400028F1D06C
:1008400011E0FFF71BFE054606E0FFF717FE401B11
:10085000C82801D9032088E77048006801214904AD
:1008600008400028F1D102212068084002286AD1FE
:100870006A488068382108400646002E3FD1674804
:100880000068012189020840002804D0E06800289F
:1008900001D1012069E761484068000C000421692A
:1008A00008435E494860FFF7E9FD054606E0FFF7AB
:1008B000E5FD401B022801D9032056E75748006890
:1008C0000121890208400028F1D0002E0FD1FFF746
:1008D00013FF524989680F2212021140090A890048
:1008E0004F4A515CC906C90EC8404E4908604E487F
:1008F0000068FFF7E3FD00283FD0012035E7E068FE
:10090000002821D045480068FF21013108434349B0
:100910000860FFF7B3FD054606E0FFF7AFFD401B9B
:10092000022801D9032020E73C4800680121890200
:1009300008400028F1D039484068000C00042169C3
:1009400008433649486018E034480068FF21013107
:10095000884332490860FFF791FD054606E0FFF73E
:100960008DFD401B022801D90320FEE62B480068BC
:100970000121890208400028F1D10821206808409F
:10098000082849D1254880683821084018280BD10B
:1009900022484030006A0221084000283CD06069AB
:1009A000002839D10120E0E6606900281AD01B48F0
:1009B0004030006A01210843184940310862FFF7BE
:1009C0005DFD054606E0FFF759FD401B022801D9F1
:1009D0000320CAE611484030006A0221084000287E
:1009E000F1D019E00D484030006A400840000B4942
:1009F00040310862FFF742FD054606E0FFF73EFD85
:100A0000401B022801D90320AFE604484030006AA9
:100A1000022108400028F1D10020A6E60010024083
:100A2000D00E0008C0000020D400002070B504469D
:100A30002546681E0949884201D901200CE0681E3C
:100A4000074948610321081F00F066F900200449A6
:100A5000886107200861002070BD0000FFFFFF00D3
:100A600000E000E07047704710B50446002C01D14B
:100A7000012010BDA07F002803D16077204600F040
:100A80000BF80220A077211D206800F0B5F90120A5
:100A9000A0770020EDE7000038B5044600BF0B4802
:100AA00000680121C9020843084908600846006837
:100AB000C9140840009000BF00BF002211460D205D
:100AC000FFF73EFD0D20FFF72FFD38BD401002401F
:100AD00001460868C068012318430B68D86008689D
:100AE00080684207520F062A05D008680068012373
:100AF00018430B68186000207047704710B5044613
:100B00002068006902210840400800281CD02068A5
:100B1000C06808404008002816D0481F21680861B6
:100B200001202077206880698007800F002803D08B
:100B30002046FFF7E2FF05E0204600F0C3F820461C
:100B400000F0C1F8002020772068006904210840E7
:100B5000800800281DD02068C06808408008002850
:100B600017D0C84321680861022020772068806977
:100B7000032109020840002803D02046FFF7BDFFEB
:100B800005E0204600F09EF8204600F09CF800208A
:100B900020772068006908210840C00800281CD080
:100BA0002068C0680840C008002816D0C8432168E3
:100BB0000861042020772068C0698007800F002822
:100BC00003D02046FFF799FF05E0204600F07AF8B1
:100BD000204600F078F80020207720680069102176
:100BE0000840000900281DD02068C068084000099E
:100BF000002817D0C84321680861082020772068A2
:100C0000C069032109020840002803D02046FFF7ED
:100C100074FF05E0204600F055F8204600F053F838
:100C20000020207720680069C007C00F01214840DC
:100C3000484000280CD02068C06808404840484020
:100C4000002805D0C81E21680861204600F03CF845
:100C50002068006980210840C00900280BD0206866
:100C6000C0680840C009002805D0C8432168086151
:100C70002046FFF7F7FE2068006940210840800900
:100C800000280BD02068C06808408009002805D0E3
:100C9000C84321680861204600F03AF820680069DE
:100CA00020210840400900280BD02068C068084077
:100CB0004009002805D0C843216808612046FFF795
:100CC000D2FE10BD7047704710B504460C4800684E
:100CD000401C0B4908600020FFF7D8FA094920683A
:100CE00088420CD106480068032808D100BF064896
:100CF00006490968C86201460448C16000BF10BDCA
:100D0000C4000020002C0140FF180000DC0000207F
:100D1000704700BFFEE7704710B5002819DA1A4A7D
:100D200003071B0F083B9B089B00D2588307DC0E70
:100D3000FF23A3409A438B071B0E8407E40EA340B6
:100D40001A43114B0407240F083CA408A4001A51AD
:100D500018E00E4A03231B02D21883089B00D258C6
:100D60008307DC0EFF23A3409A438B071B0E8407E7
:100D7000E40EA3401A43054B032424021B198408E4
:100D8000A4001A5110BD00001CED00E000E100E0DD
:100D90007047704710B5FFF777FB10BD0E484068ED
:100DA000000C00040121490340180C498988C9043A
:100DB000C90C08430849486008464068084908408B
:100DC00006498031898CC905C90908430249486030
:100DD000C80304498860704700100240000FFF1FDD
:100DE000FFFF00FE00ED00E010B50248FFF786FEB1
:100DF00010BD0000DC00002010B50268154B9842C1
:100E000005D170241346A3431A464B681A43114B6D
:100E1000984202D0104B984206D103242402134674
:100E2000A3431A46CB681A4380241346A3434C6954
:100E300023431A4602608B68C3620B688362054BCA
:100E4000984202D0044B984201D10B6903630123FD
:100E5000436110BD002C01400044014002E008C87D
:100E6000121F08C1002AFAD170477047002001E024
:100E700001C1121F002AFBD170470000FFF710FBD1
:100E8000FFF7A0F90E480F4908600F490D48C160EF
:100E90000E480C49486000210A48016181604161A7
:100EA0008161FFF7E1FD002801D0FFF789F90548CE
:100EB000FFF70EFE002801D0FFF782F900BFFEE722
:100EC000002C0140DC0000203F060000E70300008A
:100ED0000000000000000000000000000000000012
:100EE0000000000000000000000000000000000002
:100EF00001000000020000000300000004000000E8
:100F000006000000070000000800000009000000C3
:100F100000000000000000000000000000000000D1
:100F200001000000020000000300000004000000B7
:100F300000093D0000127A000024F40040865101AF
:100F400000366E0100093D0000093D0000093D002A
:100F5000200004000600000000093D0000127A0095
:100F60000024F4004086510100366E018C0F000809
:100F700000000020DC0000005C0E00086810000883
:100F8000DC000020240400006C0E000800000000BB
:100F90000000000000000000000000000000000051
:100FA0000000000000000000000000000000000041
:100FB0000000000000000000000000000000000031
:100FC0000000000000000000000000000000000021
:100FD0000000000000000000000000000000000011
:100FE0000000000000000000000000000000000001
:100FF00000000000000000000000000000000000F1
:1010000000000000000000000000000000000000E0
:1010100000000000000000000000000000000000D0
:1010200000000000000000000000000000000000C0
:1010300000000000000000000000000000000000B0
:1010400000000000000000000000000000127A0014
:1010500000000000000000500004005000000000EC
:08106000040000000100000083
:04000005080000C12E
:00000001FF
