:020000040800F2
:1000000068060020D9000008791500087715000857
:1000100000000000000000000000000000000000E0
:10002000000000000000000000000000C3150008F0
:100030000000000000000000C1150008C515000800
:10004000EB000008EB000008EB000008EB000008E4
:10005000EB000008EB000008EB000008EB000008D4
:10006000000000006D040008EB0000080000000024
:10007000BD010008EB000008EB00000800000000D4
:100080007D160008EB00000800000000EB000008EF
:1000900000000000EB000008EB000008EB00000887
:1000A00000000000EB00000800000000EB0000086A
:1000B000EB0000080000000000000000000000004D
:1000C0000448854600F050F8004800478D010008BC
:1000D000C046C046680600200448804704480047E0
:1000E000FEE7FEE7FEE7FEE7FEE7FEE7CD150008C8
:1000F000C100000830B50B46014600202022012433
:1001000009E00D46D5409D4205D31D469540491B4B
:100110002546954040191546521E002DF1DC30BD94
:1001200003460B439B0703D009E008C9121F08C010
:10013000042AFAD203E00B780370401C491C521EBB
:10014000F9D27047D2B201E00270401C491EFBD2C6
:1001500070470022F6E710B513460A4604461946D2
:10016000FFF7F0FF204610BD064C0125064E05E0C6
:10017000E36807CC2B430C3C98471034B442F7D3C8
:10018000FFF7A2FF281B0008481B000810B501223A
:10019000D2060020074B810054585C50401CC0B26E
:1001A0003028F8D3012004494007886001F074FC2E
:1001B000002010BD0000002000ED00E010B5024856
:1001C00000F029FB10BD0000E800002010B501463A
:1001D000486A826B50231A420AD1816B0122520273
:1001E000114381630168CA681205920F05D020E0AF
:1001F000006B026B0846904710BD427E002A18D162
:100200000A68120715D58A6801235207002A09DBFC
:100210004A680C24A2434A60816B1A029143194335
:10022000816306E0816B202211438163C16B194316
:10023000C16300F0EDFA10BD10B5406A816B402239
:1002400011438163C16B04221143C16300F0E2FAE0
:1002500010BD10B5406A00F0DCFA10BD08B50021F1
:10026000009101688A68D243D2071ED08A68104B79
:100270001A400123002A08D0816B102211438163A8
:10028000C16B1943C163012008BD886818438860A9
:10029000094808490068FFF72DFF009002E0009828
:1002A000401E009000980028F9D1002008BD0000F1
:1002B0001500008040420F00C0000020F0B5002370
:1002C00014E09A008458944627461E465A1C06E0BD
:1002D00095004559A54201DA2C461646521C8A4221
:1002E000F6DBB2008750624684505B1C8B42E8DB31
:1002F000F0BD0000F0B585B0002601960296039689
:100300003B4F396B0120000501433963396B814351
:100310003963374940310A6802430A60096801407D
:100320000091354C334D2560204600F0BDF9002882
:1003300001D000F067F825606660A660E6600220E4
:100340002061012020766676A676E6618102216230
:10035000294920310871A6620007E062264800F0B2
:10036000C3FA002801D000F04DF8019601252D03B5
:10037000029501A9204800F0BFF9002801D000F043
:1003800041F8002000F012FFB86B01210843B86368
:10039000B86B084000901A4F184838607E60BE6005
:1003A0008020F86040003861800078612020B861CA
:1003B000FD61384600F09CFB27637C62002201212E
:1003C000092000F0FFFC092000F0F2FC3868016809
:1003D00002221143016039461022D039064800F04C
:1003E00039FB002801D000F00DF805B0F0BD000089
:1003F0000010024000240140E800002008000240F4
:10040000F8010020FEE7000010B58AB0182104A80A
:10041000FFF79FFE002400940194029403940B20A4
:100420000490FF20013007900F480121008AC90382
:10043000C004C00C401808900594099404A800F06A
:100440009FFD002801D0FFF7DDFF072000900194F9
:10045000029403940021684600F0B8FC002801D003
:10046000FFF7D0FF0AB010BD000FFF1FF8B5354FE2
:10047000386880075DD53448016849084900016043
:1004800000254562314E306840084000306075629A
:1004900020212F4800F024FC2E4C00281AD00120E7
:1004A000E0802D48C088608180B20023EC221421B6
:1004B00001F0D0FA00B2608101F0B0FA00B26081C0
:1004C00041214901884210DB2089092804D2401CBF
:1004D00020810AE0E580E4E7E088002810D00122CE
:1004E00005201103000700F002FC0A20205E1B49D2
:1004F000884217DA208900280AD0401E208111E0A6
:100500000121052000220903000700F0F0FBECE7C1
:10051000E08800280ED001210520002209030007F1
:1005200000F0E5FB3068012108433060756202206D
:100530007860F8BD012205201103000700F0D7FB09
:10054000F0E7000000000240002C014000040040E1
:1005500000040050C4000020280100201B080000F7
:1005600030B5056C0124AC40C56B6C6004686360F9
:100570004368102B04D0036899600068C26030BDE6
:1005800003689A600068C16030BD0000F8B51A4881
:10059000416B012529434163416B29400091416B27
:1005A000022631434163406B30400090144C1348A5
:1005B00020606560A560E66005273F072146384654
:1005C00000F004FB2020206000206060A560E66051
:1005D00021460C4800F0FAFA01222021384600F0AA
:1005E00086FB00222903384600F081FB002204210B
:1005F000384600F07CFBF8BD0010024024100000DB
:10060000E401002000040050FEB5044600200190E3
:1006100025462035287D01281ED001202875206818
:100620008168C943C90734D0A16BFF2201329143CD
:1006300002263143A163C1688907890F0091C1680F
:1006400089088900C16020688168D20511438160F2
:1006500000F054FB07460FE00220FEBD00F04EFB09
:10066000C01B022808D9A06B1021B0430843A06327
:10067000002028750120FEBD206880680028EDDB81
:100680002068C168009A1143C160A06BB043A063A9
:1006900005E0A06B20210843A06301200190002009
:1006A00028750198FEBD0000F1B58AB00024114DF7
:1006B00005AE6F460A98FFF7A7FF002802D0012079
:1006C0000BB0F0BDA868A100705040027850641CC7
:1006D000052CEFDB05216846FFF7F0FD029840127C
:1006E0002861E868686168680121C9030843686097
:1006F0000020E5E740240140F8B5002500220092E3
:1007000004462034227D012A39D001232375026852
:10071000966876076AD43A4F4E68BE4250D0966AC1
:100720000F78BB401E4396620123C26A1B079A42A0
:100730001FD0012A1DD0022A1BD0032A19D0042A57
:1007400017D0052A15D0062A13D0072A11D002681F
:100750008B6856697607760FB3420AD05369DB0877
:10076000DB005361006842690B7A5B075B0F1A4339
:10077000426108680B2804D00C2802D03BE002201C
:10078000F8BD204B9A680B2807D001208005024352
:100790009A6008680B2803D02DE00120C005F6E719
:1007A0001A4819490068FFF7A5FC0A214843009040
:1007B00002E00098401E009000980028F9D11AE04D
:1007C000906A0E78B3409843906208680B2801D075
:1007D0000C2810D10B498A680B2804D00120800511
:1007E00082438A6007E00120C005F9E7816B20227F
:1007F000114381630125002020752846F8BD0000C3
:10080000011000000027014040420F00C0000020FE
:1008100070477047704770B5044620680168490703
:1008200002D54168490705D40168090730D54168F8
:1008300009072DD5A16BC90604D4A16B0122520270
:100840001143A163C1680C250905890F00291AD13C
:10085000617E002917D10168090714D5816801223A
:100860004907002908DB4168A9434160A06B1102D8
:1008700088431043A06306E0A06B20210843A063D7
:10088000E06B1043E0632046FFF7C2FF206805607D
:100890002068016809060DD5406800060AD5A06BDE
:1008A000012109040843A063204600F0D1F8216823
:1008B0008020086020680168C90613D54168C90610
:1008C00010D5A16A1025012902D0C168C90707D037
:1008D000E16B02221143E16305602046FFF79AFFB6
:1008E0002068056070BD0000F8B504460025002CA6
:1008F00005D0A06B26462036002802D007E0012054
:10090000F8BD0020E0633075204600F0A2F8A06B2F
:100910001022C00600287DDB20688168490779D451
:10092000A16B1301994302231943A1638168C94351
:10093000C9070CD0C16818239943A3681943C16043
:100940002068016963680901090919430161206888
:10095000C1683D4B1940C160207EE16880030143BE
:10096000607EA36A4703012B02D001231B0300E032
:1009700000231F4323693943022B09D00023194365
:1009800033795B001943A67E0123012E02D00AE0D1
:100990000423F4E7002826D0A06B20263043A06370
:1009A000E06B1843E063E0690646FF3EC23E02D0BA
:1009B000266A304301432068C6680E43C66001269C
:1009C000E06A3607B04212D0012810D002280ED0BB
:1009D00003280CD004280AD0052808D0062806D001
:1009E000072804D00FE0012000040143DBE7206862
:1009F0004669F608F600466120684669A78D7F07BC
:100A00007F0F3E4346612068C068104E30408842E8
:100A100009D100E011E00020E063A06B80088000B5
:100A2000401CA0630DE0A06B022188431043A0632B
:100A3000E06B1843E063012503E0A06B1043A06363
:100A400001252846F8BD000019C2FEFFE7FF3FC39D
:100A500070477047F7B504462068806840073BD46C
:100A600026462036307D012808D0012737752046DC
:100A7000FFF7F4FB0546280002D02EE00220FEBD61
:100A8000A06B17490840FF2101310843A0630020F3
:100A9000E0633075216B13488862216B1248C8628D
:100AA000216B1248086321681C2008602068416897
:100AB0001022114341602068C1683943C160216838
:100AC000206B4031029B019A00F046F82068816853
:100AD00004221143816000E002252846FEBD00008B
:100AE000FEF1FFFFCD0100085302000839020008A3
:100AF00070B50446002C26D0144825681421281807
:100B0000FFF7F8FA800020641148E06302212046D4
:100B1000203041702A680F490A40A368616826693D
:100B20001943E3683343194363691943A3691943BC
:100B3000E3691943114329600021A1630122427036
:100B40000170002070BD012070BD0000F8FFFDBFE6
:100B5000000002400FC0FFFFF8B504468C46002598
:100B6000204620300178012909D0012606704778F7
:100B70000021012F05D0017002252846F8BD022072
:100B8000F8BD02274770A163206801684908490041
:100B9000016061462046FFF7E3FCE06A002805D0CB
:100BA000206801680E221143016009E02068016895
:100BB000042291430160206801680A221143016008
:100BC0002068016831430160D7E70000F0B50022DA
:100BD0007CE001249440A4462340002B75D04C684F
:100BE000022C01D0122C0CD1D408A40027183D6A85
:100BF0005407E40E0F26A640B5430E69A6402E43C7
:100C00003E62066855000324AC40A6430F79BF0737
:100C1000BF0FAF40374307604E68012E05D0022E4C
:100C200003D0112E01D0122E0ED18668A643CF68B4
:100C3000AF403743876047686646B7430E79F6068C
:100C4000F60F96403E434660C668A6438C68AC40AB
:100C50003443C4604C68E40037D595081E4CAD00A1
:100C60002F193D6E9407E40E0F26A640B5430526C6
:100C70003607B04201D1002605E0184EB04201D13E
:100C8000012600E00226A6402E43134D3E66124E7A
:100C9000803634689C434F68FF0300D51C433460A2
:100CA00074689C434F68BF0300D51C4374602C6874
:100CB0009C434E68F60200D51C432C606C689C4334
:100CC0004E68B60200D51C436C60521C0B681C4673
:100CD000D44000D07DE7F0BD001802400004005071
:100CE0000069084201D00120704700207047002AA7
:100CF00001D08161704781627047000001488068BF
:100D000070470000DC0000200248816842688918B2
:100D100081607047DC00002010B50024032000F043
:100D200009F8002801D0012401E000F02BF820464A
:100D300010BD000070B505460024104E71680029F2
:100D400019D07D20C000FFF7D5F901460C48006896
:100D5000FFF7D0F900F032FA002801D001240BE0AF
:100D6000042D06D200222946501E00F02BF83560D3
:100D700002E0012400E00124204670BDDC000020D8
:100D8000C000002008B50948016801221143016034
:100D900000681040009005484038C26B01040A43C7
:100DA000C263C06B0840009008BD000040100240C4
:100DB000C106C90E01208840014908607047000043
:100DC00000E100E010B500F0D9FB10BDF8B5044615
:100DD0000D46002C0FD04D480068C007C00FA84238
:100DE00018D24A4F38684008400028433860FFF75F
:100DF00085FF064609E00120F8BDFFF77FFF811B54
:100E00004348814201D90320F8BD3868C007C00FAC
:100E1000A842F2D120683F4E81070DD5400704D586
:100E2000B068072109030843B060B0680F210902C8
:100E30008843A1680843B0602078C0072DD060685F
:100E4000012808D000280BD032494031096A8907AF
:100E50000BD40120F8BD3168890306D40120F8BD08
:100E60003168490501D40120F8BDB168C908C9003D
:100E70000143B160FFF742FF074607E0FFF73EFF7F
:100E8000C11B2348814201D90320F8BDB068382135
:100E900008406168C9008842F0D11C480168C90750
:100EA000C90FA94216D901684908490029430160C0
:100EB000FFF724FF074607E0FFF720FFC11B144898
:100EC000814201D90320F8BD10480068C007C00F57
:100ED000A842F1D12078400706D5B0680721090360
:100EE0008843E1680843B06000F01CF8B1683C2218
:100EF00089091140084A515CC906C90EC840074912
:100F0000086007480068FFF715FFF8BD00200240A1
:100F10008813000000100240B41A0008C00000202E
:100F2000DC00002000B585B0142212496846FFF7A6
:100F3000F7F8114881688906490F0CD08168890645
:100F4000490F012911D080688006400F03280ED078
:100F5000002005B000BD40680004400F042800D9FF
:100F60000020800069460858F3E70448F1E70120B3
:100F7000C003EEE7141B00080010024000366E01AB
:100F8000F8B50446002C27D02078844DC00760D0E7
:100F9000A86838210840082820D00126B6046068D7
:100FA000B710002811D0A06800281FD02868B843C7
:100FB00028602868B0432860FFF7A0FE28682869E9
:100FC0000C218843A168084328616068B8420FD1AA
:100FD0002868384328601CE00120F8BD2868800399
:100FE00037D56068002834D10120F8BD0120F8BD54
:100FF00005210904884206D1286830432860286802
:101000003843286005E02868B84328602868B04362
:101010002860606800280ED0FFF770FE064606E0E4
:10102000FFF76CFE801BC82801D90320F8BD286893
:101030008003F5D50DE0FFF761FE064606E0FFF7F9
:101040005DFE801BC82801D90320F8BD28688003F5
:10105000F5D42078800765D5AE6838200640002E8C
:101060000BD0FF20E168013000294AD029680143F4
:101070002960FFF743FE064639E02868400502D59F
:10108000E068002809D068682169000C0004084362
:101090006860FFF733FE074608E00120F8BDFFF760
:1010A0002DFEC01B022801D90320F8BD2868400589
:1010B000F5D5002E0CD1FFF735FFA9683C22890930
:1010C0001140374A515CC906C90EC840354908600D
:1010D00035480068FFF72EFE002823D00120F8BD18
:1010E000FFF70CFE801B022801D90320F8BD2868F9
:1010F0004005F5D568682169000C00040843686064
:1011000010E0296881432960FFF7F8FD064606E0F4
:10111000FFF7F4FD801B022801D90320F8BD2868E1
:101120004005F5D42078000736D5A8681B4D800609
:10113000400F403503280AD0606900281AD0286A79
:10114000012108432862FFF7D9FD04460EE0286A12
:10115000800721D5606900281ED10120F8BDFFF766
:10116000CDFD001B022801D90320F8BD286A8007A5
:10117000F5D511E0286A400840002862FFF7BEFD5F
:10118000044606E0FFF7BAFD001B022801D9032040
:10119000F8BD286A8007F5D40020F8BD0010024091
:1011A000B41A0008C0000020DC0000200249CA690F
:1011B0000243CA61704700000000014010B50949B0
:1011C000401E884201D9012010BD074C60610321F7
:1011D000081F00F0D3F90020A06107202061002043
:1011E00010BD0000FFFFFF0000E000E07047704707
:1011F000F0B502462032137F012B1BD00126167753
:101200000223537703685D689C687027BD430F68AD
:101210002F435F600068084B984202D0074B98420A
:1012200004D180239C434968214381605677002084
:101230001077F0BD0220F0BD002C014000040040FA
:1012400070B50446002C05D025462035687F00285F
:1012500002D006E0012070BD00202877204600F073
:101260000AF802206877211D206800F00FFA01209B
:101270006877002070BD70470222014620314A770E
:10128000006882685207520F0123062A02D00268C2
:101290001A4302604B77002070470168CB68012237
:1012A0001343CB60006881684907490F062902D0C3
:1012B00001681143016000207047704770B5044613
:1012C000206801690025C9438907002916DBC16828
:1012D000C943890712D4E91E0161012020772068E3
:1012E0008069800703D02046FFF7E7FF05E020462E
:1012F00000F0C2F8204600F03BF92577206801692C
:10130000C943490718D4C168C943490714D4042103
:10131000C943016102202077206880698005800F21
:1013200003D02046FFF7C9FF05E0204600F0A4F8EF
:10133000204600F01DF9257720680169C943090797
:1013400017D4C168C943090713D40821C9430161EF
:10135000042020772068C069800703D02046FFF76B
:10136000ACFF05E0204600F087F8204600F000F9C9
:10137000257720680169C943C90618D4C168C943E3
:10138000C90614D41021C9430161082020772068C0
:10139000C0698005800F03D02046FFF78EFF05E06F
:1013A000204600F069F8204600F0E2F82577206832
:1013B0000169C943C90708D1C168C943C90704D134
:1013C000891E0161204600F0D4F820680169C943F4
:1013D000090609D4C168C943090605D48021C94357
:1013E00001612046FFF702FF20680169C9434906F1
:1013F00009D4C168C943490605D44021C9430161E4
:10140000204600F0B7F820680169C943890609D46D
:10141000C168C943890605D42021C943016120461A
:10142000FFF7E5FE70BD70B504462034237F012B25
:101430000CD00125257702236377002A08D0042ADF
:101440000AD0082A0CD00C2A11D10DE0022070BD60
:10145000006800F067F90AE0006800F0A1F906E012
:10146000006800F0DDF902E0006800F019FA657725
:101470000020207770BD000000680549884206D131
:101480000448002141620168012211430160704754
:1014900000040040002C014010B5044601222068E1
:1014A00000F032F90D482168814205D00C48814294
:1014B00002D00C48814204D1486C0122D20310436F
:1014C0004864206881684907490F062903D00168EC
:1014D000012211430160002010BD0000002C0140DA
:1014E000004401400048014010B50446226800292C
:1014F00006D0042909D008290CD00C2913D10EE0FC
:10150000D06802231843D0600DE0D068042318434C
:10151000D06008E0D06808231843D06003E0D068AA
:1015200010231843D0600122206800F0EDF80D4828
:101530002168814205D00C48814202D00B4881428B
:1015400004D1486C0122D2031043486420688168AA
:101550004907490F062903D00168012211430160A0
:10156000002010BD002C0140004401400048014013
:10157000704770477047FEE7704700008307FF22FF
:10158000DB0E9A408907090E994000280BDA000704
:10159000000F0838830808489B001818C369934354
:1015A0000B43C3617047830804489B001818036805
:1015B00093430B430360704700ED00E000E400E05C
:1015C0007047704710B5FFF79FFB10BD0D4841688D
:1015D0000D4A090C92880904D204D20C114301224D
:1015E0005203114341604168084A1140064A803263
:1015F000928CD205D209114341600549C00388602D
:101600007047000000100240000FFF1FFFFF00FEA8
:1016100000ED00E038B515480268C1140A430260C5
:101620000068084000901348114901600221C16020
:101630000024446004614461846080218161FFF77B
:10164000FFFD002801D0FEF7DDFE0B4820210160E0
:10165000446001460748FFF7CBFD0648FFF70CFE44
:10166000002801D0FEF7CEFE38BD00004010024039
:10167000002C0140A4010020D400002010B5024835
:10168000FFF71CFE10BD00004801002070B5026885
:10169000184C194EA04201D0B04204D17025134617
:1016A000AB434A681A43154B154DA04208D0B042CF
:1016B00006D0144EB04203D0984201D0A84204D1C3
:1016C00003263602B243CE6832438026B2434E69C7
:1016D000324302608A68C2620A688262A04203D012
:1016E000984201D0A84201D10969016301214161F9
:1016F00070BD0000002C0140000400400044014087
:10170000004801400020004010B5C906C90E012361
:101710008B40046A9C430462036A8A401343036259
:1017200010BD0000F0B5026A520852000262056A5C
:10173000436882697024A243920892000C681443A3
:10174000022295438A682A43124E134FB04204D0B6
:10175000B84202D0114DA84206D10825AA43CD684F
:101760001543042295432A46B04204D0B84202D021
:101770000A4DA84208D1FF250135AB436D00AB43AC
:101780004D691D438B692B43436084614968416304
:101790000262F0BD002C01400044014000480140BD
:1017A000F0B5026A10239A430262046A43688269B0
:1017B00007252D03AA4303252D02AA430D682D02F8
:1017C0001543202294438A6812012243114EB042ED
:1017D00007D180271446BC43CA6812012243402423
:1017E000A243B04205D00C4CA04202D00B4CA04208
:1017F0000AD10124A402A3436400A3434C69A400BA
:101800001C438B699B002343436085614968816366
:101810000262F0BD002C014000440140004801403C
:10182000F0B5026AFF2301339A430262046A4368F7
:10183000C2697025AA43920892000D6815430122DF
:10184000520294438A6812022243124EB04207D1D8
:10185000C7141446BC43CA68120222430415A243AB
:10186000B04205D00C4CA04202D00C4CA0420AD190
:1018700001242403A3436400A3434C6924011C43B3
:101880008B691B0123434360C5614968C1630262E0
:10189000F0BD0000002C0140004401400048014020
:1018A00070B5026A01231B039A430262046A42680C
:1018B000C36907252D03AB4303252D02AB430D68F8
:1018C0002D021D4301235B039C438B681E032643AB
:1018D0000A4B984205D00A4B984202D0094B9842D5
:1018E00006D10124A4031346A3434A6992011A4373
:1018F0004260C56149680164066270BD002C014008
:101900000044014000480140F8B53948C16B022548
:101910002943C163C16B29400091426B01210A43F5
:101920004263406B084000903248402202604560AC
:1019300000248460C5600161014605200007FFF7AF
:1019400045F92C482C499C3801606321C16017215E
:10195000416004618460446180218161FFF770FC13
:10196000002801D0FEF74EFD224860265C38066054
:10197000856004270761C460846144615A21416025
:10198000014600224038FFF74EFD002801D0FEF747
:1019900039FD184800219C38FFF77EFD15485C385A
:1019A000066085600761C4608461446153214160C1
:1019B000014604224038FFF736FD002801D0FEF72B
:1019C00021FD0C4804219C38FFF78EFD00221146B2
:1019D0001020FFF7F7F91020FFF7EAF905489C38C7
:1019E000FFF75BFC0448C16849084900C160F8BDC5
:1019F00000100240E40100200004004002E008C89A
:101A0000121F08C1002AFAD170477047002001E078
:101A100001C1121F002AFBD17047000070B50B4DA9
:101A20000B4CEA68910060500A21501CFEF762FBE3
:101A3000E960002000218A00A2581018491C0A29D8
:101A4000F9DB0A21FEF756FB70BD0000C400002040
:101A50003C020020F0B50F4D2C78002C04D068809B
:101A6000A88000212970F0BD8C18E618094CF71FDA
:101A70006488F93F01D02046F0BD484321465143D8
:101A80004118A888584308188030AC800002000C28
:101A90006880F0BDC4000020FFF73EF9FEF7B4FCFB
:101AA000FEF774FDFFF7B6FDFFF72EFFFEF722FCF1
:101AB000FEE7000000000000000000000000000041
:101AC0000000000000000000000000000000000016
:101AD0000000000001000000020000000300000000
:101AE00004000000060000000700000008000000DD
:101AF0000900000000093D0000127A000024F400F3
:101B00004086510100366E0100093D0000093D008C
:101B100000093D0000093D0000127A000024F40095
:101B20004086510100366E01481B0008000000206D
:101B3000E8000000FC190008301C0008E800002044
:101B4000800500000C1A00080000000000000000E2
:101B50000000000000000000000000000000000085
:101B60000000000000000000000000000000000075
:101B70000000000000000000000000000000000065
:101B80000000000000000000000000000000000055
:101B90000000000000000000000000000000000045
:101BA0000000000000000000000000000000000035
:101BB0000000000000000000000000000000000025
:101BC0000000000000000000000000000000000015
:101BD0000000000000000000000000000000000005
:101BE00000000000000000000000000000000000F5
:101BF00000000000000000000000000000000000E5
:101C0000000000000000000000127A000100000047
:101C100000000100000000000000000000000000C3
:101C200000000000040000000100000000000000AF
:04000005080000C12E
:00000001FF
