:020000040800F2
:10000000E8050020D90000081B1700081717000892
:1000100000000000000000000000000000000000E0
:10002000000000000000000000000000971700081A
:100030000000000000000000951700089917000854
:10004000EB000008EB000008EB000008EB000008E4
:10005000EB000008EB000008EB000008EB000008D4
:1000600000000000EB000008EB00000800000000AA
:10007000C1010008EB000008EB00000800000000D0
:10008000ED170008EB00000800000000EB0000087E
:1000900000000000EB000008EB000008EB00000887
:1000A00000000000EB00000800000000EB0000086A
:1000B000EB0000080000000000000000000000004D
:1000C0000448854600F050F8004800478D010008BC
:1000D000C046C046E8050020044880470448004761
:1000E000FEE7FEE7FEE7FEE7FEE7FEE7A1170008F2
:1000F000C100000830B50B46014600202022012433
:1001000009E00D46D5409D4205D31D469540491B4B
:100110002546954040191546521E002DF1DC30BD94
:1001200003460B439B0703D009E008C9121F08C010
:10013000042AFAD203E00B780370401C491C521EBB
:10014000F9D27047D2B201E00270401C491EFBD2C6
:1001500070470022F6E710B513460A4604461946D2
:10016000FFF7F0FF204610BD064C0125064E05E0C6
:10017000E36807CC2B430C3C98471034B442F7D3C8
:10018000FFF7A2FF0C1D00082C1D000870B501250B
:10019000ED06002406E0A0002858A100064A5050B1
:1001A000601CC4B2302CF6DB012040070349886094
:1001B00001F056FD002070BD0000002000ED00E0C1
:1001C00010B5024800F009FB10BD0000EC00002053
:1001D00038B504460020009020688068C007C00F32
:1001E000012148404840002827D1206880681449F0
:1001F0000840002801D1012000E00020002809D19A
:10020000A06B10210843A063E06B01210843E06369
:10021000012038BD2068806801210843216888607A
:10022000084909480068FFF765FF009002E0009860
:10023000401E009000980028F9D10020E9E7000056
:100240001500008040420F00C000002070B50B4632
:10025000002115E08A0084580D464A1C07E09600EC
:100260008659A64202DA960084591546521C9A42D3
:10027000F5DB8A008258AE0082518A008450491C06
:100280009942E7DB70BD00001FB50020019002908D
:1002900003903248006B0121090508432F49086388
:1002A0000846006B0121090588432C49086300BFFB
:1002B0002A48403000680121090508432749403198
:1002C000086008460068012109050840009000BF49
:1002D00000BF234823490860084600F017F90028AA
:1002E00001D000F041F81E481E4908600020486017
:1002F00000211C488160C16001210161042141612C
:1003000001210176002141768176FF21C231C16150
:100310000021016224300170243881620121090723
:10032000C16200F0E5FA002801D000F01DF80020BD
:10033000019001200003029001A90A4800F018F979
:10034000002801D000F010F8002211460C2000F027
:100350004FFD0C2000F040FD1FBD000000100240CA
:1003600000240140EC00002000BFFEE700B58BB088
:10037000182105A8FFF7EDFE0020019002900390E0
:1003800004900B200590FF20013008901048008A4F
:10039000C004C00C0121C903084309900020069045
:1003A0000A9005A800F034FE002801D0FFF7DCFF1A
:1003B000072001900020029003900490002101A8E2
:1003C00000F020FD002801D0FFF7CEFF0BB000BDEC
:1003D000000FFF1F08B500BF1A48406B01210843FA
:1003E000184948630846406BC007C00F009000BF23
:1003F00000BF00BF0846406B022108431149486313
:100400000846406B02210840009000BF00BF8120D9
:1004100040010D49086001204860002088600220EA
:10042000C8600520000700F085FB0122202105207F
:10043000000700F059FC012211030520000700F01D
:1004400053FC08BD00100240D4010020F8B504465A
:1004500000250026002700BF3420005D012801D1BF
:100460000220F8BD01213420015500BF20688068BA
:1004700008404840484000283CD1A06B090288430E
:1004800002210843A0632068C0688707BF0F206867
:10049000C068800880002168C860206880680121E9
:1004A000C90708432168886000F024FC064611E073
:1004B00000F020FC801B02280CD9A06B022188438D
:1004C00010210843A06300BF00213420015500BF64
:1004D0000120C6E720688068C00FC0070028E7D168
:1004E0002068C06838432168C860A06B0221884337
:1004F000A06304E0A06B20210843A063012500BF96
:1005000000213420015500BF2846AAE730B58BB042
:100510000546002414E02846FFF798FF002802D083
:1005200001200BB030BD11488068A10006AA5050D0
:10053000A00006A908584002A10001AA5050641C5E
:10054000052CE8DB052101A8FFF780FE0398401287
:10055000064908610846C0684861084640680121AC
:10056000C9030843014948600020DAE740240140FC
:10057000F8B504460D460026002000900121090729
:10058000E06A884215D0E06A012812D0E06A0228A9
:100590000FD0E06A03280CD0E06A042809D0E06A92
:1005A000052806D0E06A062803D0E06A072800D0B4
:1005B00000BF00BF3420005D012801D10220F8BD3A
:1005C00001213420015500BF2068806804210840C3
:1005D000800800287DD14549686888425CD0206841
:1005E000806A2A78012191400843216888620121AC
:1005F0000907E06A884229D0E06A012826D0E06A2B
:10060000022823D0E06A032820D0E06A04281DD005
:10061000E06A05281AD0E06A062817D0E06A0728A1
:1006200014D0A868216849694907490F88420DD04C
:1006300020684069C008C00021684861206840699E
:10064000297A4907490F08432168486128680B281F
:1006500002D028680C2841D12548806829680B29D8
:1006600002D10121C90501E0012189050843204982
:10067000886028680B2831D11E491F480068FFF7A1
:1006800039FD0A214843009002E00098401E009086
:1006900000980028F9D121E02068806A2A78012199
:1006A000914088432168886228680B2802D0286816
:1006B0000C2813D10E48806829680B2903D1012129
:1006C000C90502E005E001218905884308498860E1
:1006D00004E0A06B20210843A063012600BF002195
:1006E0003420015500BF304669E7000001100000CA
:1006F0000027014040420F00C000002010B5044612
:10070000204600F066F82C4908800846008801F071
:1007100089FA2949088029480078401C274908702F
:100720000846007803282FDD002008702448006860
:100730002449096888421AD9214800682149096872
:10074000401AFF210531884211D91F481C49086011
:100750001C490860012220210520000700F0C4FA8E
:10076000012211030520000700F0BEFA0CE0002270
:1007700020210520000700F0B7FA0022012109031B
:100780000520000700F0B0FA0B4800880C49096802
:10079000884203D90848008809490860064800884B
:1007A00008490968884203D203480088054908605F
:1007B000064800F06FF910BDCC000020DC000020DE
:1007C000C4000020C800002044070000EC00002006
:1007D000704701460868006C704710B504462068F1
:1007E000006804210840042804D1206840680840BB
:1007F00004280AD02068006808210840082840D151
:1008000020684068084008283BD1A06B10210840B0
:10081000002803D1A06B49010843A0632068C06889
:10082000032189020840002825D1607E002822D1BA
:10083000206800680821084008281CD120688068CA
:1008400004210840800800280DD1206840680C2150
:10085000884321684860A06BFF2101318843012152
:100860000843A06307E0A06B20210843A063E06B6E
:1008700001210843E0632046FFF740FF0C20216878
:100880000860206800688021084080280ED1206818
:1008900040680840802809D1A06B49020843A06342
:1008A000204600F0F5F88020216808602068006884
:1008B0001021084010281AD12068406808401028EC
:1008C00015D1A06A012805D02068C068C007C00FF4
:1008D000002809D0E06B02210843E0631020216862
:1008E00008602046FFF774FF10202168086010BDE3
:1008F00070B5044600260025002C01D1012070BDF2
:10090000A06B002806D1E063002134200155204669
:1009100000F0BFF8A06B1021084000287ED1002E07
:10092000FCD1206880680421084080080028F5D1A7
:10093000A06B8901884302210843A0632068806876
:10094000C007C00F01214840484000280FD120684F
:10095000C06818218843A16808432168C8602068DE
:100960000069000100096168084321680861206886
:10097000C068454908402168C860207E8003617EC8
:1009800049030843A16A012902D00121090300E0BB
:1009900000210843E16808432169022901D10421AB
:1009A00000E0002108432421095D49000843054374
:1009B000A07E01280ED1607E002803D10120000412
:1009C000054307E0A06B20210843A063E06B0121F1
:1009D0000843E063FF21C231E069884203D0216A05
:1009E000E069084305432068C06828432168C8605F
:1009F00001210907E06A884216D0E06A012813D075
:100A0000E06A022810D0E06A03280DD0E06A0428CA
:100A10000AD0E06A052807D0E06A00E02DE0062849
:100A200002D0E06A07280DD120684069C008C000E4
:100A30002168486120684069A18D4907490F084332
:100A4000216848612068C06810490840A84208D160
:100A50000020E063A06B0221884301210843A063CA
:100A600010E0A06B0221884310210843A063E06BD3
:100A700001210843E063012604E0A06B1021084334
:100A8000A063012630463AE719C2FEFFE7FF3FC3E5
:100A90007047704770B504460025206880680421BF
:100AA00008408008002840D100BF3420005D0128A4
:100AB00001D1022070BD01213420015500BF204624
:100AC000FFF786FB0546002D30D1A06B1849084082
:100AD000FF2101310843A0630020E06300BF002133
:100AE0003420015500BF1C20216808606069082877
:100AF0000CD1206840680421884321684860206840
:100B00004068182108432168486006E02068406872
:100B10001C2108432168486000BF00BF206880682E
:100B2000042108432168886000E002252846C1E7C7
:100B3000FEF1FFFF70B503460022CBE00126964090
:100B40000C683440002C71D04D68022D02D04D68E5
:100B5000122D15D1D508AE001D462035A8595507D0
:100B6000EE0E0F25B5400646AE4330465607F60E4C
:100B70000D69B5402843D508AD001E46203670519A
:100B8000186856000325B5400646AE4330460D7939
:100B9000AD07AD0F5600B540284318604D68012DD4
:100BA00008D04D68022D05D04D68112D02D04D683A
:100BB000122D18D1986856000325B5400646AE435D
:100BC00030465600CD68B5402843986058680125E6
:100BD00095400646AE43304610264D6835402D09F7
:100BE000954028435860D86856000325B54006460E
:100BF000AE43304656008D68B5402843D860012684
:100C000036074D683540B54263D1354D9608B6007C
:100C1000A8599507EE0E0F25B5400646AE4330465F
:100C200005252D07AB4202D1002506E051E02D4DF0
:100C3000AB4201D1012500E002259607F60EB54032
:100C40002843274D9608B600A851254D2035286821
:100C50000546A5432846012636044D683540B54271
:100C600002D10546254328461D4D20352860686879
:100C70000546A5432846012676044D683540B54211
:100C800002D1054625432846154D20356860144D90
:100C9000603D28680546A5432846012636054D686F
:100CA0003540B54202D10546254328460C4D603DEE
:100CB000286068680546A5432846012676054D68E4
:100CC0003540B54202D1054625432846044D603DD6
:100CD0006860521C0D68D540002D00D02EE770BD15
:100CE0006018024000040050002A01D0816100E039
:100CF000816270470148006870470000E0000020F2
:100D000003480068034909684018014908607047B2
:100D1000E0000020E800002010B50024032000F0CF
:100D200009F8002801D0012401E000F033F8204642
:100D300010BD0000F8B504460025134800680028DF
:100D40001ED0114801687D20C000FFF7D3F9074687
:100D500039460E480068FFF7CDF9064600F0E2FA82
:100D600000280BD1042C07D200222146401E00F09F
:100D70003FF80748046004E0012502E0012500E097
:100D800001252846F8BD0000E8000020C000002032
:100D9000E400002008B500BF0E48006801210843A8
:100DA0000C49086008460068C007C00F009000BFEB
:100DB00000BF00BF07484038C06B8905084305499C
:100DC0004039C8630846C06B09040840009000BF62
:100DD00000BF08BD4010024000BFC206D20E012174
:100DE0009140024A116000BF7047000000E100E03E
:100DF00070B504460D4616462946204600F08EFC86
:100E000070BD000070B504460D46002C01D10120D4
:100E100070BD5F480068C007C00FA84218D25C4888
:100E2000006840084000284359490860FFF762FF06
:100E3000064607E0FFF75EFF801B5649884201D94E
:100E40000320E5E752480068C007C00FA842F1D16F
:100E5000022120680840022815D10421206808409A
:100E6000042807D14C4880680721090388434018AB
:100E700049498860484880680F2109028843A16871
:100E80000843454988602078C007C00F00283CD03F
:100E90006068012808D140480068012149040840E1
:100EA000002816D10120B3E76068002808D13A482D
:100EB000006801218902084000280AD10120A7E723
:100EC00035484030006A02210840002801D1012045
:100ED0009EE731488068C008C000616808432E4919
:100EE0008860FFF707FF064607E0FFF703FF801B58
:100EF0002849884201D903208AE727488068382199
:100F000008406168C9008842EFD121480068C007E5
:100F1000C00FA84218D91E48006840084000284366
:100F20001B490860FFF7E6FE064607E0FFF7E2FE12
:100F3000801B1849884201D9032069E714480068DA
:100F4000C007C00FA842F1D104212068084004283E
:100F500008D111488068072109038843E1680843E4
:100F60000D49886000F020F80B4989680F221202B1
:100F70001140090A8900094A515CC906C90EC840D6
:100F80000749086007480068FFF7D4FE40E7000003
:100F9000002002408813000000100240781C000866
:100FA000C0000020E400002030B585B014221549AF
:100FB0006846FFF7B5F814488068382108400028D3
:100FC0000BD11148406889020840450B042D00D917
:100FD0000025A80069460C5811E00B4880683821AC
:100FE0000840082801D1094C09E0074880683821E9
:100FF0000840182802D10124E40300E00024204620
:1010000005B030BDF81C00080010024000366E012B
:1010100070B50446002C01D1012070BD2078C007B6
:10102000C00F002878D0BB48866838210E40082EB3
:1010300009D10068B10308400028F3D06068002897
:101040006AD10120E9E7606800282FD0A068002855
:101050002AD000BFAF480068012109048843AD4988
:10106000086008460068012189048843A94908608E
:1010700000BFFFF73FFE054606E0FFF73BFE401BC3
:10108000C82801D90320C8E7A24800680121490403
:1010900008400128F1D09F4800690C218843A168CD
:1010A00008439C49086101E00120B6E700BF012127
:1010B00009046068884205D196480068084395494C
:1010C000086021E005210904606888420ED191483A
:1010D00000680121890408438E49086008460068B9
:1010E0000121090408438B4908600DE08948006824
:1010F00001210904884387490860084600680121E6
:10110000890488438349086000BF6068002813D0C1
:10111000FFF7F0FD054607E020E0FFF7EBFD401B81
:10112000C82801D9032078E77A48006801214904DA
:1011300008400028F1D011E0FFF7DCFD054606E08D
:10114000FFF7D8FD401BC82801D9032065E7714887
:1011500000680121490408400028F1D102212068DB
:10116000084002286AD16B4880683821084006464A
:10117000002E3FD1674800680121890208400028FD
:1011800004D0E068002801D1012046E761484068AA
:10119000000C0004216908435E494860FFF7AAFD7E
:1011A000054606E0FFF7A6FD401B022801D90320F3
:1011B00033E7584800680121890208400028F1D02F
:1011C000002E0FD1FFF7F0FE524989680F2212025C
:1011D0001140090A8900504A515CC906C90EC8402D
:1011E0004E4908604E480068FFF7A4FD00283FD034
:1011F000012012E7E068002821D046480068FF215E
:101200000131084343490860FFF774FD054606E0D5
:10121000FFF770FD401B022801D90320FDE63D4881
:1012200000680121890208400028F1D0394840684F
:10123000000C0004216908433649486018E035482D
:101240000068FF210131884332490860FFF752FDF1
:10125000054606E0FFF74EFD401B022801D903209A
:10126000DBE62C4800680121890208400028F1D102
:10127000082120680840082849D12648806838217C
:10128000084018280BD123484030006A022108404A
:1012900000283CD06069002839D10120BDE6606992
:1012A00000281AD01B484030006A01210843194920
:1012B00040310862FFF71EFD054606E0FFF71AFD04
:1012C000401B022801D90320A7E612484030006ADB
:1012D000022108400028F1D019E00E484030006A91
:1012E000400840000B4940310862FFF703FD054606
:1012F00006E0FFF7FFFC401B022801D903208CE623
:1013000004484030006A022108400028F1D1002042
:1013100083E6000000100240781C0008C000002096
:10132000E400002070B504462546681E094988423D
:1013300001D901200CE0681E074948610321081FFC
:1013400000F0ECF9002004498861072008610020C2
:1013500070BD0000FFFFFF0000E000E07047704735
:1013600010B50446002C01D1012010BD3D20005DC8
:10137000002805D100213C200155204600F00CF842
:1013800002213D200155211D206800F037FA01217E
:101390003D2001550020E8E77047014602233D202B
:1013A0004354086880684207520F062A05D008682F
:1013B0000068012318430B68186001233D20435443
:1013C0000020704701460868C068012318430B6875
:1013D000D860086880684207520F062A05D008685E
:1013E0000068012318430B6818600020704770479D
:1013F00010B5044620680069022108404008002812
:101400001CD02068C06808404008002816D0481F3B
:101410002168086101202077206880698007800F9B
:10142000002803D02046FFF7E2FF05E0204600F049
:10143000FFF8204600F06CF9002020772068006952
:1014400004210840800800281DD02068C06808409A
:101450008008002817D0C84321680861022020773F
:1014600020688069032109020840002803D0204633
:10147000FFF7BDFF05E0204600F0DAF8204600F057
:1014800047F9002020772068006908210840C0083B
:1014900000281CD02068C0680840C008002816D06A
:1014A000C84321680861042020772068C06980074C
:1014B000800F002803D02046FFF799FF05E0204663
:1014C00000F0B6F8204600F023F9002020772068CD
:1014D000006910210840000900281DD02068C0685C
:1014E00008400009002817D0C84321680861082077
:1014F00020772068C069032109020840002803D032
:101500002046FFF774FF05E0204600F091F82046E2
:1015100000F0FEF80020207720680069C007C00FA7
:1015200001214840484000280CD02068C06808408D
:1015300048404840002805D0C81E21680861204660
:1015400000F0E7F82068006980210840C009002801
:101550000BD02068C0680840C009002805D0C843E7
:10156000216808612046FFF7F9FE206800694021E4
:101570000840800900280BD02068C0680840800916
:10158000002805D0C84321680861204600F0C2F851
:101590002068006920210840400900280BD02068FD
:1015A000C06808404009002805D0C8432168086188
:1015B0002046FFF7D4FE10BD70B504460E46154612
:1015C00000BF3C20005D012801D1022070BD012137
:1015D0003C20015500BF02213D200155002D06D0C1
:1015E000042D09D0082D0CD00C2D14D10EE031465D
:1015F000206800F05DF90FE03146206800F0A6F9A0
:101600000AE03146206800F0F9F905E0314620682B
:1016100000F04AFA00E000BF00BF01213D20015563
:1016200000BF00213C20015500BF0020CEE7000094
:1016300010B5044605492068884205D10448FFF7E3
:1016400029FA0448FFF7A9FE10BD0000000400407D
:10165000EC0000207801002070B504460D46002DF6
:1016600006D0042D0BD0082D10D00C2D1CD114E069
:101670002068C068022108432168C86015E020681E
:10168000C068042108432168C8600EE02068C06873
:10169000082108432168C86007E02068C06810215D
:1016A00008432168C86000E000BF00BF012229464E
:1016B000206800F0EBF813492068884207D01249EF
:1016C0002068884203D011492068884201D1012056
:1016D00000E00020002806D02068406C0121C903EA
:1016E000084321684864206880684607760F062E04
:1016F00005D02068006801210843216808600020A7
:1017000070BD0000002C0140004401400048014031
:1017100070477047704700BFFEE7704710B500285C
:1017200019DA1A4A03071B0F083B9B089B00D25883
:101730008307DC0EFF23A3409A438B071B0E84070D
:10174000E40EA3401A43114B0407240F083CA408DD
:10175000A4001A5118E00E4A03231B02D218830872
:101760009B00D2588307DC0EFF23A3409A438B07CC
:101770001B0E8407E40EA3401A43054B03242402E6
:101780001B198408A4001A5110BD00001CED00E0D4
:1017900000E100E07047704710B5FFF7B1FA10BDE7
:1017A0000E484068000C00040121490340180C4910
:1017B0008988C904C90C084308494860084640683C
:1017C0000849084006498031898CC905C909084380
:1017D00002494860C803044988607047001002400D
:1017E000000FFF1FFFFF00FE00ED00E010B50248F4
:1017F000FFF7FEFD10BD00007801002010B5026863
:101800001D4B984202D01D4B984205D170241346BF
:10181000A3431A464B681A43174B98420BD0174BF9
:10182000984208D0164B984205D0164B984202D0E9
:10183000154B984206D1032424021346A3431A46AB
:10184000CB681A4380241346A3434C6923431A46AA
:1018500002608B68C3620B688362074B984205D0B5
:10186000084B984202D0084B984201D10B690363A0
:101870000123436110BD0000002C01400004004022
:1018800000200040004401400048014070B5CD06F2
:10189000ED0E0124AC402346046A9C430462046AB2
:1018A000CE06F60E1546B5402C43046270BD00000E
:1018B00070B5056A6D086D000562026A4368846947
:1018C00070262546B5432C46A408A4000D682C4379
:1018D00002261546B5432A468D682A43184DA8426C
:1018E00000D107E0174DA84200D103E0164DA842F1
:1018F0000AD100BF08261546B5432A46CD682A43BB
:1019000004261546B5432A460D4DA84205D00D4D77
:10191000A84202D00C4DA8420CD1FF2601361D462C
:10192000B5432B4676001D46B5432B464D692B43E8
:101930008D692B43436084614D684563026270BDCD
:10194000002C0140004401400048014070B5056A88
:101950001026B5430562026A436884690726360388
:101960002546B5432C46032636022546B5432C466C
:101970000D682D022C4320261546B5432A468D6856
:101980002D012A431A4DA84200D107E0194DA84263
:1019900000D100BF184DA8420BD10AE080261546A1
:1019A000B5432A46CD682D012A4340261546B54346
:1019B0002A460F4DA84205D00E4DA84202D00E4D2A
:1019C000A8420ED10126B6021D46B5432B4676002D
:1019D0001D46B5432B464D69AD002B438D69AD00C7
:1019E0002B43436084614D688563026270BD0000D3
:1019F000002C0140004401400048014070B5056AD8
:101A0000FF260136B5430562026A4368C469702641
:101A10002546B5432C46A408A4000D682C43012696
:101A200076021546B5432A468D682D022A431B4D82
:101A3000A84200D107E01A4DA84200D100BF194DBD
:101A4000A8420CD10BE00126F6021546B5432A4602
:101A5000CD682D022A4376101546B5432A460F4D10
:101A6000A84205D00E4DA84202D00E4DA8420ED17C
:101A7000012636031D46B5432B4676001D46B54369
:101A80002B464D692D012B438D692D012B4343605E
:101A9000C4614D68C563026270BD0000002C014046
:101AA000004401400048014070B5056A0126360334
:101AB000B5430562046A4368C269072636031546C2
:101AC000B5432A46032636021546B5432A460D6815
:101AD0002D022A43012676032546B5432C468D6800
:101AE0002D032C430B4DA84205D00B4DA84202D02C
:101AF0000A4DA84207D10126B6031D46B5432B4621
:101B00004D69AD012B434360C2614D6805640462B9
:101B100070BD0000002C014000440140004801401D
:101B200008B500BF3248C06B022108433049C86382
:101B30000846C06B02210840009000BF00BF00BFF4
:101B40002B48406B01210843294948630846406BF4
:101B5000C007C00F009000BF00BF402025490860AB
:101B600002204860002088600220C86001200861CF
:101B700005200007FEF7DEFF1F48204908606321AB
:101B80001E48C16017201D49486000211B480161A3
:101B90008160416180218161FFF7E2FB002801D073
:101BA000FEF7E2FB602016490860022088600420EE
:101BB00008610020C860886148615A20486000229E
:101BC0000E48FFF7F9FC002801D0FEF7CDFB0021FD
:101BD0000A48FFF741FD002211461020FFF708F9DF
:101BE0001020FFF7F9F80548FFF7ECFB08BD0000EF
:101BF00000100240D40100200004004078010020C1
:101C0000B801002002E008C8121F08C1002AFAD15A
:101C100070477047002001E001C1121F002AFBD16C
:101C20007047000010B501460B48006880000B4B60
:101C3000195009480078401CC007C00F064B1860B7
:101C40000022002004E08300044CE3589A18401C52
:101C50000228F8DB500810BDD8000020D00000207A
:101C6000FFF75AF8FEF782FBFEF7B4FBFFF758FFC9
:101C7000FEF70AFB00BFFEE70000000000000000C6
:101C80000000000000000000000000000000000054
:101C90000000000000000000010000000200000041
:101CA0000300000004000000060000000700000020
:101CB0000800000009000000000000000000000013
:101CC0000000000000000000010000000200000011
:101CD000030000000400000000093D0000127A002B
:101CE0000024F4004086510100366E0100093D00D9
:101CF00000093D0000093D0000093D0000127A0086
:101D00000024F4004086510100366E012C1D0008AD
:101D100000000020EC000000041C0008181E000851
:101D2000EC000020FC040000141C0008000000006F
:101D300000000000000000000000000000000000A3
:101D40000000000000000000000000000000000093
:101D50000000000000000000000000000000000083
:101D60000000000000000000000000000000000073
:101D70000000000000000000000000000000000063
:101D80000000000000000000000000000000000053
:101D90000000000000000000000000000000000043
:101DA0000000000000000000000000000000000033
:101DB0000000000000000000000000000000000023
:101DC0000000000000000000000000000000000013
:101DD0000000000000000000000000000000000003
:101DE00000000000000000000000000000127A0067
:101DF000440700004407000000000000000000004D
:101E000000000000000000000000000000000000D2
:081E10000400000001000000C5
:04000005080000C12E
:00000001FF
