:020000040800F2
:1000000038050020D90000087F0E00087B0E00088C
:1000100000000000000000000000000000000000E0
:10002000000000000000000000000000FB0E0008BF
:100030000000000000000000F90E0008FD0E00089E
:10004000EB000008EB000008EB000008EB000008E4
:10005000EB000008EB000008EB000008EB000008D4
:1000600000000000EB000008EB00000800000000AA
:10007000EB000008510F0008EB0000080000000032
:10008000EB000008EB00000800000000EB00000897
:1000900000000000EB000008EB000008EB00000887
:1000A00000000000EB00000800000000EB0000086A
:1000B000EB0000080000000000000000000000004D
:1000C0000448854600F050F8004800478D010008BC
:1000D000C046C04638050020044880470448004711
:1000E000FEE7FEE7FEE7FEE7FEE7FEE7050F000896
:1000F000C100000830B50B46014600202022012433
:1001000009E00D46D5409D4205D31D469540491B4B
:100110002546954040191546521E002DF1DC30BD94
:1001200003460B439B0703D009E008C9121F08C010
:10013000042AFAD203E00B780370401C491C521EBB
:10014000F9D27047D2B201E00270401C491EFBD2C6
:1001500070470022F6E710B513460A4604461946D2
:10016000FFF7F0FF204610BD064C0125064E05E0C6
:10017000E36807CC2B430C3C98471034B442F7D3C8
:10018000FFF7A2FF401400086014000870B50125B5
:10019000ED06002406E0A0002858A100064A5050B1
:1001A000601CC4B2302CF6DB012040070349886094
:1001B00001F078F8002070BD0000002000ED00E0A4
:1001C00000BFFEE700B58BB0182105A8FFF7C1FFFF
:1001D000002001900290039004900B200590FF20D6
:1001E0000130089012480089C004C00C0121890325
:1001F00008430990002006900C20079000200A90E8
:1002000005A800F0C7FA002801D0FFF7D9FF0720A2
:1002100001900020029003900490002101A800F0BA
:10022000B3F9002801D0FFF7CBFF0BB000BD0000F1
:10023000000FFF1F10B504466200064B995AA2003A
:10024000054B985800F02EF9002801D1012010BD6F
:100250000020FCE726140008C800002030B587B055
:1002600004460D4600BF002C0DD100BF1B48406B5B
:1002700001210843194948630846406BC007C00F75
:10028000019000BF00BF00BF60001549085A0290EE
:100290000020049001200590002D07D1002003903C
:1002A000A100104A505802A900F022F8012D13D1E4
:1002B0000D480390A1000B4A505802A900F018F80D
:1002C0000A49095D48B200220F2100F053F907499D
:1002D000095D48B200F042F907B030BD001002409D
:1002E00026140008C800002000002110281400086F
:1002F00070B503460022CBE0012696400C683440DE
:10030000002C71D04D68022D02D04D68122D15D1F0
:10031000D508AE001D462035A8595507EE0E0F250D
:10032000B5400646AE4330465607F60E0D69B54059
:100330002843D508AD001E46203670511868560077
:100340000325B5400646AE4330460D79AD07AD0FE7
:100350005600B540284318604D68012D08D04D68FF
:10036000022D05D04D68112D02D04D68122D18D1E7
:10037000986856000325B5400646AE433046560001
:10038000CD68B540284398605868012595400646D9
:10039000AE43304610264D6835402D099540284320
:1003A0005860D86856000325B5400646AE4330462F
:1003B00056008D68B5402843D860012636074D6841
:1003C0003540B54263D1354D9608B600A85995071A
:1003D000EE0E0F25B5400646AE43304605252D07E7
:1003E000AB4202D1002506E051E02D4DAB4201D1D8
:1003F000012500E002259607F60EB5402843274D5B
:100400009608B600A851254D203528680546A54315
:100410002846012636044D683540B54202D10546CE
:10042000254328461D4D2035286068680546A543AC
:100430002846012676044D683540B54202D105466E
:1004400025432846154D20356860144D603D2868C9
:100450000546A5432846012636054D683540B54278
:1004600002D10546254328460C4D603D286068684A
:100470000546A5432846012676054D683540B54218
:1004800002D1054625432846044D603D6860521C54
:100490000D68D540002D00D02EE770BD60180240D9
:1004A00000040050024613690B40002B01D00120CC
:1004B00000E000207047000001480068704700001D
:1004C000CC0000200348006803490968401801492E
:1004D00008607047CC000020D400002010B5002434
:1004E000032000F009F8002801D0012401E000F009
:1004F00033F8204610BD0000F8B504460025134827
:10050000006800281ED0114801687D20C000FFF758
:10051000F1FD074639460E480068FFF7EBFD064639
:1005200000F0C2FA00280BD1042C07D20022214689
:10053000401E00F01FF80748046004E0012502E0B7
:10054000012500E001252846F8BD0000D400002068
:10055000C0000020D00000207047000000BFC2068D
:10056000D20E01219140024A116000BF7047000085
:1005700000E100E070B504460D46164629462046C7
:1005800000F07EFC70BD000070B504460D46002CE6
:1005900001D1012070BD5F480068C007C00FA842AC
:1005A00018D25C4800684008400028435949086058
:1005B000FFF782FF064607E0FFF77EFF801B5649E4
:1005C000884201D90320E5E752480068C007C00F00
:1005D000A842F1D1022120680840022815D1042147
:1005E00020680840042807D14C4880680721090387
:1005F0008843401849498860484880680F210902AB
:100600008843A1680843454988602078C007C00F27
:1006100000283CD06068012808D1404800680121CA
:1006200049040840002816D10120B3E7606800287B
:1006300008D13A48006801218902084000280AD1FF
:100640000120A7E735484030006A02210840002811
:1006500001D101209EE731488068C008C000616870
:1006600008432E498860FFF727FF064607E0FFF79B
:1006700023FF801B2849884201D903208AE72748A5
:100680008068382108406168C9008842EFD121485C
:100690000068C007C00FA84218D91E48006840086B
:1006A000400028431B490860FFF706FF064607E0A5
:1006B000FFF702FF801B1849884201D9032069E730
:1006C00014480068C007C00FA842F1D10421206877
:1006D0000840042808D1114880680721090388438D
:1006E000E16808430D49886000F020F80B498968EB
:1006F0000F2212021140090A8900094A515CC906F9
:10070000C90EC8400749086007480068FFF7F4FEB3
:1007100040E7000000200240881300000010024063
:10072000A4130008C0000020D000002030B585B020
:10073000142215496846FFF7F3FC144880683821F5
:10074000084000280BD11148406889020840450B39
:10075000042D00D90025A80069460C5811E00B486B
:10076000806838210840082801D1094C09E0074871
:10077000806838210840182802D10124E40300E0F1
:100780000024204605B030BD2C14000800100240A3
:1007900000366E0170B50446002C01D1012070BDF9
:1007A0002078C007C00F002878D0BB488668382161
:1007B0000E40082E09D10068B10308400028F3D08C
:1007C000606800286AD10120E9E7606800282FD01E
:1007D000A06800282AD000BFAF48006801210904A2
:1007E0008843AD49086008460068012189048843B0
:1007F000A949086000BFFFF75FFE054606E0FFF766
:100800005BFE401BC82801D90320C8E7A248006846
:100810000121490408400128F1D09F4800690C21BA
:100820008843A16808439C49086101E00120B6E7BC
:1008300000BF012109046068884205D1964800681C
:1008400008439549086021E0052109046068884251
:100850000ED1914800680121890408438E4908603F
:10086000084600680121090408438B4908600DE02F
:1008700089480068012109048843874908600846BF
:1008800000680121890488438349086000BF6068CB
:10089000002813D0FFF710FE054607E020E0FFF721
:1008A0000BFE401BC82801D9032078E77A4800686E
:1008B0000121490408400028F1D011E0FFF7FCFDB8
:1008C000054606E0FFF7F8FD401BC82801D90320C4
:1008D00065E7714800680121490408400028F1D10A
:1008E00002212068084002286AD16B4880683821BC
:1008F00008400646002E3FD1674800680121890262
:100900000840002804D0E068002801D1012046E713
:1009100061484068000C0004216908435E49486052
:10092000FFF7CAFD054606E0FFF7C6FD401B02289B
:1009300001D9032033E758480068012189020840A3
:100940000028F1D0002E0FD1FFF7F0FE5249896840
:100950000F2212021140090A8900504A515CC9064F
:10096000C90EC8404E4908604E480068FFF7C4FDF4
:1009700000283FD0012012E7E068002821D0464837
:100980000068FF210131084343490860FFF794FDE7
:10099000054606E0FFF790FD401B022801D9032021
:1009A000FDE63D4800680121890208400028F1D099
:1009B00039484068000C0004216908433649486002
:1009C00018E035480068FF2101318843324908604A
:1009D000FFF772FD054606E0FFF76EFD401B02289B
:1009E00001D90320DBE62C48006801218902084078
:1009F0000028F1D1082120680840082849D126485C
:100A000080683821084018280BD123484030006AFC
:100A10000221084000283CD06069002839D101201B
:100A2000BDE6606900281AD01B484030006A0121E9
:100A30000843194940310862FFF73EFD054606E0CC
:100A4000FFF73AFD401B022801D90320A7E6124810
:100A50004030006A022108400028F1D019E00E4819
:100A60004030006A400840000B4940310862FFF7FF
:100A700023FD054606E0FFF71FFD401B022801D9B4
:100A800003208CE604484030006A02210840002818
:100A9000F1D1002083E6000000100240A4130008FA
:100AA000C0000020D000002070B504462546681E16
:100AB0000949884201D901200CE0681E07494861B4
:100AC0000321081F00F0DCF9002004498861072099
:100AD0000861002070BD0000FFFFFF0000E000E0A3
:100AE0007047704710B50446002C01D1012010BD9D
:100AF0003D20005D002805D100213C200155204605
:100B000000F00CF802213D200155211D206800F065
:100B100027FA01213D2001550020E8E710B586B0F5
:100B20000446142101A8FFF714FB00BF2548006804
:100B30000121C90208432349086008460068C91416
:100B40000840009000BF00BF00BF1E484038406B07
:100B5000012108431B49403948630846406BC007E0
:100B6000C00F009000BF00BF022002900120039040
:100B700002200490082001900D20059001A9052075
:100B80000007FFF7B5FB0120400301900D20059001
:100B900001A905200007FFF7ABFB012001900D2004
:100BA000059001A905200007FFF7A2FB0220019094
:100BB0000D20059001A905200007FFF799FB06B05D
:100BC00010BD000040100240704710B50446206878
:100BD000006902210840400800281CD02068C06835
:100BE00008404008002816D0481F216808610120ED
:100BF0002077206880698007800F002803D0204676
:100C0000FFF7E2FF05E0204600F0FEF8204600F086
:100C100031F900202077206800690421084080080D
:100C200000281DD02068C06808408008002817D020
:100C3000C843216808610220207720688069032169
:100C400009020840002803D02046FFF7BDFF05E059
:100C5000204600F0D9F8204600F00CF9002020775B
:100C60002068006908210840C00800281CD02068BE
:100C7000C0680840C008002816D0C8432168086131
:100C8000042020772068C0698007800F002803D0E7
:100C90002046FFF799FF05E0204600F0B5F8204612
:100CA00000F0E8F800202077206800691021084053
:100CB000000900281DD02068C068084000090028ED
:100CC00017D0C84321680861082020772068C069D0
:100CD000032109020840002803D02046FFF774FFD3
:100CE00005E0204600F090F8204600F0C3F8002010
:100CF000207720680069C007C00F012148404840A4
:100D000000280CD02068C0680840484048400028AF
:100D100005D0C81E21680861204600F0ACF82068A4
:100D2000006980210840C00900280BD02068C068F5
:100D30000840C009002805D0C84321680861204642
:100D4000FFF7CEFE20680069402108408009002896
:100D50000BD02068C06808408009002805D0C8432F
:100D600021680861204600F087F82068006920218A
:100D70000840400900280BD02068C068084040099E
:100D8000002805D0C843216808612046FFF7A9FE66
:100D900010BD70B504460E46154600BF3C20005DF0
:100DA000012801D1022070BD01213C20015500BF66
:100DB00002213D200155002D06D0042D09D0082D1B
:100DC0000CD00C2D14D10EE03146206800F022F931
:100DD0000FE03146206800F06BF90AE031462068E8
:100DE00000F0BEF905E03146206800F00FFA00E09F
:100DF00000BF00BF01213D20015500BF00213C2064
:100E0000015500BF0020CEE77047000070B50446D2
:100E10000E4601223146206800F0EAF812492068A7
:100E2000884207D011492068884203D010492068C1
:100E3000884201D1012000E00020002806D020686F
:100E4000406C0121C9030843216848642068806818
:100E500045076D0F062D05D0206800680121084365
:100E600021680860002070BD002C01400044014052
:100E70000048014070477047704700BFFEE7704769
:100E800010B5002819DA1A4A03071B0F083B9B0804
:100E90009B00D2588307DC0EFF23A3409A438B07A5
:100EA0001B0E8407E40EA3401A43114B0407240FC2
:100EB000083CA408A4001A5118E00E4A03231B02A0
:100EC000D21883089B00D2588307DC0EFF23A3406F
:100ED0009A438B071B0E8407E40EA3401A43054B6D
:100EE000032424021B198408A4001A5110BD000019
:100EF0001CED00E000E100E07047704710B5FFF71F
:100F0000E1FA10BD0E484068000C000401214903BD
:100F100040180C498988C904C90C0843084948602D
:100F2000084640680849084006498031898CC9054F
:100F3000C909084302494860C803044988607047EA
:100F400000100240000FFF1FFFFF00FE00ED00E059
:100F500010B50248FFF739FE10BD0000D800002090
:100F600010B502681D4B984202D01D4B984205D126
:100F700070241346A3431A464B681A43174B9842F2
:100F80000BD0174B984208D0164B984205D0164B01
:100F9000984202D0154B984206D1032424021346EE
:100FA000A3431A46CB681A4380241346A3434C69D3
:100FB00023431A4602608B68C3620B688362074B47
:100FC000984205D0084B984202D0084B984201D174
:100FD0000B6903630123436110BD0000002C014035
:100FE000000400400020004000440140004801404F
:100FF00070B5CD06ED0E0124AC402346046A9C4337
:101000000462046ACE06F60E1546B5402C4304620F
:1010100070BD000070B5056A6D086D000562026A5A
:101020004368846970262546B5432C46A408A4006D
:101030000D682C4302261546B5432A468D682A437F
:10104000184DA84200D107E0174DA84200D103E097
:10105000164DA8420AD100BF08261546B5432A46B8
:10106000CD682A4304261546B5432A460D4DA842AD
:1010700005D00D4DA84202D00C4DA8420CD1FF2640
:1010800001361D46B5432B4676001D46B5432B461B
:101090004D692B438D692B43436084614D684563E3
:1010A000026270BD002C0140004401400048014034
:1010B00070B5056A1026B5430562026A4368846903
:1010C000072636032546B5432C4603263602254619
:1010D000B5432C460D682D022C4320261546B543FA
:1010E0002A468D682D012A431A4DA84200D107E0F7
:1010F000194DA84200D100BF184DA8420BD10AE0FB
:1011000080261546B5432A46CD682D012A43402640
:101110001546B5432A460F4DA84205D00E4DA842AC
:1011200002D00E4DA8420ED10126B6021D46B5438F
:101130002B4676001D46B5432B464D69AD002B432B
:101140008D69AD002B43436084614D688563026205
:1011500070BD0000002C01400044014000480140E7
:1011600070B5056AFF260136B5430562026A436819
:10117000C46970262546B5432C46A408A4000D6812
:101180002C43012676021546B5432A468D682D026A
:101190002A431B4DA84200D107E01A4DA84200D1B6
:1011A00000BF194DA8420CD10BE00126F6021546EE
:1011B000B5432A46CD682D022A4376101546B5431D
:1011C0002A460F4DA84205D00E4DA84202D00E4D22
:1011D000A8420ED1012636031D46B5432B467600A4
:1011E0001D46B5432B464D692D012B438D692D01BD
:1011F0002B434360C4614D68C563026270BD00004B
:10120000002C0140004401400048014070B5056ACF
:1012100001263603B5430562046A4368C26907269E
:1012200036031546B5432A46032636021546B5430E
:101230002A460D682D022A43012676032546B5432A
:101240002C468D682D032C430B4DA84205D00B4D29
:10125000A84202D00A4DA84207D10126B6031D4676
:10126000B5432B464D69AD012B434360C2614D68C8
:101270000564046270BD0000002C01400044014080
:101280000048014002E008C8121F08C1002AFAD134
:1012900070477047002001E001C1121F002AFBD1F6
:1012A00070470000FFF71AF9FEF78CFF002108468F
:1012B000FEF7D4FF00BF0020FEF7BCFF0028FAD1E4
:1012C00035483649086027213448C1600020334939
:1012D0004860002131480161816041618161FFF70F
:1012E00001FC002801D0FEF76BFF30202C4908607C
:1012F000002088600861C8608861486109204860F2
:1013000000222648FFF745FD002801D0FEF758FFD0
:1013100013202349486004222048FFF73AFD0028A3
:1013200001D0FEF74DFF1D201D49486008221B48D3
:10133000FFF72FFD002801D0FEF742FF27201849B4
:1013400048600C221548FFF724FD002801D0FEF765
:1013500037FF00211148FFF759FD002801D0FEF7A3
:101360002FFF04210D48FFF751FD002801D0FEF7A3
:1013700027FF08210948FFF749FD002801D0FEF7A3
:101380001FFF0C210548FFF741FD002801D0FEF7A3
:1013900017FF00BFFEE70000002C0140D80000202E
:1013A0001801002000000000000000000000000004
:1013B000000000000000000000000000000000002D
:1013C0000000000001000000020000000300000017
:1013D00004000000060000000700000008000000F4
:1013E00009000000000000000000000000000000F4
:1013F00000000000010000000200000003000000E7
:101400000400000000093D0000127A000024F400EE
:101410004086510100366E0100093D0000093D0083
:1014200000093D00200000100700000000093D00F9
:1014300000127A000024F4004086510100366E014B
:101440006014000800000020D8000000841200088A
:1014500038150008D800002060040000941200082D
:10146000000000000000000000000000000000007C
:10147000000000000000000000000000000000006C
:10148000000000000000000000000000000000005C
:10149000000000000000000000000000000000004C
:1014A000000000000000000000000000000000003C
:1014B000000000000000000000000000000000002C
:1014C000000000000000000000000000000000001C
:1014D000000000000000000000000000000000000C
:1014E00000000000000000000000000000000000FC
:1014F00000000000000000000000000000000000EC
:1015000000000000000000000000000000000000DB
:1015100000000000000000000000000000000000CB
:1015200000127A000004005000000050000000008B
:081530000400000001000000AE
:04000005080000C12E
:00000001FF
