:020000040800F2
:1000000070050020D90000087B0E0008770E00085C
:1000100000000000000000000000000000000000E0
:10002000000000000000000000000000F70E0008C3
:100030000000000000000000F50E0008F90E0008A6
:10004000EB000008EB000008EB000008EB000008E4
:10005000EB000008EB000008EB000008EB000008D4
:1000600000000000EB000008EB00000800000000AA
:10007000EB000008EB000008EB00000800000000A7
:10008000EB000008EB00000800000000EB00000897
:1000900000000000EB000008EB000008EB00000887
:1000A00000000000EB00000800000000EB0000086A
:1000B000EB0000080000000000000000000000004D
:1000C0000448854600F02CF8004800474501000828
:1000D000C046C046700500200448804704480047D9
:1000E000FEE7FEE7FEE7FEE7FEE7FEE7010F00089A
:1000F000C100000830B50B46014600202022012433
:1001000009E00D46D5409D4205D31D469540491B4B
:100110002546954040191546521E002DF1DC30BD94
:10012000064C0125064E05E0E36807CC2B430C3C4A
:1001300098471034B442F7D3FFF7C6FF2C140008D9
:100140004C14000870B50125ED06002406E0A0005F
:100150002858A100064A5050601CC4B2302CF6DB6F
:10016000012040070349886001F0ECF8002070BDD1
:100170000000002000ED00E038B5044600200090AB
:1001800020688068C007C00F01214840484000280F
:1001900027D12068806814490840002801D1012037
:1001A00000E00020002809D1A06B10210843A063C3
:1001B000E06B01210843E063012038BD20688068BE
:1001C0000121084321688860084909480068FFF751
:1001D00091FF009002E00098401E009000980028D7
:1001E000F9D10020E9E700001500008040420F002F
:1001F000C000002070B50B46002115E08A0084582D
:100200000D464A1C07E096008659A64202DA96007F
:1002100084591546521C9A42F5DB8A008258AE007A
:1002200082518A008450491C9942E7DB70BD00006E
:100230001FB500200190029003902D48006B012112
:10024000090508432A4908630846006B012109058E
:1002500088432749086300BF2548403000680121D2
:100260000905084322494031086008460068012119
:1002700009050840009000BF00BF1E481E490860E5
:10028000084600F00BF9002801D000F037F81948B3
:1002900019490860C0044860002117488160C160A6
:1002A0000121016104214161012101760021417692
:1002B0008176FF21C231C1610021016224300170C9
:1002C000243881620721C16200F0E4F9002801D0DE
:1002D00000F014F80C20019001200003029001A905
:1002E000054800F00DF9002801D000F007F81FBD07
:1002F0000010024000240140E000002000BFFEE7A3
:1003000000B587B000BF002001903148C06B0121CB
:10031000490408432E49C8630846C06B01214904BB
:100320000840019000BF00BF2A482B490860E12027
:1003300040024860002128488160C16001618161FC
:100340000C2141610021C161002023490862084657
:1003500000F0CCFC00BF1E48406B012108431C4943
:1003600048630846406BC007C00F019000BF00BF44
:1003700000BF0846406B0121084315494863084601
:10038000406BC007C00F019000BF00BF0420029067
:100390000220039001200490032005900420069081
:1003A00002A90520000700F029FB08200290042084
:1003B000069002A90520000700F020FB0122002181
:1003C0001C2000F053FC1C2000F044FC07B000BDD2
:1003D000001002400044004020010020F8B504460F
:1003E00000250026002700BF3420005D012801D130
:1003F0000220F8BD01213420015500BF206880682B
:1004000008404840484000283CD1A06B090288437E
:1004100002210843A0632068C0688707BF0F2068D7
:10042000C068800880002168C86020688068012159
:10043000C90708432168886000F0BAFB064611E04E
:1004400000F0B6FB801B02280CD9A06B0221884368
:1004500010210843A06300BF00213420015500BFD4
:100460000120C6E720688068C00FC0070028E7D1D8
:100470002068C06838432168C860A06B02218843A7
:10048000A06304E0A06B20210843A063012500BF06
:1004900000213420015500BF2846AAE730B58BB0B3
:1004A0000546002414E02846FFF798FF002802D0F4
:1004B00001200BB030BD11488068A10006AA505041
:1004C000A00006A908584002A10001AA5050641CCF
:1004D000052CE8DB052101A8FFF78CFE03984012EC
:1004E000064908610846C06848610846406801211D
:1004F000C9030843014948600020DAE7402401406D
:10050000F8B504460D460026002000900121090799
:10051000E06A884215D0E06A012812D0E06A022819
:100520000FD0E06A03280CD0E06A042809D0E06A02
:10053000052806D0E06A062803D0E06A072800D024
:1005400000BF00BF3420005D012801D10220F8BDAA
:1005500001213420015500BF206880680421084033
:10056000800800287DD14549686888425CD02068B1
:10057000806A2A780121914008432168886201211C
:100580000907E06A884229D0E06A012826D0E06A9B
:10059000022823D0E06A032820D0E06A04281DD076
:1005A000E06A05281AD0E06A062817D0E06A072812
:1005B00014D0A868216849694907490F88420DD0BD
:1005C00020684069C008C00021684861206840690F
:1005D000297A4907490F08432168486128680B2890
:1005E00002D028680C2841D12548806829680B2949
:1005F00002D10121C90501E00121890508432049F3
:10060000886028680B2831D11E491F480068FFF711
:1006100071FD0A214843009002E00098401E0090BE
:1006200000980028F9D121E02068806A2A78012109
:10063000914088432168886228680B2802D0286886
:100640000C2813D10E48806829680B2903D1012199
:10065000C90502E005E00121890588430849886051
:1006600004E0A06B20210843A063012600BF002105
:100670003420015500BF304669E70000011000003A
:100680000027014040420F00C000002001460868DA
:10069000006C704770B5044600260025002C01D17F
:1006A000012070BDA06B002806D1E063002134203A
:1006B0000155204600F0BEF8A06B1021084000282C
:1006C0007ED1002EFCD1206880680421084080087B
:1006D0000028F5D1A06B8901884302210843A0635B
:1006E00020688068C007C00F0121484048400028AA
:1006F0000FD12068C06818218843A1680843216889
:10070000C860206800690001000961680843216829
:1007100008612068C068454908402168C860207E9B
:100720008003617E49030843A16A012902D00121A7
:10073000090300E000210843E16808432169022918
:1007400001D1042100E0002108432421095D490072
:1007500008430543A07E01280ED1607E002803D106
:1007600001200004054307E0A06B20210843A0639B
:10077000E06B01210843E063FF21C231E069884258
:1007800003D0216AE069084305432068C068284314
:100790002168C86001210907E06A884216D0E06A32
:1007A000012813D0E06A022810D0E06A03280DD097
:1007B000E06A04280AD0E06A052807D0E06A00E071
:1007C0002DE0062802D0E06A07280DD12068406994
:1007D000C008C0002168486120684069A18D4907B0
:1007E000490F0843216848612068C06810490840E3
:1007F000A84208D10020E063A06B022188430121B8
:100800000843A06310E0A06B022188431021084335
:10081000A063E06B01210843E063012604E0A06BC4
:1008200010210843A063012630463AE719C2FEFFB3
:10083000E7FF3FC308B500BF0F49496B01221143D1
:100840000D4A51631146496BC907C90F009100BF9A
:1008500000BF00BF08494031096801221205114359
:10086000054A403211601146096801221205114003
:10087000009100BF00BF08BD00100240F8B504465B
:100880000D466069082801D1082711E02068C0687A
:10089000C007C00F00280AD0A06B20210843A06326
:1008A00000BF00213420015500BF0120F8BD0C27F6
:1008B00000F07EF9064614E0681C002811D0002DD7
:1008C00004D000F075F9801BA8420AD9A06B04215E
:1008D0000843A06300BF00213420015500BF03205E
:1008E000E4E72068006838400028E5D0A06B0121CB
:1008F00049020843A0632068C068032189020840B8
:10090000002825D1607E002822D1206800680821B7
:10091000084008281CD1206880680421084080080D
:1009200000280DD1206840680C2188432168486068
:10093000A06BFF210131884301210843A06307E038
:10094000A06B20210843A063E06B01210843E06312
:10095000207E002802D10C20216808600020A5E735
:1009600070B504460025206880680421084080088E
:10097000002828D100BF3420005D012801D10220C9
:1009800070BD01213420015500BF2046FFF7F4FB64
:100990000546002D18D1A06B0C490840FF210131FC
:1009A0000843A0630020E06300BF0021342001550C
:1009B00000BF1C202168086020688068042108436B
:1009C0002168886000E002252846D9E7FEF1FFFF94
:1009D00070B5044600F0ECF806462546681C002871
:1009E00002D0054800682D1800BF00F0E1F8801B18
:1009F000A842FAD370BD0000D800002070B50346AD
:100A00000022CBE0012696400C683440002C71D0C7
:100A10004D68022D02D04D68122D15D1D508AE00BB
:100A20001D462035A8595507EE0E0F25B540064640
:100A3000AE4330465607F60E0D69B5402843D5083B
:100A4000AD001E4620367051186856000325B5408B
:100A50000646AE4330460D79AD07AD0F5600B540A2
:100A6000284318604D68012D08D04D68022D05D02F
:100A70004D68112D02D04D68122D18D1986856007E
:100A80000325B5400646AE4330465600CD68B54016
:100A9000284398605868012595400646AE43304685
:100AA00010264D6835402D09954028435860D86878
:100AB00056000325B5400646AE43304656008D68C5
:100AC000B5402843D860012636074D683540B54209
:100AD00063D1354D9608B600A8599507EE0E0F253F
:100AE000B5400646AE43304605252D07AB4202D140
:100AF000002506E051E02D4DAB4201D1012500E07B
:100B000002259607F60EB5402843274D9608B600F5
:100B1000A851254D203528680546A54328460126BD
:100B200036044D683540B54202D105462543284676
:100B30001D4D2035286068680546A54328460126D6
:100B400076044D683540B54202D105462543284616
:100B5000154D20356860144D603D28680546A54355
:100B60002846012636054D683540B54202D1054676
:100B7000254328460C4D603D286068680546A5431E
:100B80002846012676054D683540B54202D1054616
:100B900025432846044D603D6860521C0D68D540D1
:100BA000002D00D02EE770BD6018024000040050F8
:100BB0000148006870470000D0000020034800682A
:100BC000034909684018014908607047D0000020B7
:100BD000D800002010B50024032000F009F80028F8
:100BE00001D0012401E000F033F8204610BD0000E0
:100BF000F8B5044600251348006800281ED01148A7
:100C000001687D20C000FFF775FA074639460E4897
:100C10000068FFF76FFA064600F04CF800280BD189
:100C2000042C07D200222146401E00F01FF807487E
:100C3000046004E0012502E0012500E001252846CA
:100C4000F8BD0000D8000020C0000020D400002023
:100C50007047000000BFC206D20E01219140024A37
:100C6000116000BF7047000000E100E070B504466D
:100C70000D4616462946204600F000F970BD0000DA
:100C80000148006870470000C000002000B5FFF771
:100C9000F7FF06498968072212031140090B8900F2
:100CA000034A515CC906C90EC84000BD001002408D
:100CB000EC13000870B504462546681E09498842B1
:100CC00001D901200CE0681E074948610321081F73
:100CD00000F0D4F800200449886107200861002052
:100CE00070BD0000FFFFFF0000E000E010B504460B
:100CF000002C01D1012010BDA069002800D000E027
:100D000000BF4520005D002805D100214420015589
:100D1000204600F030F82421452001552068C068A5
:100D20000121490388432168C860204600F02AF960
:100D3000206A002802D0204600F008F920680069E7
:100D40000121C9028843216808612068406908219F
:100D50008843216848612068C0680121490308432D
:100D60002168C8600020A06420214520015546204C
:100D700001550020BFE77047FFB583B004460D461C
:100D80001746002001904520005D202871D1002DDC
:100D900001D0002F02D1012007B0F0BD01210903CD
:100DA000A068884208D12069002805D1E807C00F53
:100DB000002801D00120EFE700BF4420005D01289A
:100DC00001D10220E8E701214420015500BF0020A5
:100DD000A064212145200155FFF7EAFE01902786F6
:100DE000678601210903A068884205D1206900288F
:100DF00002D10026029502E02E46002002901EE05D
:100E000006980090002280212046019B00F08CF97A
:100E1000002801D00320BFE7002E09D102980088E6
:100E2000C005C00D216848600298801C029003E054
:100E3000307821684860761C608E401E6086608E27
:100E40000028DDD106980090002240212046019B19
:100E500000F06AF9002801D003209DE720214520F9
:100E6000015500BF00214420015500BF002093E739
:100E7000FFE7022090E700BFFEE7704710B50028AB
:100E800019DA1A4A03071B0F083B9B089B00D2582C
:100E90008307DC0EFF23A3409A438B071B0E8407B6
:100EA000E40EA3401A43114B0407240F083CA40886
:100EB000A4001A5118E00E4A03231B02D21883081B
:100EC0009B00D2588307DC0EFF23A3409A438B0775
:100ED0001B0E8407E40EA3401A43054B032424028F
:100EE0001B198408A4001A5110BD00001CED00E07D
:100EF00000E100E07047704710B5FFF75FFE10BDDE
:100F00000E484068000C00040121490340180C49B8
:100F10008988C904C90C08430849486008464068E4
:100F20000849084006498031898CC905C909084328
:100F300002494860C80304498860704700100240B5
:100F4000000FFF1FFFFF00FE00ED00E04022016ADE
:100F50001140002915D00168496992019143426A04
:100F600011430268516101221203416A914208D182
:100F700001684969032252039143826A114302685E
:100F800051617047FEB5044620680069012149039C
:100F90008843E1680843216808612169A068084323
:100FA0006169084302902068C0685E490840029960
:100FB00008432168C860E069029020684069012107
:100FC000C902884302990843216848612068406942
:100FD000032109028843A16908432168486101216E
:100FE000C902E06988424ED1FFF750FE05466268AB
:100FF000510019226A431046FFF77CF80646642127
:10100000FFF778F807016268510019226A43104619
:10101000FFF770F806466268510019226A431046CD
:10102000FFF768F864210090FFF764F864214843F3
:10103000301AC00032300190FFF75CF8F821084008
:1010400040003F186268510019226A431046FFF7BA
:1010500051F806466268510019226A431046FFF7AC
:1010600049F864210090FFF745F864214843301A9D
:10107000C00032300190FFF73DF84007400F3818AC
:10108000216888604CE0FFF701FE05466268910028
:1010900019226A431046FFF72DF806466421FFF730
:1010A00029F807016268910019226A431046FFF788
:1010B00021F806466268910019226A431046FFF73C
:1010C00019F864210090FFF715F864214843301A9D
:1010D000000132300190FFF70DF8F02108403F1871
:1010E0006268910019226A431046FFF703F806462A
:1010F0006268910019226A431046FEF7FBFF6421E3
:101100000090FEF7F7FF64214843301A00013230A7
:101110000190FEF7EFFF0007000F38182168886084
:10112000FEBD0000F3E9FFFFFFB581B004460D46A8
:1011300017460A9E24E0701C002821D0002E05D0FE
:10114000FFF736FD0499401AB04219D92068C068EB
:10115000FF21A13188432168C860206840694008A8
:101160004000216848612021452001554620015555
:1011700000BF00214420015500BF032005B0F0BD91
:10118000206800682840A84201D1012000E000202A
:10119000B842D0D00020F1E70FB410B503A9044B3A
:1011A000044A029800F018F810BC08BC04B01847B4
:1011B00029130008DC00002002E008C8121F08C143
:1011C000002AFAD170477047002001E001C1121FC8
:1011D000002AFBD170470000FFB58DB00446002502
:1011E00006E025280AD0109A0F999047641C6D1CC0
:1011F00020780028F5D1284611B0F0BD0027012144
:10120000484A009700E00743641C23780846203BC7
:1012100098401042F7D120782E2817D10420074398
:101220006078641C2A280CD10E98641C02C80091B6
:101230000E900BE000990A22514330394018641C8B
:1012400000902078014630390929F3D92078002808
:10125000D1D0642808D0692806D075281ED0109AED
:101260000F9990476D1C5BE00A200E99019001C90F
:101270000E91002802DA40422D2102E0390504D502
:101280002B216A461172012103E0F90704D02021C5
:10129000F7E70BAE0B910DE00021FAE70A200E995B
:1012A000019001C90E91F7E70199FEF723FF303154
:1012B000761E31700028F7D103A8801B20300190E2
:1012C000780701D5009801E001200090019988423B
:1012D00001DD401A00E000200027009006E002A88F
:1012E000109AC05D0F9990476D1C7F1C0B98874228
:1012F000F5DB04E0109A30200F9990476D1C00999F
:10130000481E00900029F5DC05E03078109A761C24
:101310000F9990476D1C0199481E01900029F4DC3B
:10132000641C65E70928010013B50C467D23DB002A
:10133000012269460248FFF71FFD00981CBD00000E
:1013400020010020FFF746FCFEF7DAFFFEF770FFF2
:101350001BE00E48FFF704FB0D490C48FFF78EFA1F
:101360000A48FFF793F90B490860084601680A48E4
:10137000FEF7C0FE094908800846018808A0FFF76B
:101380000BFF7D20C000FFF723FBE2E7E000002019
:1013900040420F00C800002050FB4A00CC00002053
:1013A0005643433A2564206D560D0A0000000000A4
:1013B000000000000000000000000000000000002D
:1013C000000000000000000000000000010000001C
:1013D00002000000030000000400000006000000FE
:1013E00007000000080000000900000000000000E5
:1013F00000000000000000000000000001000000EC
:1014000002000000030000000400000000093D008D
:1014100000127A000024F4004086510100366E016B
:1014200000093D0000093D0000093D004C14000882
:1014300000000020E0000000B81100082C15000892
:10144000E000002090040000C81100080000000027
:10145000000000000000000000000000000000008C
:10146000000000000000000000000000000000007C
:10147000000000000000000000000000000000006C
:10148000000000000000000000000000000000005C
:10149000000000000000000000000000000000004C
:1014A000000000000000000000000000000000003C
:1014B000000000000000000000000000000000002C
:1014C000000000000000000000000000000000001C
:1014D000000000000000000000000000000000000C
:1014E00000000000000000000000000000000000FC
:1014F00000000000000000000000000000000000EC
:1015000000000000000000000000000000127A004F
:1015100000000000000000000000000000000000CB
:0C152000040000000100000000000000BA
:04000005080000C12E
:00000001FF
