:020000040800F2
:10000000E8040020D9000008450500084105000863
:1000100000000000000000000000000000000000E0
:10002000000000000000000000000000C305000800
:100030000000000000000000C1050008C505000820
:10004000EB000008EB000008EB000008EB000008E4
:10005000EB000008EB000008EB000008EB000008D4
:1000600000000000EB000008EB00000800000000AA
:10007000EB000008EB000008EB00000800000000A7
:10008000EB000008EB00000800000000EB00000897
:1000900000000000EB000008EB000008EB00000887
:1000A00000000000EB00000800000000EB0000086A
:1000B000EB0000080000000000000000000000004D
:1000C0000448854600F02CF8004800474501000828
:1000D000C046C046E8040020044880470448004762
:1000E000FEE7FEE7FEE7FEE7FEE7FEE7CD050008D8
:1000F000C100000830B50B46014600202022012433
:1001000009E00D46D5409D4205D31D469540491B4B
:100110002546954040191546521E002DF1DC30BD94
:10012000064C0125064E05E0E36807CC2B430C3C4A
:1001300098471034B442F7D3FFF7C6FF60080008B1
:100140008008000870B50125ED06002406E0A00037
:100150002858A100064A5050601CC4B2302CF6DB6F
:10016000012040070349886000F066FA002070BD56
:100170000000002000ED00E000BFFEE710B586B0F3
:10018000044600BF00BF1448406B022108431249D7
:1001900048630846406B02210840009000BF00BF42
:1001A00000BF60000D49085A019001200290002014
:1001B000039002200490A100094A505801A900F0C0
:1001C0006BF86200054B995AA200054B9858012222
:1001D00000F03CF906B010BD0010024058080008BD
:1001E000D400002010B504466200044B995AA200C6
:1001F000034B9858012200F029F910BD5808000857
:10020000D400002010B504466200044B995AA200A5
:10021000034B9858002200F019F910BD5808000847
:10022000D400002070B503460C46002002255D7105
:10023000002104E08D0065591E683560491C91421B
:10024000F8D31D68286801255D7170BD10B504469E
:10025000002C01D1012010BD6079002803D120714C
:10026000204600F005F8012060710020F3E700004F
:1002700008B500BF0749896B012212031143054AE3
:1002800091631146896B92141140009100BF00BF29
:1002900008BD00000010024070B503460022CBE00C
:1002A000012696400C683440002C71D04D68022D18
:1002B00002D04D68122D15D1D508AE001D4620354F
:1002C000A8595507EE0E0F25B5400646AE433046F9
:1002D0005607F60E0D69B5402843D508AD001E46F9
:1002E00020367051186856000325B5400646AE43C7
:1002F00030460D79AD07AD0F5600B5402843186064
:100300004D68012D08D04D68022D05D04D68112D86
:1003100002D04D68122D18D1986856000325B540BB
:100320000646AE4330465600CD68B5402843986037
:100330005868012595400646AE43304610264D6864
:1003400035402D09954028435860D868560003254C
:10035000B5400646AE43304656008D68B54028434A
:10036000D860012636074D683540B54263D1354D1A
:100370009608B600A8599507EE0E0F25B54006461B
:10038000AE43304605252D07AB4202D1002506E0DD
:1003900051E02D4DAB4201D1012500E00225960729
:1003A000F60EB5402843274D9608B600A851254DB6
:1003B000203528680546A5432846012636044D68A1
:1003C0003540B54202D10546254328461D4D20350E
:1003D000286068680546A5432846012676044D68CE
:1003E0003540B54202D1054625432846154D2035F6
:1003F0006860144D603D28680546A54328460126DF
:1004000036054D683540B54202D10546254328469C
:100410000C4D603D286068680546A54328460126C6
:1004200076054D683540B54202D10546254328463C
:10043000044D603D6860521C0D68D540002D00D011
:100440002EE770BD6018024000040050002A01D061
:10045000816100E0816270470348006803490968D0
:100460004018014908607047DC000020E4000020CB
:1004700010B50024032000F009F8002801D0012461
:1004800001E000F033F8204610BD0000F8B5044646
:1004900000251348006800281ED0114801687D20FF
:1004A000C000FFF727FE074639460E480068FFF7F1
:1004B00021FE064600F028F800280BD1042C07D2B4
:1004C00000222146401E00F016F80748046004E0B0
:1004D000012502E0012500E001252846F8BD0000C5
:1004E000E4000020C0000020E000002010B5002043
:1004F000FFF744FE10BD70B504460D46164629466A
:10050000204600F021F870BD70B504462546681EEF
:100510000949884201D901200CE0681E0749486159
:100520000321081F00F010F800200449886107200B
:100530000861002070BD0000FFFFFF0000E000E048
:1005400000BFFEE77047000010B5002819DA1A4A0C
:1005500003071B0F083B9B089B00D2588307DC0E48
:10056000FF23A3409A438B071B0E8407E40EA3408E
:100570001A43114B0407240F083CA408A4001A5185
:1005800018E00E4A03231B02D21883089B00D2589E
:100590008307DC0EFF23A3409A438B071B0E8407BF
:1005A000E40EA3401A43054B032424021B198408BC
:1005B000A4001A5110BD00001CED00E000E100E0B5
:1005C0007047704710B5FFF747FF10BD0E484068F1
:1005D000000C00040121490340180C498988C90412
:1005E000C90C084308494860084640680849084063
:1005F00006498031898CC905C90908430249486008
:10060000C80304498860704700100240000FFF1FB4
:10061000FFFF00FE00ED00E002E008C8121F08C165
:10062000002AFAD170477047002001E001C1121F73
:10063000002AFBD170470000FFF71AFF0F4810494E
:1006400008600846FFF702FE002801D0FFF794FD7E
:1006500072220C490A48FFF7E5FD0B49086008467D
:1006600000680A490968884203D00020FFF7BAFDF4
:1006700002E00020FFF7C6FD00BFFEE700300240A9
:10068000C400002090060008CC000020D00000200C
:100690002110000063304220A5508440E770C660FE
:1006A0004AA129918CC16BB1CEE1ADD13112EFF1EC
:1006B000522273329442B552D662F772188339933C
:1006C000BDD35AA3FFF39CC36224DEE3200443346A
:1006D000C774E6648554A4444BB56AA5099528857A
:1006E000ACC5CFF553368DD511167226D7763006A8
:1006F000B44695567AA75BB738871997FEE7DFF7B8
:10070000C448BCC78668E5584008A7780228611825
:10071000EDD9CCC9AFF98EE9699948892BB90AA9F5
:10072000B77AD44A711A966A333A500AFDDB122A14
:100730009EEBBFFB588B799B1AAB3BBB877CA66CAF
:10074000222CC55C600C033CAEED411CECCD8FFD52
:100750000BBD2AAD499D688DB66E977EF44ED55E71
:10076000511E322E9FFF700EDDDFBEEF1BBFFCCF90
:10077000788F599FA9818891EBA1CAB12DC10CD165
:1007800080106FE1C230A1000450E3204670254084
:100790009893B983DAB3FBA31CD33DC35EF37FE325
:1007A000F32290123542D23277621452EAB5567271
:1007B0008985A8954FE56EF50DC52CD5C324E23487
:1007C0006674810424544764DBA705449987FAB70B
:1007D0007EF75FE73CD71DC7F236D326B0169106E9
:1007E000154676764CD934560EF96DC9C8992FE95D
:1007F000ABA98AB96548445827680678E108C0184B
:100800007DCBA3283FEB5CDBF98B1EFBBBABD89BFE
:10081000545A754A167A376AD01AF10A923AB32AAC
:100820006CDD0FEDAABD4DCDE89D8BAD267CC98D4D
:10083000454C645C832CA23CC10CE01C3EFF1FEFC6
:100840009BAF7CDFD98FBABF176EF89F554E367EAF
:10085000B23E932EF01ED10E2000001007000000C3
:100860008008000800000020E800000018060008CA
:1008700068090008E80000200004000028060008BD
:100880000000000000000000000000000000000068
:100890000000000000000000000000000000000058
:1008A0000000000000000000000000000000000048
:1008B0000000000000000000000000000000000038
:1008C0000000000000000000000000000000000028
:1008D0000000000000000000000000000000000018
:1008E0000000000000000000000000000000000008
:1008F00000000000000000000000000000000000F8
:1009000000000000000000000000000000000000E7
:1009100000000000000000000000000000000000D7
:1009200000000000000000000000000000000000C7
:1009300000000000000000000000000000000000B7
:1009400000127A000000000000000000000000001B
:10095000069F9E3700040050000000500000000079
:0809600004000000010000008A
:04000005080000C12E
:00000001FF
