:020000040800F2
:10000000D0040020D9000008350A0008310A000891
:1000100000000000000000000000000000000000E0
:10002000000000000000000000000000B30A00080B
:100030000000000000000000B10A0008B50A000836
:10004000EB000008EB000008EB000008EB000008E4
:10005000EB000008EB000008EB000008EB000008D4
:1000600000000000EB000008EB00000800000000AA
:10007000EB000008EB000008EB00000800000000A7
:10008000EB000008EB00000800000000EB00000897
:1000900000000000EB000008EB000008EB00000887
:1000A00000000000EB00000800000000EB0000086A
:1000B000EB0000080000000000000000000000004D
:1000C0000448854600F050F8004800478D010008BC
:1000D000C046C046D004002004488047044800477A
:1000E000FEE7FEE7FEE7FEE7FEE7FEE7BD0A0008E3
:1000F000C100000830B50B46014600202022012433
:1001000009E00D46D5409D4205D31D469540491B4B
:100110002546954040191546521E002DF1DC30BD94
:1001200003460B439B0703D009E008C9121F08C010
:10013000042AFAD203E00B780370401C491C521EBB
:10014000F9D27047D2B201E00270401C491EFBD2C6
:1001500070470022F6E710B513460A4604461946D2
:10016000FFF7F0FF204610BD064C0125064E05E0C6
:10017000E36807CC2B430C3C98471034B442F7D3C8
:10018000FFF7A2FFA00C0008C00C000870B5012505
:10019000ED06002406E0A0002858A100064A5050B1
:1001A000601CC4B2302CF6DB012040070349886094
:1001B00000F0BAFC002070BD0000002000ED00E05F
:1001C00000BFFEE700B587B0142102A8FFF7C1FF0A
:1001D00000BF0D48406B022108430B4948630846A5
:1001E000406B02210840019000BF00BF2020029018
:1001F0000120039004900320059002A9034800F019
:1002000037F807B000BD00000010024000040050A5
:1002100000B58BB0182105A8FFF79BFF00200190C7
:1002200002900390049002200590C00108900F48AE
:10023000008AC004C00C0121C9030843099005A825
:1002400000F050FA002801D0FFF7BAFF0720019014
:100250000020029003900490002101A800F03CF9D6
:10026000002801D0FFF7ACFF0BB000BD000FFF1F4F
:1002700070B503460022CBE0012696400C6834405E
:10028000002C71D04D68022D02D04D68122D15D171
:10029000D508AE001D462035A8595507EE0E0F258E
:1002A000B5400646AE4330465607F60E0D69B540DA
:1002B0002843D508AD001E462036705118685600F8
:1002C0000325B5400646AE4330460D79AD07AD0F68
:1002D0005600B540284318604D68012D08D04D6880
:1002E000022D05D04D68112D02D04D68122D18D168
:1002F000986856000325B5400646AE433046560082
:10030000CD68B54028439860586801259540064659
:10031000AE43304610264D6835402D0995402843A0
:100320005860D86856000325B5400646AE433046AF
:1003300056008D68B5402843D860012636074D68C1
:100340003540B54263D1354D9608B600A85995079A
:10035000EE0E0F25B5400646AE43304605252D0767
:10036000AB4202D1002506E051E02D4DAB4201D158
:10037000012500E002259607F60EB5402843274DDB
:100380009608B600A851254D203528680546A54396
:100390002846012636044D683540B54202D105464F
:1003A000254328461D4D2035286068680546A5432D
:1003B0002846012676044D683540B54202D10546EF
:1003C00025432846154D20356860144D603D28684A
:1003D0000546A5432846012636054D683540B542F9
:1003E00002D10546254328460C4D603D28606868CB
:1003F0000546A5432846012676054D683540B54299
:1004000002D1054625432846044D603D6860521CD4
:100410000D68D540002D00D02EE770BD6018024059
:10042000000400500148006870470000C40000202C
:10043000034800680349096840180149086070478B
:10044000C4000020CC00002010B50024032000F0E0
:1004500009F8002801D0012401E000F033F820461B
:1004600010BD0000F8B504460025134800680028B8
:100470001ED0114801687D20C000FFF73BFE0746F3
:1004800039460E480068FFF735FE064600F0B4FA1C
:1004900000280BD1042C07D200222146401E00F078
:1004A00012F80748046004E0012502E0012500E09D
:1004B00001252846F8BD0000CC000020C000002027
:1004C000C8000020704770B504460D461646294600
:1004D000204600F0B1FA70BD70B504460D46002C00
:1004E00001D1012070BD5F480068C007C00FA8425D
:1004F00018D25C4800684008400028435949086009
:10050000FFF790FF064607E0FFF78CFF801B564978
:10051000884201D90320E5E752480068C007C00FB0
:10052000A842F1D1022120680840022815D10421F7
:1005300020680840042807D14C4880680721090337
:100540008843401849498860484880680F2109025B
:100550008843A1680843454988602078C007C00FD8
:1005600000283CD06068012808D14048006801217B
:1005700049040840002816D10120B3E7606800282C
:1005800008D13A48006801218902084000280AD1B0
:100590000120A7E735484030006A022108400028C2
:1005A00001D101209EE731488068C008C000616821
:1005B00008432E498860FFF735FF064607E0FFF73E
:1005C00031FF801B2849884201D903208AE7274848
:1005D0008068382108406168C9008842EFD121480D
:1005E0000068C007C00FA84218D91E48006840081C
:1005F000400028431B490860FFF714FF064607E048
:10060000FFF710FF801B1849884201D9032069E7D2
:1006100014480068C007C00FA842F1D10421206827
:100620000840042808D1114880680721090388433D
:10063000E16808430D49886000F020F80B4989689B
:100640000F2212021140090A8900094A515CC906A9
:10065000C90EC8400749086007480068FFF702FF55
:1006600040E7000000200240881300000010024014
:100670000C0C0008C0000020C800002030B585B078
:10068000142215496846FFF74BFD1448806838214D
:10069000084000280BD11148406889020840450BEA
:1006A000042D00D90025A80069460C5811E00B481C
:1006B000806838210840082801D1094C09E0074822
:1006C000806838210840182802D10124E40300E0A2
:1006D0000024204605B030BD8C0C000800100240FC
:1006E00000366E0170B50446002C01D1012070BDAA
:1006F0002078C007C00F002878D0BB488668382112
:100700000E40082E09D10068B10308400028F3D03C
:10071000606800286AD10120E9E7606800282FD0CE
:10072000A06800282AD000BFAF4800680121090452
:100730008843AD4908600846006801218904884360
:10074000A949086000BFFFF76DFE054606E0FFF708
:1007500069FE401BC82801D90320C8E7A2480068E9
:100760000121490408400128F1D09F4800690C216B
:100770008843A16808439C49086101E00120B6E76D
:1007800000BF012109046068884205D196480068CD
:1007900008439549086021E0052109046068884202
:1007A0000ED1914800680121890408438E490860F0
:1007B000084600680121090408438B4908600DE0E0
:1007C0008948006801210904884387490860084670
:1007D00000680121890488438349086000BF60687C
:1007E000002813D0FFF71EFE054607E020E0FFF7C4
:1007F00019FE401BC82801D9032078E77A48006811
:100800000121490408400028F1D011E0FFF70AFE59
:10081000054606E0FFF706FE401BC82801D9032065
:1008200065E7714800680121490408400028F1D1BA
:1008300002212068084002286AD16B48806838216C
:1008400008400646002E3FD1674800680121890212
:100850000840002804D0E068002801D1012046E7C4
:1008600061484068000C0004216908435E49486003
:10087000FFF7D8FD054606E0FFF7D4FD401B022830
:1008800001D9032033E75848006801218902084054
:100890000028F1D0002E0FD1FFF7F0FE52498968F1
:1008A0000F2212021140090A8900504A515CC90600
:1008B000C90EC8404E4908604E480068FFF7D2FD97
:1008C00000283FD0012012E7E068002821D04648E8
:1008D0000068FF210131084343490860FFF7A2FD8A
:1008E000054606E0FFF79EFD401B022801D90320C4
:1008F000FDE63D4800680121890208400028F1D04A
:1009000039484068000C00042169084336494860B2
:1009100018E035480068FF210131884332490860FA
:10092000FFF780FD054606E0FFF77CFD401B02282F
:1009300001D90320DBE62C48006801218902084028
:100940000028F1D1082120680840082849D126480C
:1009500080683821084018280BD123484030006AAD
:100960000221084000283CD06069002839D10120CC
:10097000BDE6606900281AD01B484030006A01219A
:100980000843194940310862FFF74CFD054606E06F
:10099000FFF748FD401B022801D90320A7E61248B3
:1009A0004030006A022108400028F1D019E00E48CA
:1009B0004030006A400840000B4940310862FFF7B0
:1009C00031FD054606E0FFF72DFD401B022801D949
:1009D00003208CE604484030006A022108400028C9
:1009E000F1D1002083E60000001002400C0C00084A
:1009F000C0000020C800002070B504462546681ECF
:100A00000949884201D901200CE0681E0749486164
:100A10000321081F00F010F8002004498861072016
:100A20000861002070BD0000FFFFFF0000E000E053
:100A300000BFFEE77047000010B5002819DA1A4A17
:100A400003071B0F083B9B089B00D2588307DC0E53
:100A5000FF23A3409A438B071B0E8407E40EA34099
:100A60001A43114B0407240F083CA408A4001A5190
:100A700018E00E4A03231B02D21883089B00D258A9
:100A80008307DC0EFF23A3409A438B071B0E8407CA
:100A9000E40EA3401A43054B032424021B198408C7
:100AA000A4001A5110BD00001CED00E000E100E0C0
:100AB0007047704710B5FFF7BBFC10BD0E4840688B
:100AC000000C00040121490340180C498988C9041D
:100AD000C90C08430849486008464068084908406E
:100AE00006498031898CC905C90908430249486013
:100AF000C80304498860704700100240000FFF1FC0
:100B0000FFFF00FE00ED00E002E008C8121F08C170
:100B1000002AFAD170477047002001E001C1121F7E
:100B2000002AFBD17047000020252C04FFF78CFC25
:100B3000FFF748FBFFF76CFB64E033488561846195
:100B40008561846185618461856184618561846179
:100B50008561846185618461856184618561846169
:100B60008561846185618461856184618561846159
:100B70008561846185618461856184618561846149
:100B80008561846185618461856184618561846139
:100B90008561846185618461856184618561846129
:100BA0008561846185618461856184618561846119
:100BB0008561846185618461856184618561846109
:100BC00085618461856184618561846185618461F9
:100BD00085618461856184618561846185618461E9
:100BE00085618461856184618561846185618461D9
:100BF00085618461856184618561846185618461C9
:100C00008561846199E70000000400500000000045
:100C100000000000000000000000000000000000D4
:100C200000000000000000000000000001000000C3
:100C300002000000030000000400000006000000A5
:100C4000070000000800000009000000000000008C
:100C50000000000000000000000000000100000093
:100C600002000000030000000400000000093D0035
:100C700000127A000024F4004086510100366E0113
:100C800000093D0000093D0000093D0000093D004C
:100C900000127A000024F4004086510100366E01F3
:100CA000C00C000800000020D0000000080B000865
:100CB000900D0008D000002000040000180B000870
:100CC0000000000000000000000000000000000024
:100CD0000000000000000000000000000000000014
:100CE0000000000000000000000000000000000004
:100CF00000000000000000000000000000000000F4
:100D000000000000000000000000000000000000E3
:100D100000000000000000000000000000000000D3
:100D200000000000000000000000000000000000C3
:100D300000000000000000000000000000000000B3
:100D400000000000000000000000000000000000A3
:100D50000000000000000000000000000000000093
:100D60000000000000000000000000000000000083
:100D70000000000000000000000000000000000073
:100D800000127A00000000000400000001000000D2
:04000005080000C12E
:00000001FF
