:020000040800F2
:10000000D0040020D9000008C9040008C504000875
:1000100000000000000000000000000000000000E0
:10002000000000000000000000000000470500087C
:100030000000000000000000450500084905000818
:10004000EB000008EB000008EB000008EB000008E4
:10005000EB000008EB000008EB000008EB000008D4
:1000600000000000EB000008EB00000800000000AA
:10007000EB000008EB000008EB00000800000000A7
:10008000EB000008EB00000800000000EB00000897
:1000900000000000EB000008EB000008EB00000887
:1000A00000000000EB00000800000000EB0000086A
:1000B000EB0000080000000000000000000000004D
:1000C0000448854600F03EF80048004769010008F2
:1000D000C046C046D004002004488047044800477A
:1000E000FEE7FEE7FEE7FEE7FEE7FEE75105000854
:1000F000C100000830B50B46014600202022012433
:1001000009E00D46D5409D4205D31D469540491B4B
:100110002546954040191546521E002DF1DC30BD94
:10012000D2B201E00270401C491EFBD2704700228F
:10013000F6E710B513460A4604461946FFF7F0FFE6
:10014000204610BD064C0125064E05E0E36807CCAD
:100150002B430C3C98471034B442F7D3FFF7B4FF5D
:10016000DC050008FC05000870B50125ED0600243B
:1001700006E0A0002858A100064A5050601CC4B2F6
:10018000302CF6DB012040070349886000F016FAA6
:10019000002070BD0000002000ED00E000B587B039
:1001A000142102A8FFF7C3FF00BF0D48406B0221D6
:1001B00008430B4948630846406B02210840019000
:1001C00000BF00BF20200290012003900490022075
:1001D000059002A9034800F01DF807B000BD00001B
:1001E000001002400004005070B5044600F0F4F81E
:1001F00006462546681C002802D0054800682D18D0
:1002000000BF00F0E9F8801BA842FAD370BD0000DF
:10021000CC00002070B503460022CBE001269640BA
:100220000C683440002C71D04D68022D02D04D680E
:10023000122D15D1D508AE001D462035A8595507F9
:10024000EE0E0F25B5400646AE4330465607F60E75
:100250000D69B5402843D508AD001E4620367051C3
:10026000186856000325B5400646AE4330460D7962
:10027000AD07AD0F5600B540284318604D68012DFD
:1002800008D04D68022D05D04D68112D02D04D6863
:10029000122D18D1986856000325B5400646AE4386
:1002A00030465600CD68B54028439860586801250F
:1002B00095400646AE43304610264D6835402D0920
:1002C000954028435860D86856000325B540064637
:1002D000AE43304656008D68B5402843D8600126AD
:1002E00036074D683540B54263D1354D9608B600A6
:1002F000A8599507EE0E0F25B5400646AE43304689
:1003000005252D07AB4202D1002506E051E02D4D19
:10031000AB4201D1012500E002259607F60EB5405B
:100320002843274D9608B600A851254D203528684A
:100330000546A5432846012636044D683540B5429A
:1003400002D10546254328461D4D203528606868A2
:100350000546A5432846012676044D683540B5423A
:1003600002D1054625432846154D20356860144DB9
:10037000603D28680546A5432846012636054D6898
:100380003540B54202D10546254328460C4D603D17
:10039000286068680546A5432846012676054D680D
:1003A0003540B54202D1054625432846044D603DFF
:1003B0006860521C0D68D540002D00D02EE770BD3E
:1003C000601802400004005042690A40002A01D02F
:1003D000816200E081617047014800687047000059
:1003E000C400002003480068034909684018014917
:1003F00008607047C4000020CC00002010B5002425
:10040000032000F009F8002801D0012401E000F0E9
:1004100033F8204610BD0000F8B504460025134807
:10042000006800281ED0114801687D20C000FFF739
:1004300061FE074639460E480068FFF75BFE064638
:1004400000F024F800280BD1042C07D2002221460A
:10045000401E00F012F80748046004E0012502E0A5
:10046000012500E001252846F8BD0000CC00002051
:10047000C0000020C8000020704770B504460D463B
:1004800016462946204600F021F870BD70B5044696
:100490002546681E0949884201D901200CE0681EE2
:1004A000074948610321081F00F010F800200449A3
:1004B000886107200861002070BD0000FFFFFF0079
:1004C00000E000E000BFFEE77047000010B5002824
:1004D00019DA1A4A03071B0F083B9B089B00D258E6
:1004E0008307DC0EFF23A3409A438B071B0E840770
:1004F000E40EA3401A43114B0407240F083CA40840
:10050000A4001A5118E00E4A03231B02D2188308D4
:100510009B00D2588307DC0EFF23A3409A438B072E
:100520001B0E8407E40EA3401A43054B0324240248
:100530001B198408A4001A5110BD00001CED00E036
:1005400000E100E07047704710B5FFF74BFF10BDAA
:100550000E484068000C00040121490340180C4972
:100560008988C904C90C084308494860084640689E
:100570000849084006498031898CC905C9090843E2
:1005800002494860C803044988607047001002406F
:10059000000FFF1FFFFF00FE00ED00E002E008C8B3
:1005A000121F08C1002AFAD170477047002001E0ED
:1005B00001C1121F002AFBD170470000FFF71EFF88
:1005C000FFF7ECFD06E0FA20FFF70EFE20210248BF
:1005D000FFF7FAFEF7E7000000040050FC050008F2
:1005E00000000020D00000009C050008CC06000898
:1005F000D000002000040000AC050008000000004E
:1006000000000000000000000000000000000000EA
:1006100000000000000000000000000000000000DA
:1006200000000000000000000000000000000000CA
:1006300000000000000000000000000000000000BA
:1006400000000000000000000000000000000000AA
:10065000000000000000000000000000000000009A
:10066000000000000000000000000000000000008A
:10067000000000000000000000000000000000007A
:10068000000000000000000000000000000000006A
:10069000000000000000000000000000000000005A
:1006A000000000000000000000000000000000004A
:1006B00000000000000000000000000000127A00AE
:0C06C00000000000040000000100000029
:04000005080000C12E
:00000001FF
