:020000040800F2
:1000000000050020D9000008BD0700088D07000882
:1000100000000000000000000000000000000000E0
:100020000000000000000000000000003B08000885
:100030000000000000000000390800083D0800082A
:10004000EB000008EB000008EB000008EB000008E4
:10005000EB000008EB000008EB000008EB000008D4
:1000600000000000EB000008EB00000800000000AA
:10007000EB000008EB000008EB00000800000000A7
:10008000EB000008EB00000800000000EB00000897
:1000900000000000EB000008EB000008EB00000887
:1000A00000000000EB00000800000000EB0000086A
:1000B000EB0000080000000000000000000000004D
:1000C0000448854600F03EF80048004769010008F2
:1000D000C046C04600050020044880470448004749
:1000E000FEE7FEE7FEE7FEE7FEE7FEE7450800085D
:1000F000C100000830B50B46014600202022012433
:1001000009E00D46D5409D4205D31D469540491B4B
:100110002546954040191546521E002DF1DC30BD94
:10012000D2B201E00270401C491EFBD2704700228F
:10013000F6E710B513460A4604461946FFF7F0FFE6
:10014000204610BD064C0125064E05E0E36807CCAD
:100150002B430C3C98471034B442F7D3FFF7B4FF5D
:10016000000900082009000870B50125ED060024EB
:1001700006E0A0002858A100064A5050601CC4B2F6
:10018000302CF6DB012040070349886000F090FB2B
:10019000002070BD0000002000ED00E000BFFEE781
:1001A000FEB50446002001900090002C02D10120F1
:1001B00000900BE120680068C00FC0070121C9074B
:1001C000884202D10120009000E12520005D002836
:1001D00007D10021242001550020A062204600F014
:1001E00001F92068076830210F40E1682069084361
:1001F000A16908430646A1680E4320680068744957
:100200000840304321680860E069002806D1206872
:100210004068400840002168486005E0A08B000469
:1002200001210843216848602069002808D020691E
:10023000102805D02069202802D02069302805D157
:100240006448006802210843624908606148006808
:10025000012109048843616908435E490860C914A3
:10026000606888420BD15B48006888435949086040
:1002700008460069C9140843564908611FE0032174
:10028000C902606888420DD1524800680121C90244
:1002900008435049086008460069C91488434D491D
:1002A00008610CE04B4800680121C90288434949B4
:1002B000086008460069C9148843464908612068F7
:1002C000006830210840002810D0002F0ED142498C
:1002D00042480068FFF70EFF14214843019002E0F6
:1002E0000198401E019001980028F9D139492068F1
:1002F000884202D10120400401E00120800405462B
:100300002020005D8007800F002852D01021206A35
:100310000840002807D000BF314800682843304912
:10032000086000BF07E000BF2D480068A8432C49C3
:10033000086000BF00BF2021206A0840002807D0C5
:1003400000BF2748406828432549486000BF07E0B0
:1003500000BF23484068A8432149486000BF00BF50
:10036000284600F015FA0221206A0840002809D02A
:1003700000BF1B48803040682843194980314860DD
:1003800000BF02E0284600F009FA2020005DC00707
:10039000C00F002809D000BF1148803000682843F2
:1003A0000F498031086000BF09E0284600F0FEF9DF
:1003B00005E0284600F0F2F9284600F0F7F925207C
:1003C000005D002802D10121252001550098FEBDC5
:1003D0000E74F33F00020140400D0300C0000020F6
:1003E0000018024010B586B00446142101A8FFF79A
:1003F0009EFE00BF2448406B012108432249486308
:100400000846406BC007C00F009000BF00BF00BF90
:100410001D48403000680121490508431A49403110
:10042000086008460068012149050840009000BFA7
:1004300000BF00BF1448403000684900084312491B
:100440004031086008460068012189050840009095
:1004500000BF00BF082001900320029002200390FB
:1004600001A90520000700F047F880200190022034
:100470000290049003900720059001A90520000731
:1004800000F03AF806B010BD0010024038B504463E
:10049000002000900025002C01D1012526E02068D5
:1004A0000068C00FC0070121C907884201D101259A
:1004B0001CE02520005D012817D12068006801217B
:1004C0000843216808600221252001550849094890
:1004D0000068FFF70FFEC000009002E00098401E89
:1004E000009000980028F9D100E00125284638BD89
:1004F000400D0300C000002070B503460022CBE091
:10050000012696400C683440002C71D04D68022DB5
:1005100002D04D68122D15D1D508AE001D462035EC
:10052000A8595507EE0E0F25B5400646AE43304696
:100530005607F60E0D69B5402843D508AD001E4696
:1005400020367051186856000325B5400646AE4364
:1005500030460D79AD07AD0F5600B5402843186001
:100560004D68012D08D04D68022D05D04D68112D24
:1005700002D04D68122D18D1986856000325B54059
:100580000646AE4330465600CD68B54028439860D5
:100590005868012595400646AE43304610264D6802
:1005A00035402D09954028435860D86856000325EA
:1005B000B5400646AE43304656008D68B5402843E8
:1005C000D860012636074D683540B54263D1354DB8
:1005D0009608B600A8599507EE0E0F25B5400646B9
:1005E000AE43304605252D07AB4202D1002506E07B
:1005F00051E02D4DAB4201D1012500E002259607C7
:10060000F60EB5402843274D9608B600A851254D53
:10061000203528680546A5432846012636044D683E
:100620003540B54202D10546254328461D4D2035AB
:10063000286068680546A5432846012676044D686B
:100640003540B54202D1054625432846154D203593
:100650006860144D603D28680546A543284601267C
:1006600036054D683540B54202D10546254328463A
:100670000C4D603D286068680546A5432846012664
:1006800076054D683540B54202D1054625432846DA
:10069000044D603D6860521C0D68D540002D00D0AF
:1006A0002EE770BD60180240000400500348006847
:1006B000034909684018014908607047C4000020D8
:1006C000CC00002010B50024032000F009F8002819
:1006D00001D0012401E000F033F8204610BD0000F5
:1006E000F8B5044600251348006800281ED01148BC
:1006F00001687D20C000FFF7FDFC074639460E4823
:100700000068FFF7F7FC064600F024F800280BD13C
:10071000042C07D200222146401E00F012F80748A0
:10072000046004E0012502E0012500E001252846DF
:10073000F8BD0000CC000020C0000020C800002050
:10074000704770B504460D4616462946204600F00F
:1007500037F870BD70B504462546681E09498842C1
:1007600001D901200CE0681E074948610321081FD8
:1007700000F026F800200449886107200861002065
:1007800070BD0000FFFFFF0000E000E000BFFEE7DB
:100790000149C860704700000018024002494968DA
:1007A0008143014A5160704780180240024909683C
:1007B0008143014A11607047801802407047000071
:1007C00010B5002819DA1A4A03071B0F083B9B08CB
:1007D0009B00D2588307DC0EFF23A3409A438B076C
:1007E0001B0E8407E40EA3401A43114B0407240F89
:1007F000083CA408A4001A5118E00E4A03231B0267
:10080000D21883089B00D2588307DC0EFF23A34035
:100810009A438B071B0E8407E40EA3401A43054B33
:10082000032424021B198408A4001A5110BD0000DF
:100830001CED00E000E100E07047704710B5FFF7E5
:1008400035FF10BD0E484068000C0004012149032B
:1008500040180C498988C904C90C084308494860F4
:10086000084640680849084006498031898CC90516
:10087000C909084302494860C803044988607047B1
:1008800000100240000FFF1FFFFF00FE00ED00E020
:1008900002E008C8121F08C1002AFAD17047704749
:1008A000002001E001C1121F002AFBD170470000A7
:1008B000FFF708FF10481149086030210F48016117
:1008C00001214902C1600021816181600121090487
:1008D0004161002009494860002108480162C16166
:1008E000FFF75EFC002801D0FFF758FC0348FFF734
:1008F000CDFD00BFFEE7000010020140D000002047
:100900002009000800000020D00000009008000826
:10091000F0090008D000002030040000A008000802
:1009200000000000000000000000000000000000C7
:1009300000000000000000000000000000000000B7
:1009400000000000000000000000000000000000A7
:100950000000000000000000000000000000000097
:100960000000000000000000000000000000000087
:100970000000000000000000000000000000000077
:100980000000000000000000000000000000000067
:100990000000000000000000000000000000000057
:1009A0000000000000000000000000000000000047
:1009B0000000000000000000000000000000000037
:1009C0000000000000000000000000000000000027
:1009D0000000000000000000000000000000000017
:1009E00000127A0000000000040000000100000076
:04000005080000C12E
:00000001FF
