:020000040800F2
:10000000C0050020D90000080B12000807120008E4
:1000100000000000000000000000000000000000E0
:10002000000000000000000000000000871200082F
:10003000000000000000000085120008891200087E
:10004000EB000008EB000008EB000008EB000008E4
:10005000EB000008EB000008EB000008EB000008D4
:1000600000000000EB000008EB00000800000000AA
:10007000EB000008EB000008EB00000800000000A7
:10008000EB000008EB00000800000000EB00000897
:1000900000000000EB000008EB000008EB00000887
:1000A00000000000EB00000800000000EB0000086A
:1000B000EB0000080000000000000000000000004D
:1000C0000448854600F03EF80048004769010008F2
:1000D000C046C046C0050020044880470448004789
:1000E000FEE7FEE7FEE7FEE7FEE7FEE79112000807
:1000F000C100000830B50B46014600202022012433
:1001000009E00D46D5409D4205D31D469540491B4B
:100110002546954040191546521E002DF1DC30BD94
:10012000D2B201E00270401C491EFBD2704700228F
:10013000F6E710B513460A4604461946FFF7F0FFE6
:10014000204610BD064C0125064E05E0E36807CCAD
:100150002B430C3C98471034B442F7D3FFF7B4FF5D
:10016000AC170008CC17000870B50125ED06002477
:1001700006E0A0002858A100064A5050601CC4B2F6
:10018000302CF6DB012040070349886001F0A2FA19
:10019000002070BD0000002000ED00E070B50546B5
:1001A0006C6AA06B50210840002835D1A06B01215A
:1001B00049020843A0632068C068032189020840FF
:1001C000002825D1607E002822D1206800680821FF
:1001D000084008281CD12068806804210840800855
:1001E00000280DD1206840680C21884321684860B0
:1001F000A06BFF210131884301210843A06307E080
:10020000A06B20210843A063E06B01210843E06359
:10021000204600F047FB03E0206B016B284688472F
:1002200070BD70B505466C6AA06B40210843A063A1
:10023000E06B04210843E063204600F035FB70BD0D
:1002400070B50446656A284600F02DFB70BD0000BD
:1002500038B504460020009020688068C007C00FB1
:10026000012148404840002827D12068806814496F
:100270000840002801D1012000E00020002809D119
:10028000A06B10210843A063E06B01210843E063E9
:10029000012038BD206880680121084321688860FA
:1002A000084909480068FFF725FF009002E0009820
:1002B000401E009000980028F9D10020E9E70000D6
:1002C0001500008040420F00C000002070B50B46B2
:1002D000002115E08A0084580D464A1C07E096006C
:1002E0008659A64202DA960084591546521C9A4253
:1002F000F5DB8A008258AE0082518A008450491C86
:100300009942E7DB70BD000008B53348006B01215E
:1003100009050843304908630846006B01210905B7
:1003200088432D49086300BF2B48403000680121F5
:100330000905084328494031086008460068012142
:1003400009050840009000BF00BF24482449086008
:10035000084600F0AFF9002801D000F047F81F4828
:100360001F490860C004486000211D488160C160C9
:1003700002210161042141610121017641760021C0
:100380008176FF21C231C161002101620121243047
:1003900001700021243881620721C16200F086FAD1
:1003A000002801D000F022F8012000030D49486028
:1003B000002008600A4800F0AFF9002801D000F0E2
:1003C00015F801220849064800F0B8FB002801D0C2
:1003D00000F00CF808BD00000010024000240140AD
:1003E000E000002020010020C400002000BFFEE744
:1003F00010B586B0044600BF00BF1448406B022110
:100400000843124948630846406B022108400090A7
:1004100000BF00BF00BF60000D49085A01900120D5
:1004200002900020039002200490A100094A505835
:1004300001A900F09DFC6200054B995AA200054BF2
:100440009858012200F06EFD06B010BD0010024069
:10045000A4170008C800002030B587B004460D4638
:1004600000BF002C0DD100BF1B48406B0121084389
:10047000194948630846406BC007C00F019000BF90
:1004800000BF00BF60001549085A02900020049088
:1004900001200590002D07D100200390A100104AF3
:1004A000505802A900F064FC012D13D10D480390AF
:1004B000A1000B4A505802A900F05AFC0A49095DF4
:1004C00048B200220F2100F091FD0749095D48B2B2
:1004D00000F080FD07B030BD00100240A6170008F4
:1004E000CC00002000002110A817000800B587B03C
:1004F00000BF002001903148C06B0121490408432E
:100500002E49C8630846C06B012149040840019088
:1005100000BF00BF2A482B490860E1204002486024
:10052000002128488160C160016181610C21416125
:100530000021C161002023490862084600F09EFDA9
:1005400000BF1E48406B012108431C494863084610
:10055000406BC007C00F019000BF00BF00BF08463E
:10056000406B01210843154948630846406BC007AA
:10057000C00F019000BF00BF042002900220039032
:1005800001200490032005900420069002A9052074
:10059000000700F0EDFB082002900420069002A95D
:1005A0000520000700F0E4FB012200211C2000F0E0
:1005B0001DFD1C2000F00EFD07B000BD0010024024
:1005C000004400407001002030B50124056CAC40AF
:1005D000C56B6C60046863604468102C04D10468C7
:1005E000A2600468E16003E00468A1600468E2605E
:1005F00030BDF8B5044600250026002700BF342092
:10060000005D012801D10220F8BD012134200155EF
:1006100000BF2068806808404840484000283CD11E
:10062000A06B0902884302210843A0632068C068C8
:100630008707BF0F2068C068800880002168C860F5
:10064000206880680121C90708432168886000F09C
:100650006FFC064611E000F06BFC801B02280CD9F1
:10066000A06B0221884310210843A06300BF002132
:100670003420015500BF0120C6E720688068C00F04
:10068000C0070028E7D12068C06838432168C860E7
:10069000A06B02218843A06304E0A06B20210843E3
:1006A000A063012500BF00213420015500BF28466A
:1006B000AAE7000030B58BB00546002414E02846B8
:1006C000FFF797FF002802D001200BB030BD114882
:1006D0008068A10006AA5050A00006A90858400250
:1006E000A10001AA5050641C052CE8DB052101A8DB
:1006F000FFF7ECFD03984012064908610846C06800
:100700004861084640680121C9030843014948601F
:100710000020DAE740240140F8B504460D460026E3
:100720000020009001210907E06A884215D0E06AA4
:10073000012812D0E06A02280FD0E06A03280CD00A
:10074000E06A042809D0E06A052806D0E06A062895
:1007500003D0E06A072800D000BF00BF3420005D4E
:10076000012801D10220F8BD01213420015500BF2C
:100770002068806804210840800800287DD1454910
:10078000686888425CD02068806A2A78012191409C
:1007900008432168886201210907E06A884229D05C
:1007A000E06A012826D0E06A022823D0E06A032804
:1007B00020D0E06A04281DD0E06A05281AD0E06A3B
:1007C000062817D0E06A072814D0A868216849696C
:1007D0004907490F88420DD020684069C008C00011
:1007E0002168486120684069297A4907490F084310
:1007F0002168486128680B2802D028680C2841D15C
:100800002548806829680B2902D10121C90501E02A
:100810000121890508432049886028680B2831D1C7
:100820001E491F480068FFF765FC0A2148430090F5
:1008300002E00098401E009000980028F9D121E0C5
:100840002068806A2A780121914088432168886263
:1008500028680B2802D028680C2813D10E4880681D
:1008600029680B2903D10121C90502E005E0012116
:10087000890588430849886004E0A06B202108436B
:10088000A063012600BF00213420015500BF30467F
:1008900069E70000011000000027014040420F00FE
:1008A000C0000020704770477047000070B50446D4
:1008B00000260025002C01D1012070BDA06B00286E
:1008C00006D1E063002134200155204600F0BEF837
:1008D000A06B1021084000287ED1002EFCD120689A
:1008E00080680421084080080028F5D1A06B8901A8
:1008F000884302210843A06320688068C007C00FB6
:1009000001214840484000280FD12068C0681821C4
:100910008843A16808432168C86020680069000115
:10092000000961680843216808612068C06845497A
:1009300008402168C860207E8003617E4903084327
:10094000A16A012902D00121090300E00021084326
:10095000E16808432169022901D1042100E0002156
:1009600008432421095D490008430543A07E01286E
:100970000ED1607E002803D101200004054307E06A
:10098000A06B20210843A063E06B01210843E063D2
:10099000FF21C231E069884203D0216AE06908433F
:1009A00005432068C06828432168C8600121090701
:1009B000E06A884216D0E06A012813D0E06A022873
:1009C00010D0E06A03280DD0E06A04280AD0E06A5B
:1009D000052807D0E06A00E02DE0062802D0E06A92
:1009E00007280DD120684069C008C000216848610F
:1009F00020684069A18D4907490F08432168486173
:100A00002068C06810490840A84208D10020E0636F
:100A1000A06B0221884301210843A06310E0A06B72
:100A20000221884310210843A063E06B01210843A1
:100A3000E063012604E0A06B10210843A0630126B7
:100A400030463AE719C2FEFFE7FF3FC310B586B054
:100A50000446142101A8FFF76AFB00BF3448006870
:100A6000012108433249086008460068C007C00FEA
:100A7000009000BF00BF00BF2D484038806B0121AF
:100A800008432B49403988630846806BC007C00F74
:100A9000009000BF00BF00BF0846406B0121084323
:100AA0002349403948630846406BC007C00F009097
:100AB00000BF00BF00BF1E480068012109050843B0
:100AC0001B4908600846006801210905084000909C
:100AD00000BF00BF0120019003200290002003907E
:100AE00001A90520000700F043F9002000F0A2FA58
:100AF0001048114908600020486000210E488160BC
:100B0000C1600121490201618900416120218161A7
:100B100003210903C16100F06FF8074800F0A2F853
:100B200000BF05482063446200BF06B010BD00004E
:100B300040100240080002402C010020F8B5044695
:100B40000D4616460027206880680421084080086A
:100B5000002845D100BF3420005D012801D10220CA
:100B6000F8BD01213420015500BF2046FFF770FB7E
:100B70000746002F35D1A06B1B490840FF210131EA
:100B80000843A0630020E06300BF0021342001552A
:100B900000BF1648216B88621548216BC862154852
:100BA000216B08631C2021680860206840681021C0
:100BB0000843216848602068C06801210843216813
:100BC000C86022681146403133462A46206B00F047
:100BD00081F820688068042108432168886000E06B
:100BE00002273846BCE70000FEF1FFFF9D01000828
:100BF000410200082302000810B50446002C01D170
:100C0000012010BD2068006840084000216808608D
:100C10000020216808602168486021688860216898
:100C2000C8600F4A2168881A1421FFF763FA800010
:100C300020640B480838E0630120216C8840E16B98
:100C400048600020A062E06220636063A06300212E
:100C50002120015500BF2020015500BF0020D0E712
:100C60000800024070B504460025002C01D1012087
:100C700070BD164A2168881A1421FFF73BFA8000DC
:100C8000206412480838E0630221212001552068C1
:100C900005680F480540A16860680843E16808439B
:100CA0002169084361690843A1690843E169084370
:100CB0000543206805600020A06301212120015523
:100CC0000021202001550020D2E70000080002404A
:100CD0000FC0FFFFF8B504460D4616461F4600201C
:100CE000009000BF2020005D012801D10220F8BD46
:100CF00001212020015500BF2120005D01282DD1B8
:100D00000221212001550020A063206800684008CE
:100D10004000216808603B46324629462046FFF7DE
:100D200053FCE06A002806D0206800680E210843C2
:100D3000216808600BE0206800680421884321686E
:100D40000860206800680A2108432168086020685C
:100D50000068012108432168086006E000BF002107
:100D60002020015500BF022000900098BFE700003E
:100D700070B503460022CBE0012696400C68344053
:100D8000002C71D04D68022D02D04D68122D15D166
:100D9000D508AE001D462035A8595507EE0E0F2583
:100DA000B5400646AE4330465607F60E0D69B540CF
:100DB0002843D508AD001E462036705118685600ED
:100DC0000325B5400646AE4330460D79AD07AD0F5D
:100DD0005600B540284318604D68012D08D04D6875
:100DE000022D05D04D68112D02D04D68122D18D15D
:100DF000986856000325B5400646AE433046560077
:100E0000CD68B5402843986058680125954006464E
:100E1000AE43304610264D6835402D099540284395
:100E20005860D86856000325B5400646AE433046A4
:100E300056008D68B5402843D860012636074D68B6
:100E40003540B54263D1354D9608B600A85995078F
:100E5000EE0E0F25B5400646AE43304605252D075C
:100E6000AB4202D1002506E051E02D4DAB4201D14D
:100E7000012500E002259607F60EB5402843274DD0
:100E80009608B600A851254D203528680546A5438B
:100E90002846012636044D683540B54202D1054644
:100EA000254328461D4D2035286068680546A54322
:100EB0002846012676044D683540B54202D10546E4
:100EC00025432846154D20356860144D603D28683F
:100ED0000546A5432846012636054D683540B542EE
:100EE00002D10546254328460C4D603D28606868C0
:100EF0000546A5432846012676054D683540B5428E
:100F000002D1054625432846044D603D6860521CC9
:100F10000D68D540002D00D02EE770BD601802404E
:100F200000040050002A01D0816100E08162704716
:100F30000148006870470000D000002003480068A6
:100F4000034909684018014908607047D000002033
:100F5000D800002010B50024032000F009F8002874
:100F600001D0012401E000F033F8204610BD00005C
:100F7000F8B5044600251348006800281ED0114823
:100F800001687D20C000FFF7B5F8074639460E48D6
:100F90000068FFF7AFF8064600F054F800280BD1C0
:100FA000042C07D200222146401E00F01FF80748FB
:100FB000046004E0012502E0012500E00125284647
:100FC000F8BD0000D8000020C0000020D4000020A0
:100FD0007047000000BFC206D20E01219140024AB4
:100FE000116000BF7047000000E100E070B50446EA
:100FF0000D4616462946204600F008F970BD00004F
:101000000148006870470000C000002000B5FFF7ED
:10101000F7FF06498968072212031140090B89006E
:10102000034A515CC906C90EC84000BD0010024009
:10103000641700080249C9690143014AD161704738
:101040000000014070B504462546681E09498842E3
:1010500001D901200CE0681E074948610321081FDF
:1010600000F0D4F8002004498861072008610020BE
:1010700070BD0000FFFFFF0000E000E010B5044677
:10108000002C01D1012010BDA069002800D000E093
:1010900000BF4520005D002805D1002144200155F6
:1010A000204600F030F82421452001552068C06812
:1010B0000121490388432168C860204600F02AF9CD
:1010C000206A002802D0204600F008F92068006954
:1010D0000121C9028843216808612068406908210C
:1010E0008843216848612068C0680121490308439A
:1010F0002168C8600020A0642021452001554620B9
:1011000001550020BFE77047FFB583B004460D4688
:101110001746002001904520005D202871D1002D48
:1011200001D0002F02D1012007B0F0BD0121090339
:10113000A068884208D12069002805D1E807C00FBF
:10114000002801D00120EFE700BF4420005D012806
:1011500001D10220E8E701214420015500BF002011
:10116000A064212145200155FFF7E2FE019027866A
:10117000678601210903A068884205D120690028FB
:1011800002D10026029502E02E46002002901EE0C9
:1011900006980090002280212046019B00F08CF9E7
:1011A000002801D00320BFE7002E09D10298008853
:1011B000C005C00D216848600298801C029003E0C1
:1011C000307821684860761C608E401E6086608E94
:1011D0000028DDD106980090002240212046019B86
:1011E00000F06AF9002801D003209DE72021452066
:1011F000015500BF00214420015500BF002093E7A6
:10120000FFE7022090E700BFFEE7704710B5002817
:1012100019DA1A4A03071B0F083B9B089B00D25898
:101220008307DC0EFF23A3409A438B071B0E840722
:10123000E40EA3401A43114B0407240F083CA408F2
:10124000A4001A5118E00E4A03231B02D218830887
:101250009B00D2588307DC0EFF23A3409A438B07E1
:101260001B0E8407E40EA3401A43054B03242402FB
:101270001B198408A4001A5110BD00001CED00E0E9
:1012800000E100E07047704710B5FFF757FE10BD52
:101290000E484068000C00040121490340180C4925
:1012A0008988C904C90C0843084948600846406851
:1012B0000849084006498031898CC905C909084395
:1012C00002494860C8030449886070470010024022
:1012D000000FFF1FFFFF00FE00ED00E04022016A4B
:1012E0001140002915D00168496992019143426A71
:1012F00011430268516101221203416A914208D1EF
:1013000001684969032252039143826A11430268CA
:1013100051617047FEB50446206800690121490308
:101320008843E1680843216808612169A06808438F
:101330006169084302902068C0685E4908400299CC
:1013400008432168C860E069029020684069012173
:10135000C9028843029908432168486120684069AE
:10136000032109028843A1690843216848610121DA
:10137000C902E06988424ED1FFF748FE054662681F
:10138000510019226A431046FEF7B4FE0646642156
:10139000FEF7B0FE07016268510019226A43104649
:1013A000FEF7A8FE06466268510019226A431046FD
:1013B000FEF7A0FE64210090FEF79CFE64214843E6
:1013C000301AC00032300190FEF794FEF821084038
:1013D00040003F186268510019226A431046FEF728
:1013E00089FE06466268510019226A431046FEF7DC
:1013F00081FE64210090FEF77DFE64214843301A8F
:10140000C00032300190FEF775FE4007400F3818DB
:10141000216888604CE0FFF7F9FD0546626891009D
:1014200019226A431046FEF765FE06466421FEF760
:1014300061FE07016268910019226A431046FEF7B7
:1014400059FE06466268910019226A431046FEF76B
:1014500051FE64210090FEF74DFE64214843301A8E
:10146000000132300190FEF745FEF02108403F18A0
:101470006268910019226A431046FEF73BFE064659
:101480006268910019226A431046FEF733FE642118
:101490000090FEF72FFE64214843301A00013230DD
:1014A0000190FEF727FE0007000F381821688860BA
:1014B000FEBD0000F3E9FFFFFFB581B004460D4615
:1014C00017460A9E24E0701C002821D0002E05D06B
:1014D000FFF72EFD0499401AB04219D92068C06860
:1014E000FF21A13188432168C86020684069400815
:1014F00040002168486120214520015546200155C2
:1015000000BF00214420015500BF032005B0F0BDFD
:10151000206800682840A84201D1012000E0002096
:10152000B842D0D00020F1E70FB410B503A9044BA6
:10153000044A029800F018F810BC08BC04B0184720
:10154000B9160008DC00002002E008C8121F08C11C
:10155000002AFAD170477047002001E001C1121F34
:10156000002AFBD170470000FFB58DB0044600256E
:1015700006E025280AD0109A0F999047641C6D1C2C
:1015800020780028F5D1284611B0F0BD00270121B0
:10159000484A009700E00743641C23780846203B34
:1015A00098401042F7D120782E2817D10420074305
:1015B0006078641C2A280CD10E98641C02C8009123
:1015C0000E900BE000990A22514330394018641CF8
:1015D00000902078014630390929F3D92078002875
:1015E000D1D0642808D0692806D075281ED0109A5A
:1015F0000F9990476D1C5BE00A200E99019001C97C
:101600000E91002802DA40422D2102E0390504D56E
:101610002B216A461172012103E0F90704D0202131
:10162000F7E70BAE0B910DE00021FAE70A200E99C7
:10163000019001C90E91F7E70199FEF75BFD30318A
:10164000761E31700028F7D103A8801B203001904E
:10165000780701D5009801E00120009001998842A7
:1016600001DD401A00E000200027009006E002A8FB
:10167000109AC05D0F9990476D1C7F1C0B98874294
:10168000F5DB04E0109A30200F9990476D1C00990B
:10169000481E00900029F5DC05E03078109A761C91
:1016A0000F9990476D1C0199481E01900029F4DCA8
:1016B000641C65E70928010013B50C467D23DB0097
:1016C000012269460248FFF71FFD00981CBD00007B
:1016D00070010020FFF73EFC00210846FEF7BCFE2B
:1016E0000020FEF785FEFEF701FFFEF70DFE0DE080
:1016F0000748006802210840002807D0022004495A
:1017000048600448016804A0FFF70EFFF0E70000FE
:1017100000000240C40000204144433A20257520C7
:101720000D0A0000000000000000000000000000A2
:1017300000000000000000000000000000000000A9
:101740000000000001000000020000000300000093
:101750000400000006000000070000000800000070
:101760000900000000000000000000000000000070
:101770000000000001000000020000000300000063
:101780000400000000093D0000127A000024F4006B
:101790004086510100366E0100093D0000093D0000
:1017A00000093D002000001007000000CC170008D1
:1017B00000000020E000000048150008AC180008F8
:1017C000E0000020E00400005815000800000000C0
:1017D0000000000000000000000000000000000009
:1017E00000000000000000000000000000000000F9
:1017F00000000000000000000000000000000000E9
:1018000000000000000000000000000000000000D8
:1018100000000000000000000000000000000000C8
:1018200000000000000000000000000000000000B8
:1018300000000000000000000000000000000000A8
:101840000000000000000000000000000000000098
:101850000000000000000000000000000000000088
:101860000000000000000000000000000000000078
:101870000000000000000000000000000000000068
:1018800000000000000000000000000000127A00CC
:1018900000000000000400500000005000000000A4
:0C18A00004000000010000000000000037
:04000005080000C12E
:00000001FF
