:020000040800F2
:1000000028060020D9000008491300082D13000815
:1000100000000000000000000000000000000000E0
:100020000000000000000000000000009313000822
:100030000000000000000000911300089513000864
:10004000EB000008EB000008EB000008EB000008E4
:10005000EB000008EB000008EB000008EB000008D4
:1000600000000000FD040008EB0000080000000094
:1000700049020008EB000008EB0000080000000047
:10008000EB000008EB00000800000000EB00000897
:1000900000000000EB000008EB000008EB00000887
:1000A00000000000EB00000800000000EB0000086A
:1000B000EB0000080000000000000000000000004D
:1000C0000448854600F064F800480047B501000880
:1000D000C046C04628060020044880470448004720
:1000E000FEE7FEE7FEE7FEE7FEE7FEE79D130008FA
:1000F000C100000830B50B46014600202022012433
:1001000009E00D46D5409D4205D31D469540491B4B
:100110002546954040191546521E002DF1DC30BD94
:1001200070B500242546002801DA01244042002948
:1001300001DA01254942FFF7DDFFAC4200D0404221
:10014000002C00D0494270BD03460B439B0703D0EF
:1001500009E008C9121F08C0042AFAD203E00B788C
:100160000370401C491C521EF9D27047D2B201E004
:100170000270401C491EFBD270470022F6E710B502
:1001800013460A4604461946FFF7F0FF204610BD05
:10019000064C0125064E05E0E36807CC2B430C3CDA
:1001A00098471034B442F7D3FFF78EFF5C1800086D
:1001B0007C18000810B50122D2060020074B8100F0
:1001C00054585C50401CC0B23028F8D30120044978
:1001D0004007886001F0CBFA002010BD000000202D
:1001E00000ED00E0F7B582B00E46002000900190CF
:1001F000002500210024002308E0DF070DD05F0068
:10020000F75F3818491C89B25B1C9BB29342F4D348
:10021000002908D0FFF784FF06E05F00F75F7D1933
:10022000641CA4B2F0E700200090002C04D021460A
:100230002846FFF775FF00E0002001900099029822
:10024000019A06C005B0F0BD10B5024800F0E5FA0D
:1002500010BD00000C01002010B50146486A826BF9
:1002600050231A420AD1816B012252021143816349
:100270000168CA681205920F05D020E0006B026B7E
:100280000846904710BD427E002A18D10A6812071E
:1002900015D58A6801235207002A09DB4A680C2415
:1002A000A2434A60816B1A0291431943816306E0BD
:1002B000816B202211438163C16B1943C16300F03C
:1002C000A9FA10BD10B5406A816B402211438163C9
:1002D000C16B04221143C16300F09EFA10BD10B53A
:1002E000406A00F098FA10BD08B50021009101683D
:1002F0008A68D243D2071ED08A68104B1A40012365
:10030000002A08D0816B102211438163C16B19430D
:10031000C163012008BD88681843886009480849FE
:100320000068FFF7E7FE009002E00098401E009092
:1003300000980028F9D1002008BD000015000080B9
:1003400040420F00C0000020F0B5002314E09A00E6
:100350008458944627461E465A1C06E09500455987
:10036000A54201DA2C461646521C8A42F6DBB20040
:100370008750624684505B1C8B42E8DBF0BD000076
:10038000F0B585B000260196029603963C4F396B76
:100390000120000501433963396B814339633849D2
:1003A00040310A6802430A60096801400091364DF5
:1003B000344C2C60284600F079F9002801D000F078
:1003C00069F82C606E60AE60EE6002202861012446
:1003D0002C766E76AE76C020E861000128622A484D
:1003E00020300471AE620520E862274800F07EFAF2
:1003F000002801D000F04EF8019601200003029081
:1004000001A9214800F07AF9002801D000F042F853
:10041000002000F0C5FEB86B2043B863B86BC0077E
:10042000C00F0090184C1948B03420606660A66078
:100430008020E06040002061800060612020A06199
:10044000C001E061204600F055FB2C63656200228C
:100450000121092000F0B0FC092000F0A3FC206875
:10046000016802221143016004220949064800F094
:10047000F3FA002801D000F00DF805B0F0BD00003F
:1004800000100240002401400C010020080002403E
:10049000E8000020FEE7000010B58AB0182104A88B
:1004A000FFF76BFE002400940194029403940B2048
:1004B0000490FF20013007900F480121008AC903F2
:1004C000C004C00C401808900594099404A800F0DA
:1004D00051FD002801D0FFF7DDFF072000900194B7
:1004E000029403940021684600F06AFC002801D0C1
:1004F000FFF7D0FF0AB010BD000FFF1F7CB5114DF4
:10050000286880071CD504220F496846FFF76AFE59
:100510000D48019A243800990262C161243001F02B
:1005200045F9094C243C606100B200F001FF6061B4
:10053000082100F021F8A06101F024F90220686090
:100540007CBD000000000240E800002030B5056CD2
:100550000124AC40C56B6C60046863604368102B79
:1005600004D0036899600068C26030BD03689A6077
:100570000068C16030BD0000044B1A69821A00D5C2
:1005800052428A4200DD186118697047C400002099
:10059000F8B51A48416B012529434163416B294055
:1005A0000091416B022631434163406B3040009023
:1005B000144C134820606560A560E66005273F077E
:1005C0002146384600F004FB2020206000206060B7
:1005D000A560E66021460C4800F0FAFA01222021CD
:1005E000384600F07FFB00222903384600F07AFBF2
:1005F00000220421384600F075FBF8BD00100240CF
:1006000024100000A801002000040050FEB504469C
:100610000020019025462035287D01281ED001208C
:10062000287520688168C943C90734D0A16BFF22AF
:100630000132914302263143A163C1688907890FC2
:100640000091C16889088900C16020688168D2056D
:100650001143816000F04CFB07460FE00220FEBD15
:1006600000F046FBC01B022808D9A06B1021B04344
:100670000843A063002028750120FEBD2068806823
:100680000028EDDB2068C168009A1143C160A06BAF
:10069000B043A06305E0A06B20210843A0630120C4
:1006A0000190002028750198FEBD0000F1B58AB0C8
:1006B0000024114D05AE6F460A98FFF7A7FF0028EA
:1006C00002D001200BB0F0BDA868A100705040021C
:1006D0007850641C052CEFDB05216846FFF734FEDB
:1006E000029840122861E868686168680121C903BE
:1006F000084368600020E5E740240140F8B5002584
:100700000022009204462034227D012A39D00123A0
:1007100023750268966876076AD43A4F4E68BE42DF
:1007200050D0966A0F78BB401E4396620123C26A7E
:100730001B079A421FD0012A1DD0022A1BD0032A70
:1007400019D0042A17D0052A15D0062A13D0072A53
:1007500011D002688B6856697607760FB3420AD0CB
:100760005369DB08DB005361006842690B7A5B0761
:100770005B0F1A43426108680B2804D00C2802D092
:100780003BE00220F8BD204B9A680B2807D00120DF
:10079000800502439A6008680B2803D02DE00120F1
:1007A000C005F6E71A4819490068FFF7A3FC0A21BB
:1007B0004843009002E00098401E009000980028F6
:1007C000F9D11AE0906A0E78B340984390620868B5
:1007D0000B2801D00C2810D10B498A680B2804D0B3
:1007E0000120800582438A6007E00120C005F9E707
:1007F000816B20221143816301250020207528464A
:10080000F8BD0000011000000027014040420F0029
:10081000C000002070477047704770B504462068DC
:100820000168490702D54168490705D401680907ED
:1008300030D5416809072DD5A16BC90604D4A16B39
:10084000012252021143A163C1680C250905890FD9
:1008500000291AD1617E002917D10168090714D532
:10086000816801224907002908DB4168A9434160EA
:10087000A06B110288431043A06306E0A06B202107
:100880000843A063E06B1043E0632046FFF7C2FF1C
:10089000206805602068016809060DD540680006DB
:1008A0000AD5A06B012109040843A063204600F08B
:1008B000D1F821688020086020680168C90613D536
:1008C0004168C90610D5A16A1025012902D0C16866
:1008D000C90707D0E16B02221143E163056020469E
:1008E000FFF79AFF2068056070BD0000F8B5044668
:1008F0000025002C05D0A06B26462036002802D00B
:1009000007E00120F8BD0020E0633075204600F0CC
:10091000A2F8A06B1022C00600287DDB2068816849
:10092000490779D4A16B1301994302231943A163A9
:100930008168C943C9070CD0C16818239943A368CB
:100940001943C160206801696368090109091943F5
:1009500001612068C1683D4B1940C160207EE1689B
:1009600080030143607EA36A4703012B02D0012369
:100970001B0300E000231F4323693943022B09D0E6
:100980000023194333795B001943A67E0123012E0E
:1009900002D00AE00423F4E7002826D0A06B20262A
:1009A0003043A063E06B1843E063E0690646FF3E16
:1009B000C23E02D0266A304301432068C6680E4317
:1009C000C6600126E06A3607B04212D0012810D076
:1009D00002280ED003280CD004280AD0052808D0FD
:1009E000062806D0072804D00FE0012000040143A8
:1009F000DBE720684669F608F6004661206846692C
:100A0000A78D7F077F0F3E4346612068C068104E68
:100A10003040884209D100E011E00020E063A06B83
:100A200080088000401CA0630DE0A06B0221884379
:100A30001043A063E06B1843E063012503E0A06B63
:100A40001043A06301252846F8BD000019C2FEFF2F
:100A5000E7FF3FC370477047F7B5044620688068DA
:100A600040073BD426462036307D012808D0012798
:100A700037752046FFF738FC0546280002D02EE0E7
:100A80000220FEBDA06B17490840FF210131084339
:100A9000A0630020E0633075216B13488862216BEE
:100AA0001248C862216B1248086321681C20086044
:100AB000206841681022114341602068C1683943B1
:100AC000C1602168206B4031029B019A00F046F81A
:100AD0002068816804221143816000E002252846D5
:100AE000FEBD0000FEF1FFFF59020008DF02000812
:100AF000C502000870B50446002C26D014482568AD
:100B000014212818FFF7F6FA800020641148E063EA
:100B100002212046203041702A680F490A40A3680C
:100B2000616826691943E3683343194363691943CC
:100B3000A3691943E3691943114329600021A163A3
:100B4000012242700170002070BD012070BD0000C4
:100B5000F8FFFDBF000002400FC0FFFFF8B50446DC
:100B60008C460025204620300178012909D0012635
:100B7000067047780021012F05D001700225284614
:100B8000F8BD0220F8BD02274770A1632068016804
:100B900049084900016061462046FFF7D7FCE06A3A
:100BA000002805D0206801680E221143016009E089
:100BB00020680168042291430160206801680A22CC
:100BC000114301602068016831430160D7E70000EC
:100BD000F0B500227CE001249440A4462340002B81
:100BE00075D04C68022C01D0122C0CD1D408A40072
:100BF00027183D6A5407E40E0F26A640B5430E6938
:100C0000A6402E433E62066855000324AC40A6432E
:100C10000F79BF07BF0FAF40374307604E68012E03
:100C200005D0022E03D0112E01D0122E0ED18668CF
:100C3000A643CF68AF403743876047686646B743EF
:100C40000E79F606F60F96403E434660C668A64308
:100C50008C68AC403443C4604C68E40037D59508D8
:100C60001E4CAD002F193D6E9407E40E0F26A640D2
:100C7000B54305263607B04201D1002605E0184EDF
:100C8000B04201D1012600E00226A6402E43134DBA
:100C90003E66124E803634689C434F68FF0300D591
:100CA0001C43346074689C434F68BF0300D51C43E9
:100CB00074602C689C434E68F60200D51C432C607F
:100CC0006C689C434E68B60200D51C436C60521C95
:100CD0000B681C46D44000D07DE7F0BD00180240F0
:100CE00000040050002A01D0816170478162704782
:100CF00001488068704700000001002002488168B8
:100D000042688918816070470001002010B50024F6
:100D1000032000F009F8002801D0012401E000F0D0
:100D20002BF8204610BD000070B505460024104E7B
:100D30007168002919D07D20C000FFF7DBF901465A
:100D40000C480068FFF7D6F900F032FA002801D00D
:100D500001240BE0042D06D200222946501E00F08B
:100D60002BF8356002E0012400E00124204670BD2C
:100D700000010020C000002008B5094801680122D8
:100D80001143016000681040009005484038C26B74
:100D900001040A43C263C06B0840009008BD000014
:100DA00040100240C106C90E012088400149086078
:100DB0007047000000E100E010B500F0C7FA10BD78
:100DC000F8B504460D46002C0FD04D480068C0070A
:100DD000C00FA84218D24A4F386840084000284344
:100DE0003860FFF785FF064609E00120F8BDFFF7F0
:100DF0007FFF811B4348814201D90320F8BD386839
:100E0000C007C00FA842F2D120683F4E81070DD520
:100E1000400704D5B068072109030843B060B068F3
:100E20000F2109028843A1680843B0602078C007F9
:100E30002DD06068012808D000280BD032494031FD
:100E4000096A89070BD40120F8BD3168890306D4EB
:100E50000120F8BD3168490501D40120F8BDB16811
:100E6000C908C9000143B160FFF742FF074607E028
:100E7000FFF73EFFC11B2348814201D90320F8BD83
:100E8000B068382108406168C9008842F0D11C4828
:100E90000168C907C90FA94216D901684908490064
:100EA00029430160FFF724FF074607E0FFF720FF13
:100EB000C11B1448814201D90320F8BD10480068C5
:100EC000C007C00FA842F1D12078400706D5B0680E
:100ED000072109038843E1680843B06000F01CF86B
:100EE000B1683C2289091140084A515CC906C90E03
:100EF000C8400749086007480068FFF715FFF8BDBC
:100F0000002002408813000000100240E81700088B
:100F1000C00000200001002000B585B01422124955
:100F20006846FFF711F9114881688906490F0CD00E
:100F300081688906490F012911D080688006400F19
:100F400003280ED0002005B000BD40680004400F0B
:100F5000042800D90020800069460858F3E70448B7
:100F6000F1E70120C003EEE7481800080010024036
:100F700000366E01F8B50446002C27D02078844D49
:100F8000C00760D0A86838210840082820D0012672
:100F9000B6046068B710002811D0A06800281FD0E0
:100FA0002868B84328602868B0432860FFF7A0FE8F
:100FB000286828690C218843A16808432861606873
:100FC000B8420FD12868384328601CE00120F8BDE2
:100FD0002868800337D56068002834D10120F8BD27
:100FE0000120F8BD05210904884206D12868304354
:100FF000286028683843286005E02868B8432860DE
:101000002868B0432860606800280ED0FFF770FEA3
:10101000064606E0FFF76CFE801BC82801D90320B6
:10102000F8BD28688003F5D50DE0FFF761FE0646A0
:1010300006E0FFF75DFE801BC82801D90320F8BD3C
:1010400028688003F5D42078800765D5AE683820FD
:101050000640002E0BD0FF20E168013000294AD065
:10106000296801432960FFF743FE064639E02868F6
:10107000400502D5E068002809D068682169000CA5
:10108000000408436860FFF733FE074608E00120CC
:10109000F8BDFFF72DFEC01B022801D90320F8BDC3
:1010A00028684005F5D5002E0CD1FFF735FFA9685B
:1010B0003C2289091140374A515CC906C90EC84013
:1010C0003549086035480068FFF72EFE002823D018
:1010D0000120F8BDFFF70CFE801B022801D9032078
:1010E000F8BD28684005F5D568682169000C000442
:1010F0000843686010E0296881432960FFF7F8FD24
:10110000064606E0FFF7F4FD801B022801D9032004
:10111000F8BD28684005F5D42078000736D5A868C2
:101120001B4D8006400F403503280AD06069002817
:101130001AD0286A012108432862FFF7D9FD044626
:101140000EE0286A800721D5606900281ED10120A1
:10115000F8BDFFF7CDFD001B022801D90320F8BD23
:10116000286A8007F5D511E0286A40084000286207
:10117000FFF7BEFD044606E0FFF7BAFD001B02289C
:1011800001D90320F8BD286A8007F5D40020F8BDF6
:1011900000100240E8170008C000002000010020F5
:1011A0000249CA690243CA61704700000000014059
:1011B00010B50949401E884201D9012010BD074CD5
:1011C00060610321081F00F0C1F80020A061072022
:1011D0002061002010BD0000FFFFFF0000E000E0E4
:1011E000F0B502462032137F012B1BD00126167763
:1011F0000223537703685D689C687027BD430F68BE
:101200002F435F600068084B984202D0074B98421A
:1012100004D180239C434968214381605677002094
:101220001077F0BD0220F0BD002C0140000400400A
:1012300070B50446002C05D025462035687F00286F
:1012400002D006E0012070BD00202877204600F083
:101250000AF802206877211D206800F0C3F80120F9
:101260006877002070BD70470222014620314A771E
:10127000006882685207520F0123062A02D00268D2
:101280001A4302604B770020704770B50446203443
:10129000237F012B0CD00125257702236377002AB9
:1012A00008D0042A0AD0082A0CD00C2A11D10DE04B
:1012B000022070BD006800F0E1F80AE0006800F06C
:1012C0001BF906E0006800F057F902E0006800F042
:1012D00093F965770020207770BD000010B50446B3
:1012E0000122206800F0BCF80D482168814205D039
:1012F0000C48814202D00C48814204D1486C012242
:10130000D20310434864206881684907490F0629C1
:1013100003D00168012211430160002010BD0000CC
:10132000002C01400044014000480140FEE700005D
:10133000044AD168CB10C91A0818D060C01000B296
:1013400070470000C4000020704700008307FF22A0
:10135000DB0E9A408907090E994000280BDA000736
:10136000000F0838830808489B001818C369934386
:101370000B43C3617047830804489B001818036837
:1013800093430B430360704700ED00E000E400E08E
:101390007047704710B5FFF7B1FC10BD0D484168AC
:1013A0000D4A090C92880904D204D20C114301227F
:1013B0005203114341604168084A1140064A803295
:1013C000928CD205D209114341600549C00388605F
:1013D0007047000000100240000FFF1FFFFF00FEDB
:1013E00000ED00E070B50268184C194EA04201D023
:1013F000B04204D170251346AB434A681A43154BDB
:10140000154DA04208D0B04206D0144EB04203D0D1
:10141000984201D0A84204D103263602B243CE68D6
:1014200032438026B2434E69324302608A68C26208
:101430000A688262A04203D0984201D0A84201D13A
:10144000096901630121416170BD0000002C014068
:1014500000040040004401400048014000200040DA
:1014600010B5C906C90E01238B40046A9C4304626F
:10147000036A8A401343036210BD0000F0B5026A9C
:10148000520852000262056A436882697024A243CE
:10149000920892000C681443022295438A682A43FA
:1014A000124E134FB04204D0B84202D0114DA842A0
:1014B00006D10825AA43CD681543042295432A4640
:1014C000B04204D0B84202D00A4DA84208D1FF254C
:1014D0000135AB436D00AB434D691D438B692B4315
:1014E00043608461496841630262F0BD002C0140A1
:1014F0000044014000480140F0B5026A10239A43BD
:101500000262046A4368826907252D03AA43032502
:101510002D02AA430D682D021543202294438A68A8
:1015200012012243114EB04207D180271446BC431A
:10153000CA68120122434024A243B04205D00C4C99
:10154000A04202D00B4CA0420AD10124A402A34322
:101550006400A3434C69A4001C438B699B00234394
:1015600043608561496881630262F0BD002C0140DF
:101570000044014000480140F0B5026AFF230133F6
:101580009A430262046A4368C2697025AA439208BA
:1015900092000D6815430122520294438A68120298
:1015A0002243124EB04207D1C7141446BC43CA6846
:1015B000120222430415A243B04205D00C4CA042B3
:1015C00002D00C4CA0420AD101242403A34364009E
:1015D000A3434C6924011C438B691B0123434360D3
:1015E000C5614968C1630262F0BD0000002C014082
:1015F000004401400048014070B5026A01231B030A
:101600009A430262046A4268C36907252D03AB430B
:1016100003252D02AB430D682D021D4301235B03FF
:101620009C438B681E0326430A4B984205D00A4B05
:10163000984202D0094B984206D10124A4031346D4
:10164000A3434A6992011A434260C5614968016433
:10165000066270BD002C014000440140004801407A
:10166000FEB53848C16B02263143C163C16B3140BE
:101670000091426B01210A434263406B0840009095
:10168000314840220260466000258560C6600161E5
:10169000014605200007FFF79BFA2B482B495C38D1
:1016A00001601821C16017214160056185604561B5
:1016B00080218161FFF7BCFD002801D0FEF7EAFE22
:1016C000214C60201C3C2060A66004272761E56057
:1016D000A5616561142060602146084600224038FB
:1016E000FFF7D3FD002801D0FEF7D4FE16480021F5
:1016F0005C38FFF7F3FD60202060A6602761E5609D
:10170000A5616561132060600F4904221C390846F9
:101710004038FFF7BAFD002801D0FEF7BBFE0A48AB
:1017200004215C38FFF7DAFD50200190029506484D
:1017300001A95C38FFF754FD03485C38FFF794FDBE
:10174000FEBD000000100240A8010020000400407F
:1017500002E008C8121F08C1002AFAD1704770477A
:10176000002001E001C1121F002AFBD17047FFF7E2
:10177000CDFAFEF791FEFEF70BFFFFF771FFFEF7C4
:10178000FFFDFEE710B50121052309031B070A2809
:1017900004DD01221846FFF7A5FA10BD0A22D04247
:1017A000FBDA00221846FFF79DFA10BD70B502461D
:1017B000002100204300D35E5918401C0428F9DBA7
:1017C000C817800F4018841000200021054D4B00E1
:1017D000D35E1B1B8E00AE595E433018491C042992
:1017E000F5DB70BDF00000200000000000000000EC
:1017F00000000000000000000000000000000000E9
:1018000000000000000000000100000002000000D5
:1018100003000000040000000600000007000000B4
:10182000080000000900000000093D0000127A00D5
:101830000024F4004086510100366E0100093D008D
:1018400000093D0000093D0000093D0000127A003A
:101850000024F4004086510100366E017C18000817
:10186000000000200C010000501700088819000833
:101870000C0100201C05000060170008000000009B
:101880000000000000000000000000000000000058
:101890000000000000000000000000000000000048
:1018A0000000000000000000000000000000000038
:1018B0000000000000000000000000000000000028
:1018C0000000000000000000000000000000000018
:1018D0000000000000000000000000000000000008
:1018E00000000000000000000000000000000000F8
:1018F00000000000000000000000000000000000E8
:1019000000000000000000000000000000000000D7
:1019100000000000000000000000000000000000C7
:1019200000000000000000000000000000000000B7
:1019300000000000000000000000000000127A001B
:101940000100000000000000000000000000000096
:101950000000000000000000000000000000000087
:10196000000000000000000000000000FFFFFFFF7B
:1019700001000000FFFFFFFF010000000400000065
:0819800001000000000000005E
:04000005080000C12E
:00000001FF
